{
  "_format": "hh-sol-artifact-1",
  "contractName": "Inscrible",
  "sourceName": "contracts/Inscrible.sol",
  "abi": [
    {
      "inputs": [
        {
          "internalType": "address",
          "name": "following_key",
          "type": "address"
        }
      ],
      "name": "addFriend",
      "outputs": [],
      "stateMutability": "nonpayable",
      "type": "function"
    },
    {
      "inputs": [
        {
          "internalType": "string",
          "name": "_imgHash",
          "type": "string"
        },
        {
          "internalType": "string",
          "name": "desc",
          "type": "string"
        },
        {
          "internalType": "string",
          "name": "imgText",
          "type": "string"
        }
      ],
      "name": "addPostImage",
      "outputs": [],
      "stateMutability": "nonpayable",
      "type": "function"
    },
    {
      "inputs": [
        {
          "internalType": "address",
          "name": "me",
          "type": "address"
        },
        {
          "internalType": "address",
          "name": "following_key",
          "type": "address"
        }
      ],
      "name": "checkAlreadyFriends",
      "outputs": [
        {
          "internalType": "bool",
          "name": "",
          "type": "bool"
        }
      ],
      "stateMutability": "view",
      "type": "function"
    },
    {
      "inputs": [
        {
          "internalType": "string[]",
          "name": "likedBy",
          "type": "string[]"
        },
        {
          "internalType": "string",
          "name": "username",
          "type": "string"
        }
      ],
      "name": "checkIfLikedByExists",
      "outputs": [
        {
          "components": [
            {
              "internalType": "uint256",
              "name": "index",
              "type": "uint256"
            },
            {
              "internalType": "bool",
              "name": "exists",
              "type": "bool"
            }
          ],
          "internalType": "struct Inscrible.LikedExsistence",
          "name": "",
          "type": "tuple"
        }
      ],
      "stateMutability": "pure",
      "type": "function"
    },
    {
      "inputs": [
        {
          "internalType": "address",
          "name": "key",
          "type": "address"
        }
      ],
      "name": "checkUser",
      "outputs": [
        {
          "internalType": "bool",
          "name": "",
          "type": "bool"
        }
      ],
      "stateMutability": "view",
      "type": "function"
    },
    {
      "inputs": [
        {
          "internalType": "string",
          "name": "_username",
          "type": "string"
        }
      ],
      "name": "createAccount",
      "outputs": [],
      "stateMutability": "nonpayable",
      "type": "function"
    },
    {
      "inputs": [],
      "name": "getAllAppUser",
      "outputs": [
        {
          "components": [
            {
              "internalType": "string",
              "name": "username",
              "type": "string"
            },
            {
              "internalType": "address",
              "name": "accountAddress",
              "type": "address"
            }
          ],
          "internalType": "struct Inscrible.AllUserStruck[]",
          "name": "",
          "type": "tuple[]"
        }
      ],
      "stateMutability": "view",
      "type": "function"
    },
    {
      "inputs": [],
      "name": "getAllPosts",
      "outputs": [
        {
          "components": [
            {
              "internalType": "string",
              "name": "createrName",
              "type": "string"
            },
            {
              "internalType": "address payable",
              "name": "userAddress",
              "type": "address"
            },
            {
              "internalType": "string",
              "name": "imageHash",
              "type": "string"
            },
            {
              "internalType": "string",
              "name": "caption",
              "type": "string"
            },
            {
              "internalType": "string",
              "name": "imageText",
              "type": "string"
            },
            {
              "internalType": "uint256",
              "name": "tipAmount",
              "type": "uint256"
            },
            {
              "internalType": "uint256",
              "name": "id",
              "type": "uint256"
            },
            {
              "internalType": "uint256",
              "name": "likeCount",
              "type": "uint256"
            },
            {
              "internalType": "string[]",
              "name": "likedByUser",
              "type": "string[]"
            }
          ],
          "internalType": "struct Inscrible.Post[]",
          "name": "",
          "type": "tuple[]"
        }
      ],
      "stateMutability": "view",
      "type": "function"
    },
    {
      "inputs": [
        {
          "internalType": "address",
          "name": "user",
          "type": "address"
        }
      ],
      "name": "getMyFollowersList",
      "outputs": [
        {
          "components": [
            {
              "internalType": "address",
              "name": "pubkey",
              "type": "address"
            },
            {
              "internalType": "string",
              "name": "name",
              "type": "string"
            }
          ],
          "internalType": "struct Inscrible.friend[]",
          "name": "",
          "type": "tuple[]"
        }
      ],
      "stateMutability": "view",
      "type": "function"
    },
    {
      "inputs": [
        {
          "internalType": "address",
          "name": "user",
          "type": "address"
        }
      ],
      "name": "getMyFollowingsList",
      "outputs": [
        {
          "components": [
            {
              "internalType": "address",
              "name": "pubkey",
              "type": "address"
            },
            {
              "internalType": "string",
              "name": "name",
              "type": "string"
            }
          ],
          "internalType": "struct Inscrible.friend[]",
          "name": "",
          "type": "tuple[]"
        }
      ],
      "stateMutability": "view",
      "type": "function"
    },
    {
      "inputs": [
        {
          "internalType": "address",
          "name": "userAddress",
          "type": "address"
        }
      ],
      "name": "getOneUserPosts",
      "outputs": [
        {
          "components": [
            {
              "internalType": "string",
              "name": "createrName",
              "type": "string"
            },
            {
              "internalType": "address payable",
              "name": "userAddress",
              "type": "address"
            },
            {
              "internalType": "string",
              "name": "imageHash",
              "type": "string"
            },
            {
              "internalType": "string",
              "name": "caption",
              "type": "string"
            },
            {
              "internalType": "string",
              "name": "imageText",
              "type": "string"
            },
            {
              "internalType": "uint256",
              "name": "tipAmount",
              "type": "uint256"
            },
            {
              "internalType": "uint256",
              "name": "id",
              "type": "uint256"
            },
            {
              "internalType": "uint256",
              "name": "likeCount",
              "type": "uint256"
            },
            {
              "internalType": "string[]",
              "name": "likedByUser",
              "type": "string[]"
            }
          ],
          "internalType": "struct Inscrible.Post[]",
          "name": "",
          "type": "tuple[]"
        }
      ],
      "stateMutability": "view",
      "type": "function"
    },
    {
      "inputs": [
        {
          "internalType": "uint256",
          "name": "post_id",
          "type": "uint256"
        }
      ],
      "name": "getTipAmountByPostId",
      "outputs": [
        {
          "internalType": "uint256",
          "name": "",
          "type": "uint256"
        }
      ],
      "stateMutability": "view",
      "type": "function"
    },
    {
      "inputs": [
        {
          "internalType": "address",
          "name": "key",
          "type": "address"
        }
      ],
      "name": "getUsername",
      "outputs": [
        {
          "internalType": "string",
          "name": "",
          "type": "string"
        }
      ],
      "stateMutability": "view",
      "type": "function"
    },
    {
      "inputs": [
        {
          "internalType": "uint256",
          "name": "post_id",
          "type": "uint256"
        }
      ],
      "name": "incrementLike",
      "outputs": [
        {
          "internalType": "bool",
          "name": "",
          "type": "bool"
        }
      ],
      "stateMutability": "nonpayable",
      "type": "function"
    },
    {
      "inputs": [
        {
          "internalType": "address",
          "name": "followingAddress",
          "type": "address"
        }
      ],
      "name": "removeFriend",
      "outputs": [],
      "stateMutability": "nonpayable",
      "type": "function"
    },
    {
      "inputs": [
        {
          "internalType": "uint256",
          "name": "_id",
          "type": "uint256"
        }
      ],
      "name": "tipPostOwner",
      "outputs": [],
      "stateMutability": "payable",
      "type": "function"
    },
    {
      "stateMutability": "payable",
      "type": "receive"
    }
  ],
  "bytecode": "0x6080604052600060015534801561001557600080fd5b50614a84806100256000396000f3fe6080604052600436106100f75760003560e01c806380cee8a51161008a578063ce43c03211610059578063ce43c0321461037f578063d6313c06146103bc578063d7a1cfe1146103d8578063e176606e14610401576100fe565b806380cee8a5146102b1578063a24d41de146102da578063aed84e7b14610305578063b9a4134f14610342576100fe565b806330561100116100c657806330561100146101e357806359737a541461020e5780636ff5f8e71461023757806373fc70b014610274576100fe565b80631500e89f146101035780631e9d48cf14610140578063234bb7ba1461017d578063298daf5b146101ba576100fe565b366100fe57005b600080fd5b34801561010f57600080fd5b5061012a60048036038101906101259190613ac7565b61043e565b6040516101379190613ba2565b60405180910390f35b34801561014c57600080fd5b5061016760048036038101906101629190613c1b565b6104d8565b6040516101749190613c57565b60405180910390f35b34801561018957600080fd5b506101a4600480360381019061019f9190613c9e565b61054a565b6040516101b19190613cda565b60405180910390f35b3480156101c657600080fd5b506101e160048036038101906101dc9190613d50565b610585565b005b3480156101ef57600080fd5b506101f8610770565b60405161020591906140ab565b60405180910390f35b34801561021a57600080fd5b50610235600480360381019061023091906140cd565b610b65565b005b34801561024357600080fd5b5061025e60048036038101906102599190613c1b565b610fd5565b60405161026b91906140ab565b60405180910390f35b34801561028057600080fd5b5061029b60048036038101906102969190613c1b565b61140c565b6040516102a89190614282565b60405180910390f35b3480156102bd57600080fd5b506102d860048036038101906102d39190613c1b565b611595565b005b3480156102e657600080fd5b506102ef611c92565b6040516102fc91906143a3565b60405180910390f35b34801561031157600080fd5b5061032c60048036038101906103279190613c1b565b611dd9565b6040516103399190614282565b60405180910390f35b34801561034e57600080fd5b50610369600480360381019061036491906143c5565b611f62565b6040516103769190613c57565b60405180910390f35b34801561038b57600080fd5b506103a660048036038101906103a19190613c1b565b612099565b6040516103b3919061444f565b60405180910390f35b6103d660048036038101906103d19190613c9e565b61216d565b005b3480156103e457600080fd5b506103ff60048036038101906103fa9190613c1b565b6124b9565b005b34801561040d57600080fd5b5061042860048036038101906104239190613c9e565b61292c565b6040516104359190613c57565b60405180910390f35b6104466134fc565b60005b83518110156104b557828051906020012084828151811061046d5761046c614471565b5b60200260200101518051906020012014156104a2576040518060400160405280828152602001600115158152509150506104d2565b80806104ad906144cf565b915050610449565b604051806040016040528060008152602001600015158152509150505b92915050565b6000806000805490501115610540576000600360008473ffffffffffffffffffffffffffffffffffffffff1673ffffffffffffffffffffffffffffffffffffffff168152602001908152602001600020600001805461053690614547565b9050119050610545565b600090505b919050565b6000600560018361055b9190614579565b8154811061056c5761056b614471565b5b9060005260206000209060090201600501549050919050565b60001515610592336104d8565b1515146105d4576040517f08c379a00000000000000000000000000000000000000000000000000000000081526004016105cb906145f9565b60405180910390fd5b6000828290501161061a576040517f08c379a000000000000000000000000000000000000000000000000000000000815260040161061190614665565b60405180910390fd5b8181600360003373ffffffffffffffffffffffffffffffffffffffff1673ffffffffffffffffffffffffffffffffffffffff168152602001908152602001600020600001919061066b929190613518565b506000604051806040016040528084848080601f016020809104026020016040519081016040528093929190818152602001838380828437600081840152601f19601f8201169050808301925050505050505081526020013373ffffffffffffffffffffffffffffffffffffffff168152509080600181540180825580915050600190039060005260206000209060020201600090919091909150600082015181600001908051906020019061072292919061359e565b5060208201518160010160006101000a81548173ffffffffffffffffffffffffffffffffffffffff021916908373ffffffffffffffffffffffffffffffffffffffff16021790555050505050565b60606005805480602002602001604051908101604052809291908181526020016000905b82821015610b5c5783829060005260206000209060090201604051806101200160405290816000820180546107c890614547565b80601f01602080910402602001604051908101604052809291908181526020018280546107f490614547565b80156108415780601f1061081657610100808354040283529160200191610841565b820191906000526020600020905b81548152906001019060200180831161082457829003601f168201915b505050505081526020016001820160009054906101000a900473ffffffffffffffffffffffffffffffffffffffff1673ffffffffffffffffffffffffffffffffffffffff1673ffffffffffffffffffffffffffffffffffffffff1681526020016002820180546108b090614547565b80601f01602080910402602001604051908101604052809291908181526020018280546108dc90614547565b80156109295780601f106108fe57610100808354040283529160200191610929565b820191906000526020600020905b81548152906001019060200180831161090c57829003601f168201915b5050505050815260200160038201805461094290614547565b80601f016020809104026020016040519081016040528092919081815260200182805461096e90614547565b80156109bb5780601f10610990576101008083540402835291602001916109bb565b820191906000526020600020905b81548152906001019060200180831161099e57829003601f168201915b505050505081526020016004820180546109d490614547565b80601f0160208091040260200160405190810160405280929190818152602001828054610a0090614547565b8015610a4d5780601f10610a2257610100808354040283529160200191610a4d565b820191906000526020600020905b815481529060010190602001808311610a3057829003601f168201915b5050505050815260200160058201548152602001600682015481526020016007820154815260200160088201805480602002602001604051908101604052809291908181526020016000905b82821015610b45578382906000526020600020018054610ab890614547565b80601f0160208091040260200160405190810160405280929190818152602001828054610ae490614547565b8015610b315780601f10610b0657610100808354040283529160200191610b31565b820191906000526020600020905b815481529060010190602001808311610b1457829003601f168201915b505050505081526020019060010190610a99565b505050508152505081526020019060010190610794565b50505050905090565b610b6e336104d8565b610bad576040517f08c379a0000000000000000000000000000000000000000000000000000000008152600401610ba4906146d1565b60405180910390fd5b6000835111610bbb57600080fd5b60018054610bc991906146f1565b6001819055506000604051806101200160405280600360003373ffffffffffffffffffffffffffffffffffffffff1673ffffffffffffffffffffffffffffffffffffffff1681526020019081526020016000206000018054610c2a90614547565b80601f0160208091040260200160405190810160405280929190818152602001828054610c5690614547565b8015610ca35780601f10610c7857610100808354040283529160200191610ca3565b820191906000526020600020905b815481529060010190602001808311610c8657829003601f168201915b505050505081526020013373ffffffffffffffffffffffffffffffffffffffff16815260200185815260200184815260200183815260200160008152602001600154815260200160008152602001600067ffffffffffffffff811115610d0c57610d0b6138b1565b5b604051908082528060200260200182016040528015610d3f57816020015b6060815260200190600190039081610d2a5790505b508152509050600360003373ffffffffffffffffffffffffffffffffffffffff1673ffffffffffffffffffffffffffffffffffffffff1681526020019081526020016000206003018190806001815401808255809150506001900390600052602060002090600902016000909190919091506000820151816000019080519060200190610dcd92919061359e565b5060208201518160010160006101000a81548173ffffffffffffffffffffffffffffffffffffffff021916908373ffffffffffffffffffffffffffffffffffffffff1602179055506040820151816002019080519060200190610e3192919061359e565b506060820151816003019080519060200190610e4e92919061359e565b506080820151816004019080519060200190610e6b92919061359e565b5060a0820151816005015560c0820151816006015560e08201518160070155610100820151816008019080519060200190610ea7929190613624565b50505060058190806001815401808255809150506001900390600052602060002090600902016000909190919091506000820151816000019080519060200190610ef292919061359e565b5060208201518160010160006101000a81548173ffffffffffffffffffffffffffffffffffffffff021916908373ffffffffffffffffffffffffffffffffffffffff1602179055506040820151816002019080519060200190610f5692919061359e565b506060820151816003019080519060200190610f7392919061359e565b506080820151816004019080519060200190610f9092919061359e565b5060a0820151816005015560c0820151816006015560e08201518160070155610100820151816008019080519060200190610fcc929190613624565b50505050505050565b6060600360008373ffffffffffffffffffffffffffffffffffffffff1673ffffffffffffffffffffffffffffffffffffffff168152602001908152602001600020600301805480602002602001604051908101604052809291908181526020016000905b8282101561140157838290600052602060002090600902016040518061012001604052908160008201805461106d90614547565b80601f016020809104026020016040519081016040528092919081815260200182805461109990614547565b80156110e65780601f106110bb576101008083540402835291602001916110e6565b820191906000526020600020905b8154815290600101906020018083116110c957829003601f168201915b505050505081526020016001820160009054906101000a900473ffffffffffffffffffffffffffffffffffffffff1673ffffffffffffffffffffffffffffffffffffffff1673ffffffffffffffffffffffffffffffffffffffff16815260200160028201805461115590614547565b80601f016020809104026020016040519081016040528092919081815260200182805461118190614547565b80156111ce5780601f106111a3576101008083540402835291602001916111ce565b820191906000526020600020905b8154815290600101906020018083116111b157829003601f168201915b505050505081526020016003820180546111e790614547565b80601f016020809104026020016040519081016040528092919081815260200182805461121390614547565b80156112605780601f1061123557610100808354040283529160200191611260565b820191906000526020600020905b81548152906001019060200180831161124357829003601f168201915b5050505050815260200160048201805461127990614547565b80601f01602080910402602001604051908101604052809291908181526020018280546112a590614547565b80156112f25780601f106112c7576101008083540402835291602001916112f2565b820191906000526020600020905b8154815290600101906020018083116112d557829003601f168201915b5050505050815260200160058201548152602001600682015481526020016007820154815260200160088201805480602002602001604051908101604052809291908181526020016000905b828210156113ea57838290600052602060002001805461135d90614547565b80601f016020809104026020016040519081016040528092919081815260200182805461138990614547565b80156113d65780601f106113ab576101008083540402835291602001916113d6565b820191906000526020600020905b8154815290600101906020018083116113b957829003601f168201915b50505050508152602001906001019061133e565b505050508152505081526020019060010190611039565b505050509050919050565b6060600360008373ffffffffffffffffffffffffffffffffffffffff1673ffffffffffffffffffffffffffffffffffffffff168152602001908152602001600020600101805480602002602001604051908101604052809291908181526020016000905b8282101561158a57838290600052602060002090600202016040518060400160405290816000820160009054906101000a900473ffffffffffffffffffffffffffffffffffffffff1673ffffffffffffffffffffffffffffffffffffffff1673ffffffffffffffffffffffffffffffffffffffff1681526020016001820180546114f990614547565b80601f016020809104026020016040519081016040528092919081815260200182805461152590614547565b80156115725780601f1061154757610100808354040283529160200191611572565b820191906000526020600020905b81548152906001019060200180831161155557829003601f168201915b50505050508152505081526020019060010190611470565b505050509050919050565b6000806000905060005b600360008573ffffffffffffffffffffffffffffffffffffffff1673ffffffffffffffffffffffffffffffffffffffff168152602001908152602001600020600101805490508110156116c4573373ffffffffffffffffffffffffffffffffffffffff16600360008673ffffffffffffffffffffffffffffffffffffffff1673ffffffffffffffffffffffffffffffffffffffff168152602001908152602001600020600101828154811061165757611656614471565b5b906000526020600020906002020160000160009054906101000a900473ffffffffffffffffffffffffffffffffffffffff1673ffffffffffffffffffffffffffffffffffffffff1614156116b157809250600191506116c4565b80806116bc906144cf565b91505061159f565b50801561190d57600360008473ffffffffffffffffffffffffffffffffffffffff1673ffffffffffffffffffffffffffffffffffffffff1681526020019081526020016000206001016001600360008673ffffffffffffffffffffffffffffffffffffffff1673ffffffffffffffffffffffffffffffffffffffff1681526020019081526020016000206001018054905061175f9190614579565b815481106117705761176f614471565b5b9060005260206000209060020201600360008573ffffffffffffffffffffffffffffffffffffffff1673ffffffffffffffffffffffffffffffffffffffff16815260200190815260200160002060010183815481106117d2576117d1614471565b5b90600052602060002090600202016000820160009054906101000a900473ffffffffffffffffffffffffffffffffffffffff168160000160006101000a81548173ffffffffffffffffffffffffffffffffffffffff021916908373ffffffffffffffffffffffffffffffffffffffff160217905550600182018160010190805461185b90614547565b611866929190613684565b50905050600360008473ffffffffffffffffffffffffffffffffffffffff1673ffffffffffffffffffffffffffffffffffffffff1681526020019081526020016000206001018054806118bc576118bb614747565b5b6001900381819060005260206000209060020201600080820160006101000a81549073ffffffffffffffffffffffffffffffffffffffff02191690556001820160006119089190613711565b505090555b6000806000905060005b600360003373ffffffffffffffffffffffffffffffffffffffff1673ffffffffffffffffffffffffffffffffffffffff16815260200190815260200160002060020180549050811015611a3c578573ffffffffffffffffffffffffffffffffffffffff16600360003373ffffffffffffffffffffffffffffffffffffffff1673ffffffffffffffffffffffffffffffffffffffff16815260200190815260200160002060020182815481106119cf576119ce614471565b5b906000526020600020906002020160000160009054906101000a900473ffffffffffffffffffffffffffffffffffffffff1673ffffffffffffffffffffffffffffffffffffffff161415611a295780925060019150611a3c565b8080611a34906144cf565b915050611917565b508015611c8b576000600360003373ffffffffffffffffffffffffffffffffffffffff1673ffffffffffffffffffffffffffffffffffffffff168152602001908152602001600020600201805490509050600360003373ffffffffffffffffffffffffffffffffffffffff1673ffffffffffffffffffffffffffffffffffffffff168152602001908152602001600020600201600182611adc9190614579565b81548110611aed57611aec614471565b5b9060005260206000209060020201600360003373ffffffffffffffffffffffffffffffffffffffff1673ffffffffffffffffffffffffffffffffffffffff1681526020019081526020016000206002018481548110611b4f57611b4e614471565b5b90600052602060002090600202016000820160009054906101000a900473ffffffffffffffffffffffffffffffffffffffff168160000160006101000a81548173ffffffffffffffffffffffffffffffffffffffff021916908373ffffffffffffffffffffffffffffffffffffffff1602179055506001820181600101908054611bd890614547565b611be3929190613684565b50905050600360003373ffffffffffffffffffffffffffffffffffffffff1673ffffffffffffffffffffffffffffffffffffffff168152602001908152602001600020600201805480611c3957611c38614747565b5b6001900381819060005260206000209060020201600080820160006101000a81549073ffffffffffffffffffffffffffffffffffffffff0219169055600182016000611c859190613711565b50509055505b5050505050565b60606000805480602002602001604051908101604052809291908181526020016000905b82821015611dd05783829060005260206000209060020201604051806040016040529081600082018054611ce990614547565b80601f0160208091040260200160405190810160405280929190818152602001828054611d1590614547565b8015611d625780601f10611d3757610100808354040283529160200191611d62565b820191906000526020600020905b815481529060010190602001808311611d4557829003601f168201915b505050505081526020016001820160009054906101000a900473ffffffffffffffffffffffffffffffffffffffff1673ffffffffffffffffffffffffffffffffffffffff1673ffffffffffffffffffffffffffffffffffffffff168152505081526020019060010190611cb6565b50505050905090565b6060600360008373ffffffffffffffffffffffffffffffffffffffff1673ffffffffffffffffffffffffffffffffffffffff168152602001908152602001600020600201805480602002602001604051908101604052809291908181526020016000905b82821015611f5757838290600052602060002090600202016040518060400160405290816000820160009054906101000a900473ffffffffffffffffffffffffffffffffffffffff1673ffffffffffffffffffffffffffffffffffffffff1673ffffffffffffffffffffffffffffffffffffffff168152602001600182018054611ec690614547565b80601f0160208091040260200160405190810160405280929190818152602001828054611ef290614547565b8015611f3f5780601f10611f1457610100808354040283529160200191611f3f565b820191906000526020600020905b815481529060010190602001808311611f2257829003601f168201915b50505050508152505081526020019060010190611e3d565b505050509050919050565b600080600090505b600360008473ffffffffffffffffffffffffffffffffffffffff1673ffffffffffffffffffffffffffffffffffffffff1681526020019081526020016000206001018054905081101561208d578373ffffffffffffffffffffffffffffffffffffffff16600360008573ffffffffffffffffffffffffffffffffffffffff1673ffffffffffffffffffffffffffffffffffffffff168152602001908152602001600020600101828154811061202257612021614471565b5b906000526020600020906002020160000160009054906101000a900473ffffffffffffffffffffffffffffffffffffffff1673ffffffffffffffffffffffffffffffffffffffff16141561207a576001915050612093565b8080612085906144cf565b915050611f6a565b50600090505b92915050565b6060600360008373ffffffffffffffffffffffffffffffffffffffff1673ffffffffffffffffffffffffffffffffffffffff16815260200190815260200160002060000180546120e890614547565b80601f016020809104026020016040519081016040528092919081815260200182805461211490614547565b80156121615780601f1061213657610100808354040283529160200191612161565b820191906000526020600020905b81548152906001019060200180831161214457829003601f168201915b50505050509050919050565b60008111801561217f57506001548111155b6121be576040517f08c379a00000000000000000000000000000000000000000000000000000000081526004016121b5906147c2565b60405180910390fd5b3373ffffffffffffffffffffffffffffffffffffffff1660056001836121e49190614579565b815481106121f5576121f4614471565b5b906000526020600020906009020160010160009054906101000a900473ffffffffffffffffffffffffffffffffffffffff1673ffffffffffffffffffffffffffffffffffffffff16141561227e576040517f08c379a00000000000000000000000000000000000000000000000000000000081526004016122759061482e565b60405180910390fd5b6000600560018361228f9190614579565b815481106122a05761229f614471565b5b906000526020600020906009020160010160009054906101000a900473ffffffffffffffffffffffffffffffffffffffff1690508073ffffffffffffffffffffffffffffffffffffffff166108fc349081150290604051600060405180830381858888f1935050505015801561231a573d6000803e3d6000fd5b5034600560018461232b9190614579565b8154811061233c5761233b614471565b5b9060005260206000209060090201600501600082825461235c91906146f1565b9250508190555060005b600360008373ffffffffffffffffffffffffffffffffffffffff1673ffffffffffffffffffffffffffffffffffffffff168152602001908152602001600020600301805490508110156124b45782600360008473ffffffffffffffffffffffffffffffffffffffff1673ffffffffffffffffffffffffffffffffffffffff168152602001908152602001600020600301828154811061240857612407614471565b5b90600052602060002090600902016006015414156124a15734600360008473ffffffffffffffffffffffffffffffffffffffff1673ffffffffffffffffffffffffffffffffffffffff168152602001908152602001600020600301828154811061247557612474614471565b5b9060005260206000209060090201600501600082825461249591906146f1565b925050819055506124b4565b80806124ac906144cf565b915050612366565b505050565b6124c2336104d8565b612501576040517f08c379a00000000000000000000000000000000000000000000000000000000081526004016124f89061489a565b60405180910390fd5b61250a816104d8565b612549576040517f08c379a000000000000000000000000000000000000000000000000000000000815260040161254090614906565b60405180910390fd5b8073ffffffffffffffffffffffffffffffffffffffff163373ffffffffffffffffffffffffffffffffffffffff1614156125b8576040517f08c379a00000000000000000000000000000000000000000000000000000000081526004016125af90614998565b60405180910390fd5b600015156125c63383611f62565b151514612608576040517f08c379a00000000000000000000000000000000000000000000000000000000081526004016125ff90614a04565b60405180910390fd5b6126dd8133600360003373ffffffffffffffffffffffffffffffffffffffff1673ffffffffffffffffffffffffffffffffffffffff168152602001908152602001600020600001805461265a90614547565b80601f016020809104026020016040519081016040528092919081815260200182805461268690614547565b80156126d35780601f106126a8576101008083540402835291602001916126d3565b820191906000526020600020905b8154815290600101906020018083116126b657829003601f168201915b5050505050613229565b60005b600360008373ffffffffffffffffffffffffffffffffffffffff1673ffffffffffffffffffffffffffffffffffffffff1681526020019081526020016000206003018054905081101561292857600460003373ffffffffffffffffffffffffffffffffffffffff1673ffffffffffffffffffffffffffffffffffffffff168152602001908152602001600020600360008473ffffffffffffffffffffffffffffffffffffffff1673ffffffffffffffffffffffffffffffffffffffff16815260200190815260200160002060030182815481106127c0576127bf614471565b5b90600052602060002090600902019080600181540180825580915050600190039060005260206000209060090201600090919091909150600082018160000190805461280b90614547565b612816929190613684565b506001820160009054906101000a900473ffffffffffffffffffffffffffffffffffffffff168160010160006101000a81548173ffffffffffffffffffffffffffffffffffffffff021916908373ffffffffffffffffffffffffffffffffffffffff160217905550600282018160020190805461289290614547565b61289d929190613684565b5060038201816003019080546128b290614547565b6128bd929190613684565b5060048201816004019080546128d290614547565b6128dd929190613684565b506005820154816005015560068201548160060155600782015481600701556008820181600801908054612912929190613751565b5050508080612920906144cf565b9150506126e0565b5050565b6000808211801561293f57506001548211155b61294857600080fd5b600080612b1f600560018661295d9190614579565b8154811061296e5761296d614471565b5b9060005260206000209060090201600801805480602002602001604051908101604052809291908181526020016000905b82821015612a4b5783829060005260206000200180546129be90614547565b80601f01602080910402602001604051908101604052809291908181526020018280546129ea90614547565b8015612a375780601f10612a0c57610100808354040283529160200191612a37565b820191906000526020600020905b815481529060010190602001808311612a1a57829003601f168201915b50505050508152602001906001019061299f565b50505050600360003373ffffffffffffffffffffffffffffffffffffffff1673ffffffffffffffffffffffffffffffffffffffff1681526020019081526020016000206000018054612a9c90614547565b80601f0160208091040260200160405190810160405280929190818152602001828054612ac890614547565b8015612b155780601f10612aea57610100808354040283529160200191612b15565b820191906000526020600020905b815481529060010190602001808311612af857829003601f168201915b505050505061043e565b905060001515816020015115151415612e7b576005600185612b419190614579565b81548110612b5257612b51614471565b5b90600052602060002090600902016007016000815480929190612b74906144cf565b919050555060005b600360006005600188612b8f9190614579565b81548110612ba057612b9f614471565b5b906000526020600020906009020160010160009054906101000a900473ffffffffffffffffffffffffffffffffffffffff1673ffffffffffffffffffffffffffffffffffffffff1673ffffffffffffffffffffffffffffffffffffffff16815260200190815260200160002060030180549050811015612dbf5784600360006005600189612c2e9190614579565b81548110612c3f57612c3e614471565b5b906000526020600020906009020160010160009054906101000a900473ffffffffffffffffffffffffffffffffffffffff1673ffffffffffffffffffffffffffffffffffffffff1673ffffffffffffffffffffffffffffffffffffffff1681526020019081526020016000206003018281548110612cc057612cbf614471565b5b9060005260206000209060090201600601541415612dac57600360006005600188612ceb9190614579565b81548110612cfc57612cfb614471565b5b906000526020600020906009020160010160009054906101000a900473ffffffffffffffffffffffffffffffffffffffff1673ffffffffffffffffffffffffffffffffffffffff1673ffffffffffffffffffffffffffffffffffffffff1681526020019081526020016000206003018181548110612d7d57612d7c614471565b5b90600052602060002090600902016007016000815480929190612d9f906144cf565b9190505550809250612dbf565b8080612db7906144cf565b915050612b7c565b506005600185612dcf9190614579565b81548110612de057612ddf614471565b5b9060005260206000209060090201600801600360003373ffffffffffffffffffffffffffffffffffffffff1673ffffffffffffffffffffffffffffffffffffffff16815260200190815260200160002060000190806001815401808255809150506001900390600052602060002001600090919091909150908054612e6490614547565b612e6f9291906137b9565b50600192505050613224565b600360006005600187612e8e9190614579565b81548110612e9f57612e9e614471565b5b906000526020600020906009020160010160009054906101000a900473ffffffffffffffffffffffffffffffffffffffff1673ffffffffffffffffffffffffffffffffffffffff1673ffffffffffffffffffffffffffffffffffffffff1681526020019081526020016000206003018281548110612f2057612f1f614471565b5b90600052602060002090600902016007016000815480929190612f4290614a24565b919050555060006005600186612f589190614579565b81548110612f6957612f68614471565b5b9060005260206000209060090201600801826000015181548110612f9057612f8f614471565b5b906000526020600020018054612fa590614547565b80601f0160208091040260200160405190810160405280929190818152602001828054612fd190614547565b801561301e5780601f10612ff35761010080835404028352916020019161301e565b820191906000526020600020905b81548152906001019060200180831161300157829003601f168201915b5050505050905060056001866130349190614579565b8154811061304557613044614471565b5b9060005260206000209060090201600801600160056001886130679190614579565b8154811061307857613077614471565b5b9060005260206000209060090201600801805490506130979190614579565b815481106130a8576130a7614471565b5b9060005260206000200160056001876130c19190614579565b815481106130d2576130d1614471565b5b90600052602060002090600902016008018360000151815481106130f9576130f8614471565b5b9060005260206000200190805461310f90614547565b61311a9291906137b9565b5080600560018761312b9190614579565b8154811061313c5761313b614471565b5b90600052602060002090600902016008016001600560018961315e9190614579565b8154811061316f5761316e614471565b5b90600052602060002090600902016008018054905061318e9190614579565b8154811061319f5761319e614471565b5b9060005260206000200190805190602001906131bc92919061359e565b5060056001866131cc9190614579565b815481106131dd576131dc614471565b5b90600052602060002090600902016008018054806131fe576131fd614747565b5b60019003818190600052602060002001600061321a9190613711565b9055600093505050505b919050565b600060405180604001604052808473ffffffffffffffffffffffffffffffffffffffff168152602001838152509050600360008573ffffffffffffffffffffffffffffffffffffffff1673ffffffffffffffffffffffffffffffffffffffff16815260200190815260200160002060010181908060018154018082558091505060019003906000526020600020906002020160009091909190915060008201518160000160006101000a81548173ffffffffffffffffffffffffffffffffffffffff021916908373ffffffffffffffffffffffffffffffffffffffff160217905550602082015181600101908051906020019061332792919061359e565b505050600060405180604001604052808673ffffffffffffffffffffffffffffffffffffffff168152602001600360008873ffffffffffffffffffffffffffffffffffffffff1673ffffffffffffffffffffffffffffffffffffffff16815260200190815260200160002060000180546133a090614547565b80601f01602080910402602001604051908101604052809291908181526020018280546133cc90614547565b80156134195780601f106133ee57610100808354040283529160200191613419565b820191906000526020600020905b8154815290600101906020018083116133fc57829003601f168201915b50505050508152509050600360008573ffffffffffffffffffffffffffffffffffffffff1673ffffffffffffffffffffffffffffffffffffffff16815260200190815260200160002060020181908060018154018082558091505060019003906000526020600020906002020160009091909190915060008201518160000160006101000a81548173ffffffffffffffffffffffffffffffffffffffff021916908373ffffffffffffffffffffffffffffffffffffffff16021790555060208201518160010190805190602001906134f292919061359e565b5050505050505050565b6040518060400160405280600081526020016000151581525090565b82805461352490614547565b90600052602060002090601f016020900481019282613546576000855561358d565b82601f1061355f57803560ff191683800117855561358d565b8280016001018555821561358d579182015b8281111561358c578235825591602001919060010190613571565b5b50905061359a9190613846565b5090565b8280546135aa90614547565b90600052602060002090601f0160209004810192826135cc5760008555613613565b82601f106135e557805160ff1916838001178555613613565b82800160010185558215613613579182015b828111156136125782518255916020019190600101906135f7565b5b5090506136209190613846565b5090565b828054828255906000526020600020908101928215613673579160200282015b8281111561367257825182908051906020019061366292919061359e565b5091602001919060010190613644565b5b5090506136809190613863565b5090565b82805461369090614547565b90600052602060002090601f0160209004810192826136b25760008555613700565b82601f106136c35780548555613700565b8280016001018555821561370057600052602060002091601f016020900482015b828111156136ff5782548255916001019190600101906136e4565b5b50905061370d9190613846565b5090565b50805461371d90614547565b6000825580601f1061372f575061374e565b601f01602090049060005260206000209081019061374d9190613846565b5b50565b8280548282559060005260206000209081019282156137a85760005260206000209182015b828111156137a757828290805461378c90614547565b613797929190613684565b5091600101919060010190613776565b5b5090506137b59190613863565b5090565b8280546137c590614547565b90600052602060002090601f0160209004810192826137e75760008555613835565b82601f106137f85780548555613835565b8280016001018555821561383557600052602060002091601f016020900482015b82811115613834578254825591600101919060010190613819565b5b5090506138429190613846565b5090565b5b8082111561385f576000816000905550600101613847565b5090565b5b80821115613883576000818161387a9190613711565b50600101613864565b5090565b6000604051905090565b600080fd5b600080fd5b600080fd5b6000601f19601f8301169050919050565b7f4e487b7100000000000000000000000000000000000000000000000000000000600052604160045260246000fd5b6138e9826138a0565b810181811067ffffffffffffffff82111715613908576139076138b1565b5b80604052505050565b600061391b613887565b905061392782826138e0565b919050565b600067ffffffffffffffff821115613947576139466138b1565b5b602082029050602081019050919050565b600080fd5b600080fd5b600067ffffffffffffffff82111561397d5761397c6138b1565b5b613986826138a0565b9050602081019050919050565b82818337600083830152505050565b60006139b56139b084613962565b613911565b9050828152602081018484840111156139d1576139d061395d565b5b6139dc848285613993565b509392505050565b600082601f8301126139f9576139f861389b565b5b8135613a098482602086016139a2565b91505092915050565b6000613a25613a208461392c565b613911565b90508083825260208201905060208402830185811115613a4857613a47613958565b5b835b81811015613a8f57803567ffffffffffffffff811115613a6d57613a6c61389b565b5b808601613a7a89826139e4565b85526020850194505050602081019050613a4a565b5050509392505050565b600082601f830112613aae57613aad61389b565b5b8135613abe848260208601613a12565b91505092915050565b60008060408385031215613ade57613add613891565b5b600083013567ffffffffffffffff811115613afc57613afb613896565b5b613b0885828601613a99565b925050602083013567ffffffffffffffff811115613b2957613b28613896565b5b613b35858286016139e4565b9150509250929050565b6000819050919050565b613b5281613b3f565b82525050565b60008115159050919050565b613b6d81613b58565b82525050565b604082016000820151613b896000850182613b49565b506020820151613b9c6020850182613b64565b50505050565b6000604082019050613bb76000830184613b73565b92915050565b600073ffffffffffffffffffffffffffffffffffffffff82169050919050565b6000613be882613bbd565b9050919050565b613bf881613bdd565b8114613c0357600080fd5b50565b600081359050613c1581613bef565b92915050565b600060208284031215613c3157613c30613891565b5b6000613c3f84828501613c06565b91505092915050565b613c5181613b58565b82525050565b6000602082019050613c6c6000830184613c48565b92915050565b613c7b81613b3f565b8114613c8657600080fd5b50565b600081359050613c9881613c72565b92915050565b600060208284031215613cb457613cb3613891565b5b6000613cc284828501613c89565b91505092915050565b613cd481613b3f565b82525050565b6000602082019050613cef6000830184613ccb565b92915050565b600080fd5b60008083601f840112613d1057613d0f61389b565b5b8235905067ffffffffffffffff811115613d2d57613d2c613cf5565b5b602083019150836001820283011115613d4957613d48613958565b5b9250929050565b60008060208385031215613d6757613d66613891565b5b600083013567ffffffffffffffff811115613d8557613d84613896565b5b613d9185828601613cfa565b92509250509250929050565b600081519050919050565b600082825260208201905092915050565b6000819050602082019050919050565b600081519050919050565b600082825260208201905092915050565b60005b83811015613e03578082015181840152602081019050613de8565b83811115613e12576000848401525b50505050565b6000613e2382613dc9565b613e2d8185613dd4565b9350613e3d818560208601613de5565b613e46816138a0565b840191505092915050565b6000613e5c82613bbd565b9050919050565b613e6c81613e51565b82525050565b600081519050919050565b600082825260208201905092915050565b6000819050602082019050919050565b6000613eaa8383613e18565b905092915050565b6000602082019050919050565b6000613eca82613e72565b613ed48185613e7d565b935083602082028501613ee685613e8e565b8060005b85811015613f225784840389528151613f038582613e9e565b9450613f0e83613eb2565b925060208a01995050600181019050613eea565b50829750879550505050505092915050565b6000610120830160008301518482036000860152613f528282613e18565b9150506020830151613f676020860182613e63565b5060408301518482036040860152613f7f8282613e18565b91505060608301518482036060860152613f998282613e18565b91505060808301518482036080860152613fb38282613e18565b91505060a0830151613fc860a0860182613b49565b5060c0830151613fdb60c0860182613b49565b5060e0830151613fee60e0860182613b49565b506101008301518482036101008601526140088282613ebf565b9150508091505092915050565b60006140218383613f34565b905092915050565b6000602082019050919050565b600061404182613d9d565b61404b8185613da8565b93508360208202850161405d85613db9565b8060005b85811015614099578484038952815161407a8582614015565b945061408583614029565b925060208a01995050600181019050614061565b50829750879550505050505092915050565b600060208201905081810360008301526140c58184614036565b905092915050565b6000806000606084860312156140e6576140e5613891565b5b600084013567ffffffffffffffff81111561410457614103613896565b5b614110868287016139e4565b935050602084013567ffffffffffffffff81111561413157614130613896565b5b61413d868287016139e4565b925050604084013567ffffffffffffffff81111561415e5761415d613896565b5b61416a868287016139e4565b9150509250925092565b600081519050919050565b600082825260208201905092915050565b6000819050602082019050919050565b6141a981613bdd565b82525050565b60006040830160008301516141c760008601826141a0565b50602083015184820360208601526141df8282613e18565b9150508091505092915050565b60006141f883836141af565b905092915050565b6000602082019050919050565b600061421882614174565b614222818561417f565b93508360208202850161423485614190565b8060005b85811015614270578484038952815161425185826141ec565b945061425c83614200565b925060208a01995050600181019050614238565b50829750879550505050505092915050565b6000602082019050818103600083015261429c818461420d565b905092915050565b600081519050919050565b600082825260208201905092915050565b6000819050602082019050919050565b600060408301600083015184820360008601526142ed8282613e18565b915050602083015161430260208601826141a0565b508091505092915050565b600061431983836142d0565b905092915050565b6000602082019050919050565b6000614339826142a4565b61434381856142af565b935083602082028501614355856142c0565b8060005b858110156143915784840389528151614372858261430d565b945061437d83614321565b925060208a01995050600181019050614359565b50829750879550505050505092915050565b600060208201905081810360008301526143bd818461432e565b905092915050565b600080604083850312156143dc576143db613891565b5b60006143ea85828601613c06565b92505060206143fb85828601613c06565b9150509250929050565b600082825260208201905092915050565b600061442182613dc9565b61442b8185614405565b935061443b818560208601613de5565b614444816138a0565b840191505092915050565b600060208201905081810360008301526144698184614416565b905092915050565b7f4e487b7100000000000000000000000000000000000000000000000000000000600052603260045260246000fd5b7f4e487b7100000000000000000000000000000000000000000000000000000000600052601160045260246000fd5b60006144da82613b3f565b91507fffffffffffffffffffffffffffffffffffffffffffffffffffffffffffffffff82141561450d5761450c6144a0565b5b600182019050919050565b7f4e487b7100000000000000000000000000000000000000000000000000000000600052602260045260246000fd5b6000600282049050600182168061455f57607f821691505b6020821081141561457357614572614518565b5b50919050565b600061458482613b3f565b915061458f83613b3f565b9250828210156145a2576145a16144a0565b5b828203905092915050565b7f5573657220616c726564792068617320616e206163636f756e74210000000000600082015250565b60006145e3601b83614405565b91506145ee826145ad565b602082019050919050565b60006020820190508181036000830152614612816145d6565b9050919050565b7f55736572206e616d652073686f756c64206e6f7420626520656d707479210000600082015250565b600061464f601e83614405565b915061465a82614619565b602082019050919050565b6000602082019050818103600083015261467e81614642565b9050919050565b7f55736572206e6f74207265676973746572656421000000000000000000000000600082015250565b60006146bb601483614405565b91506146c682614685565b602082019050919050565b600060208201905081810360008301526146ea816146ae565b9050919050565b60006146fc82613b3f565b915061470783613b3f565b9250827fffffffffffffffffffffffffffffffffffffffffffffffffffffffffffffffff0382111561473c5761473b6144a0565b5b828201905092915050565b7f4e487b7100000000000000000000000000000000000000000000000000000000600052603160045260246000fd5b7f496e76616c696420706f73742069640000000000000000000000000000000000600082015250565b60006147ac600f83614405565b91506147b782614776565b602082019050919050565b600060208201905081810360008301526147db8161479f565b9050919050565b7f43616e6e6f742074697020796f7572206f776e20706f73740000000000000000600082015250565b6000614818601883614405565b9150614823826147e2565b602082019050919050565b600060208201905081810360008301526148478161480b565b9050919050565b7f43726561746520616e206163636f756e74206669727374000000000000000000600082015250565b6000614884601783614405565b915061488f8261484e565b602082019050919050565b600060208201905081810360008301526148b381614877565b9050919050565b7f55736572206973206e6f74207265676973746572656421000000000000000000600082015250565b60006148f0601783614405565b91506148fb826148ba565b602082019050919050565b6000602082019050818103600083015261491f816148e3565b9050919050565b7f55736572732063616e6e6f7420616464207468656d6573656c7665732061732060008201527f667269656e647300000000000000000000000000000000000000000000000000602082015250565b6000614982602783614405565b915061498d82614926565b604082019050919050565b600060208201905081810360008301526149b181614975565b9050919050565b7f54686573652075736572732061726520616c726561647920667269656e647300600082015250565b60006149ee601f83614405565b91506149f9826149b8565b602082019050919050565b60006020820190508181036000830152614a1d816149e1565b9050919050565b6000614a2f82613b3f565b91506000821415614a4357614a426144a0565b5b60018203905091905056fea264697066735822122069010288e66bddd5e3d448c13245d19010a765da66b631a5568ce91b50ce9d8164736f6c63430008090033",
  "linkReferences": {},
  "deployedLinkReferences": {}
}