{
  "_format": "hh-sol-artifact-1",
  "contractName": "Inscrible",
  "sourceName": "contracts/Inscrible.sol",
  "abi": [
    {
      "inputs": [
        {
          "internalType": "address",
          "name": "key",
          "type": "address"
        }
      ],
      "name": "checkUser",
      "outputs": [
        {
          "internalType": "bool",
          "name": "",
          "type": "bool"
        }
      ],
      "stateMutability": "view",
      "type": "function"
    },
    {
      "inputs": [
        {
          "internalType": "string",
          "name": "_username",
          "type": "string"
        }
      ],
      "name": "createAccount",
      "outputs": [],
      "stateMutability": "nonpayable",
      "type": "function"
    },
    {
      "inputs": [
        {
          "internalType": "address",
          "name": "key",
          "type": "address"
        }
      ],
      "name": "getUsername",
      "outputs": [
        {
          "internalType": "string",
          "name": "",
          "type": "string"
        }
      ],
      "stateMutability": "view",
      "type": "function"
    },
    {
      "stateMutability": "payable",
      "type": "receive"
    }
  ],
  "bytecode": "0x608060405234801561001057600080fd5b5061099e806100206000396000f3fe6080604052600436106100385760003560e01c80631e9d48cf14610044578063298daf5b14610081578063ce43c032146100aa5761003f565b3661003f57005b600080fd5b34801561005057600080fd5b5061006b60048036038101906100669190610630565b6100e7565b6040516100789190610678565b60405180910390f35b34801561008d57600080fd5b506100a860048036038101906100a391906106f8565b6101e2565b005b3480156100b657600080fd5b506100d160048036038101906100cc9190610630565b6103cc565b6040516100de91906107de565b60405180910390f35b60008060009050600180549050811015610188578273ffffffffffffffffffffffffffffffffffffffff166001828154811061012657610125610800565b5b906000526020600020906002020160010160009054906101000a900473ffffffffffffffffffffffffffffffffffffffff1673ffffffffffffffffffffffffffffffffffffffff16141561017e5760019150506101dd565b60009150506101dd565b5060008060008473ffffffffffffffffffffffffffffffffffffffff1673ffffffffffffffffffffffffffffffffffffffff16815260200190815260200160002060000180546101d79061085e565b90501190505b919050565b600015156101ef336100e7565b151514610231576040517f08c379a0000000000000000000000000000000000000000000000000000000008152600401610228906108dc565b60405180910390fd5b60008282905011610277576040517f08c379a000000000000000000000000000000000000000000000000000000000815260040161026e90610948565b60405180910390fd5b81816000803373ffffffffffffffffffffffffffffffffffffffff1673ffffffffffffffffffffffffffffffffffffffff16815260200190815260200160002060000191906102c792919061049f565b506001604051806040016040528084848080601f016020809104026020016040519081016040528093929190818152602001838380828437600081840152601f19601f8201169050808301925050505050505081526020013373ffffffffffffffffffffffffffffffffffffffff168152509080600181540180825580915050600190039060005260206000209060020201600090919091909150600082015181600001908051906020019061037e929190610525565b5060208201518160010160006101000a81548173ffffffffffffffffffffffffffffffffffffffff021916908373ffffffffffffffffffffffffffffffffffffffff16021790555050505050565b60606000808373ffffffffffffffffffffffffffffffffffffffff1673ffffffffffffffffffffffffffffffffffffffff168152602001908152602001600020600001805461041a9061085e565b80601f01602080910402602001604051908101604052809291908181526020018280546104469061085e565b80156104935780601f1061046857610100808354040283529160200191610493565b820191906000526020600020905b81548152906001019060200180831161047657829003601f168201915b50505050509050919050565b8280546104ab9061085e565b90600052602060002090601f0160209004810192826104cd5760008555610514565b82601f106104e657803560ff1916838001178555610514565b82800160010185558215610514579182015b828111156105135782358255916020019190600101906104f8565b5b50905061052191906105ab565b5090565b8280546105319061085e565b90600052602060002090601f016020900481019282610553576000855561059a565b82601f1061056c57805160ff191683800117855561059a565b8280016001018555821561059a579182015b8281111561059957825182559160200191906001019061057e565b5b5090506105a791906105ab565b5090565b5b808211156105c45760008160009055506001016105ac565b5090565b600080fd5b600080fd5b600073ffffffffffffffffffffffffffffffffffffffff82169050919050565b60006105fd826105d2565b9050919050565b61060d816105f2565b811461061857600080fd5b50565b60008135905061062a81610604565b92915050565b600060208284031215610646576106456105c8565b5b60006106548482850161061b565b91505092915050565b60008115159050919050565b6106728161065d565b82525050565b600060208201905061068d6000830184610669565b92915050565b600080fd5b600080fd5b600080fd5b60008083601f8401126106b8576106b7610693565b5b8235905067ffffffffffffffff8111156106d5576106d4610698565b5b6020830191508360018202830111156106f1576106f061069d565b5b9250929050565b6000806020838503121561070f5761070e6105c8565b5b600083013567ffffffffffffffff81111561072d5761072c6105cd565b5b610739858286016106a2565b92509250509250929050565b600081519050919050565b600082825260208201905092915050565b60005b8381101561077f578082015181840152602081019050610764565b8381111561078e576000848401525b50505050565b6000601f19601f8301169050919050565b60006107b082610745565b6107ba8185610750565b93506107ca818560208601610761565b6107d381610794565b840191505092915050565b600060208201905081810360008301526107f881846107a5565b905092915050565b7f4e487b7100000000000000000000000000000000000000000000000000000000600052603260045260246000fd5b7f4e487b7100000000000000000000000000000000000000000000000000000000600052602260045260246000fd5b6000600282049050600182168061087657607f821691505b6020821081141561088a5761088961082f565b5b50919050565b7f5573657220616c726564792068617320616e206163636f756e74210000000000600082015250565b60006108c6601b83610750565b91506108d182610890565b602082019050919050565b600060208201905081810360008301526108f5816108b9565b9050919050565b7f55736572206e616d652073686f756c64206e6f7420626520656d707479210000600082015250565b6000610932601e83610750565b915061093d826108fc565b602082019050919050565b6000602082019050818103600083015261096181610925565b905091905056fea2646970667358221220936f978ea4ace37eedf1ae873a6cb5e827fa999c21b7cfb219a52ce3da69c8c764736f6c63430008090033",
  "linkReferences": {},
  "deployedLinkReferences": {}
}