{
  "_format": "hh-sol-artifact-1",
  "contractName": "Inscrible",
  "sourceName": "contracts/Inscrible.sol",
  "abi": [
    {
      "inputs": [
        {
          "internalType": "string",
          "name": "_imgHash",
          "type": "string"
        },
        {
          "internalType": "string",
          "name": "desc",
          "type": "string"
        },
        {
          "internalType": "string",
          "name": "imgText",
          "type": "string"
        }
      ],
      "name": "addPostImage",
      "outputs": [],
      "stateMutability": "nonpayable",
      "type": "function"
    },
    {
      "inputs": [
        {
          "internalType": "address",
          "name": "key",
          "type": "address"
        }
      ],
      "name": "checkUser",
      "outputs": [
        {
          "internalType": "bool",
          "name": "",
          "type": "bool"
        }
      ],
      "stateMutability": "view",
      "type": "function"
    },
    {
      "inputs": [
        {
          "internalType": "string",
          "name": "_username",
          "type": "string"
        }
      ],
      "name": "createAccount",
      "outputs": [],
      "stateMutability": "nonpayable",
      "type": "function"
    },
    {
      "inputs": [],
      "name": "getAllPosts",
      "outputs": [
        {
          "components": [
            {
              "internalType": "string",
              "name": "createrName",
              "type": "string"
            },
            {
              "internalType": "address payable",
              "name": "userAddress",
              "type": "address"
            },
            {
              "internalType": "string",
              "name": "imageHash",
              "type": "string"
            },
            {
              "internalType": "string",
              "name": "caption",
              "type": "string"
            },
            {
              "internalType": "string",
              "name": "imageText",
              "type": "string"
            },
            {
              "internalType": "uint256",
              "name": "tipAmount",
              "type": "uint256"
            },
            {
              "internalType": "uint256",
              "name": "id",
              "type": "uint256"
            },
            {
              "internalType": "uint256",
              "name": "likeCount",
              "type": "uint256"
            },
            {
              "internalType": "string[]",
              "name": "likedByUser",
              "type": "string[]"
            }
          ],
          "internalType": "struct Inscrible.Post[]",
          "name": "",
          "type": "tuple[]"
        }
      ],
      "stateMutability": "view",
      "type": "function"
    },
    {
      "inputs": [
        {
          "internalType": "address",
          "name": "key",
          "type": "address"
        }
      ],
      "name": "getSingleUserLatestPost",
      "outputs": [
        {
          "components": [
            {
              "internalType": "string",
              "name": "createrName",
              "type": "string"
            },
            {
              "internalType": "address payable",
              "name": "userAddress",
              "type": "address"
            },
            {
              "internalType": "string",
              "name": "imageHash",
              "type": "string"
            },
            {
              "internalType": "string",
              "name": "caption",
              "type": "string"
            },
            {
              "internalType": "string",
              "name": "imageText",
              "type": "string"
            },
            {
              "internalType": "uint256",
              "name": "tipAmount",
              "type": "uint256"
            },
            {
              "internalType": "uint256",
              "name": "id",
              "type": "uint256"
            },
            {
              "internalType": "uint256",
              "name": "likeCount",
              "type": "uint256"
            },
            {
              "internalType": "string[]",
              "name": "likedByUser",
              "type": "string[]"
            }
          ],
          "internalType": "struct Inscrible.Post",
          "name": "",
          "type": "tuple"
        }
      ],
      "stateMutability": "view",
      "type": "function"
    },
    {
      "inputs": [
        {
          "internalType": "address",
          "name": "key",
          "type": "address"
        }
      ],
      "name": "getSingleUserPost",
      "outputs": [
        {
          "components": [
            {
              "internalType": "string",
              "name": "createrName",
              "type": "string"
            },
            {
              "internalType": "address payable",
              "name": "userAddress",
              "type": "address"
            },
            {
              "internalType": "string",
              "name": "imageHash",
              "type": "string"
            },
            {
              "internalType": "string",
              "name": "caption",
              "type": "string"
            },
            {
              "internalType": "string",
              "name": "imageText",
              "type": "string"
            },
            {
              "internalType": "uint256",
              "name": "tipAmount",
              "type": "uint256"
            },
            {
              "internalType": "uint256",
              "name": "id",
              "type": "uint256"
            },
            {
              "internalType": "uint256",
              "name": "likeCount",
              "type": "uint256"
            },
            {
              "internalType": "string[]",
              "name": "likedByUser",
              "type": "string[]"
            }
          ],
          "internalType": "struct Inscrible.Post[]",
          "name": "",
          "type": "tuple[]"
        }
      ],
      "stateMutability": "view",
      "type": "function"
    },
    {
      "inputs": [
        {
          "internalType": "address",
          "name": "key",
          "type": "address"
        }
      ],
      "name": "getUsername",
      "outputs": [
        {
          "internalType": "string",
          "name": "",
          "type": "string"
        }
      ],
      "stateMutability": "view",
      "type": "function"
    },
    {
      "stateMutability": "payable",
      "type": "receive"
    }
  ],
  "bytecode": "0x60806040526000805534801561001457600080fd5b506123ec806100246000396000f3fe6080604052600436106100745760003560e01c806359737a541161004e57806359737a5414610111578063734ee8e51461013a578063ce43c03214610177578063f1114398146101b45761007b565b80631e9d48cf14610080578063298daf5b146100bd57806330561100146100e65761007b565b3661007b57005b600080fd5b34801561008c57600080fd5b506100a760048036038101906100a29190611981565b6101f1565b6040516100b491906119c9565b60405180910390f35b3480156100c957600080fd5b506100e460048036038101906100df9190611a49565b610263565b005b3480156100f257600080fd5b506100fb61044e565b6040516101089190611dce565b60405180910390f35b34801561011d57600080fd5b5061013860048036038101906101339190611f20565b610843565b005b34801561014657600080fd5b50610161600480360381019061015c9190611981565b610cb3565b60405161016e91906120a8565b60405180910390f35b34801561018357600080fd5b5061019e60048036038101906101999190611981565b611110565b6040516101ab9190612114565b60405180910390f35b3480156101c057600080fd5b506101db60048036038101906101d69190611981565b6111e4565b6040516101e89190611dce565b60405180910390f35b6000806002805490501115610259576000600160008473ffffffffffffffffffffffffffffffffffffffff1673ffffffffffffffffffffffffffffffffffffffff168152602001908152602001600020600001805461024f90612165565b905011905061025e565b600090505b919050565b60001515610270336101f1565b1515146102b2576040517f08c379a00000000000000000000000000000000000000000000000000000000081526004016102a9906121e3565b60405180910390fd5b600082829050116102f8576040517f08c379a00000000000000000000000000000000000000000000000000000000081526004016102ef9061224f565b60405180910390fd5b8181600160003373ffffffffffffffffffffffffffffffffffffffff1673ffffffffffffffffffffffffffffffffffffffff16815260200190815260200160002060000191906103499291906116c0565b506002604051806040016040528084848080601f016020809104026020016040519081016040528093929190818152602001838380828437600081840152601f19601f8201169050808301925050505050505081526020013373ffffffffffffffffffffffffffffffffffffffff1681525090806001815401808255809150506001900390600052602060002090600202016000909190919091506000820151816000019080519060200190610400929190611746565b5060208201518160010160006101000a81548173ffffffffffffffffffffffffffffffffffffffff021916908373ffffffffffffffffffffffffffffffffffffffff16021790555050505050565b60606004805480602002602001604051908101604052809291908181526020016000905b8282101561083a5783829060005260206000209060090201604051806101200160405290816000820180546104a690612165565b80601f01602080910402602001604051908101604052809291908181526020018280546104d290612165565b801561051f5780601f106104f45761010080835404028352916020019161051f565b820191906000526020600020905b81548152906001019060200180831161050257829003601f168201915b505050505081526020016001820160009054906101000a900473ffffffffffffffffffffffffffffffffffffffff1673ffffffffffffffffffffffffffffffffffffffff1673ffffffffffffffffffffffffffffffffffffffff16815260200160028201805461058e90612165565b80601f01602080910402602001604051908101604052809291908181526020018280546105ba90612165565b80156106075780601f106105dc57610100808354040283529160200191610607565b820191906000526020600020905b8154815290600101906020018083116105ea57829003601f168201915b5050505050815260200160038201805461062090612165565b80601f016020809104026020016040519081016040528092919081815260200182805461064c90612165565b80156106995780601f1061066e57610100808354040283529160200191610699565b820191906000526020600020905b81548152906001019060200180831161067c57829003601f168201915b505050505081526020016004820180546106b290612165565b80601f01602080910402602001604051908101604052809291908181526020018280546106de90612165565b801561072b5780601f106107005761010080835404028352916020019161072b565b820191906000526020600020905b81548152906001019060200180831161070e57829003601f168201915b5050505050815260200160058201548152602001600682015481526020016007820154815260200160088201805480602002602001604051908101604052809291908181526020016000905b8282101561082357838290600052602060002001805461079690612165565b80601f01602080910402602001604051908101604052809291908181526020018280546107c290612165565b801561080f5780601f106107e45761010080835404028352916020019161080f565b820191906000526020600020905b8154815290600101906020018083116107f257829003601f168201915b505050505081526020019060010190610777565b505050508152505081526020019060010190610472565b50505050905090565b61084c336101f1565b61088b576040517f08c379a0000000000000000000000000000000000000000000000000000000008152600401610882906122bb565b60405180910390fd5b600083511161089957600080fd5b6000808154809291906108ab9061230a565b91905055506000604051806101200160405280600160003373ffffffffffffffffffffffffffffffffffffffff1673ffffffffffffffffffffffffffffffffffffffff168152602001908152602001600020600001805461090b90612165565b80601f016020809104026020016040519081016040528092919081815260200182805461093790612165565b80156109845780601f1061095957610100808354040283529160200191610984565b820191906000526020600020905b81548152906001019060200180831161096757829003601f168201915b505050505081526020013373ffffffffffffffffffffffffffffffffffffffff16815260200185815260200184815260200183815260200160008152602001600054815260200160008152602001600067ffffffffffffffff8111156109ed576109ec611df5565b5b604051908082528060200260200182016040528015610a2057816020015b6060815260200190600190039081610a0b5790505b508152509050600360003373ffffffffffffffffffffffffffffffffffffffff1673ffffffffffffffffffffffffffffffffffffffff1681526020019081526020016000208190806001815401808255809150506001900390600052602060002090600902016000909190919091506000820151816000019080519060200190610aab929190611746565b5060208201518160010160006101000a81548173ffffffffffffffffffffffffffffffffffffffff021916908373ffffffffffffffffffffffffffffffffffffffff1602179055506040820151816002019080519060200190610b0f929190611746565b506060820151816003019080519060200190610b2c929190611746565b506080820151816004019080519060200190610b49929190611746565b5060a0820151816005015560c0820151816006015560e08201518160070155610100820151816008019080519060200190610b859291906117cc565b50505060048190806001815401808255809150506001900390600052602060002090600902016000909190919091506000820151816000019080519060200190610bd0929190611746565b5060208201518160010160006101000a81548173ffffffffffffffffffffffffffffffffffffffff021916908373ffffffffffffffffffffffffffffffffffffffff1602179055506040820151816002019080519060200190610c34929190611746565b506060820151816003019080519060200190610c51929190611746565b506080820151816004019080519060200190610c6e929190611746565b5060a0820151816005015560c0820151816006015560e08201518160070155610100820151816008019080519060200190610caa9291906117cc565b50505050505050565b610cbb61182c565b600360008373ffffffffffffffffffffffffffffffffffffffff1673ffffffffffffffffffffffffffffffffffffffff1681526020019081526020016000206001600360008573ffffffffffffffffffffffffffffffffffffffff1673ffffffffffffffffffffffffffffffffffffffff16815260200190815260200160002080549050610d499190612353565b81548110610d5a57610d59612387565b5b906000526020600020906009020160405180610120016040529081600082018054610d8490612165565b80601f0160208091040260200160405190810160405280929190818152602001828054610db090612165565b8015610dfd5780601f10610dd257610100808354040283529160200191610dfd565b820191906000526020600020905b815481529060010190602001808311610de057829003601f168201915b505050505081526020016001820160009054906101000a900473ffffffffffffffffffffffffffffffffffffffff1673ffffffffffffffffffffffffffffffffffffffff1673ffffffffffffffffffffffffffffffffffffffff168152602001600282018054610e6c90612165565b80601f0160208091040260200160405190810160405280929190818152602001828054610e9890612165565b8015610ee55780601f10610eba57610100808354040283529160200191610ee5565b820191906000526020600020905b815481529060010190602001808311610ec857829003601f168201915b50505050508152602001600382018054610efe90612165565b80601f0160208091040260200160405190810160405280929190818152602001828054610f2a90612165565b8015610f775780601f10610f4c57610100808354040283529160200191610f77565b820191906000526020600020905b815481529060010190602001808311610f5a57829003601f168201915b50505050508152602001600482018054610f9090612165565b80601f0160208091040260200160405190810160405280929190818152602001828054610fbc90612165565b80156110095780601f10610fde57610100808354040283529160200191611009565b820191906000526020600020905b815481529060010190602001808311610fec57829003601f168201915b5050505050815260200160058201548152602001600682015481526020016007820154815260200160088201805480602002602001604051908101604052809291908181526020016000905b8282101561110157838290600052602060002001805461107490612165565b80601f01602080910402602001604051908101604052809291908181526020018280546110a090612165565b80156110ed5780601f106110c2576101008083540402835291602001916110ed565b820191906000526020600020905b8154815290600101906020018083116110d057829003601f168201915b505050505081526020019060010190611055565b50505050815250509050919050565b6060600160008373ffffffffffffffffffffffffffffffffffffffff1673ffffffffffffffffffffffffffffffffffffffff168152602001908152602001600020600001805461115f90612165565b80601f016020809104026020016040519081016040528092919081815260200182805461118b90612165565b80156111d85780601f106111ad576101008083540402835291602001916111d8565b820191906000526020600020905b8154815290600101906020018083116111bb57829003601f168201915b50505050509050919050565b60606000600360008473ffffffffffffffffffffffffffffffffffffffff1673ffffffffffffffffffffffffffffffffffffffff16815260200190815260200160002080549050111561166357600360008373ffffffffffffffffffffffffffffffffffffffff1673ffffffffffffffffffffffffffffffffffffffff168152602001908152602001600020805480602002602001604051908101604052809291908181526020016000905b828210156116585783829060005260206000209060090201604051806101200160405290816000820180546112c490612165565b80601f01602080910402602001604051908101604052809291908181526020018280546112f090612165565b801561133d5780601f106113125761010080835404028352916020019161133d565b820191906000526020600020905b81548152906001019060200180831161132057829003601f168201915b505050505081526020016001820160009054906101000a900473ffffffffffffffffffffffffffffffffffffffff1673ffffffffffffffffffffffffffffffffffffffff1673ffffffffffffffffffffffffffffffffffffffff1681526020016002820180546113ac90612165565b80601f01602080910402602001604051908101604052809291908181526020018280546113d890612165565b80156114255780601f106113fa57610100808354040283529160200191611425565b820191906000526020600020905b81548152906001019060200180831161140857829003601f168201915b5050505050815260200160038201805461143e90612165565b80601f016020809104026020016040519081016040528092919081815260200182805461146a90612165565b80156114b75780601f1061148c576101008083540402835291602001916114b7565b820191906000526020600020905b81548152906001019060200180831161149a57829003601f168201915b505050505081526020016004820180546114d090612165565b80601f01602080910402602001604051908101604052809291908181526020018280546114fc90612165565b80156115495780601f1061151e57610100808354040283529160200191611549565b820191906000526020600020905b81548152906001019060200180831161152c57829003601f168201915b5050505050815260200160058201548152602001600682015481526020016007820154815260200160088201805480602002602001604051908101604052809291908181526020016000905b828210156116415783829060005260206000200180546115b490612165565b80601f01602080910402602001604051908101604052809291908181526020018280546115e090612165565b801561162d5780601f106116025761010080835404028352916020019161162d565b820191906000526020600020905b81548152906001019060200180831161161057829003601f168201915b505050505081526020019060010190611595565b505050508152505081526020019060010190611290565b5050505090506116bb565b600067ffffffffffffffff81111561167e5761167d611df5565b5b6040519080825280602002602001820160405280156116b757816020015b6116a461182c565b81526020019060019003908161169c5790505b5090505b919050565b8280546116cc90612165565b90600052602060002090601f0160209004810192826116ee5760008555611735565b82601f1061170757803560ff1916838001178555611735565b82800160010185558215611735579182015b82811115611734578235825591602001919060010190611719565b5b509050611742919061188e565b5090565b82805461175290612165565b90600052602060002090601f01602090048101928261177457600085556117bb565b82601f1061178d57805160ff19168380011785556117bb565b828001600101855582156117bb579182015b828111156117ba57825182559160200191906001019061179f565b5b5090506117c8919061188e565b5090565b82805482825590600052602060002090810192821561181b579160200282015b8281111561181a57825182908051906020019061180a929190611746565b50916020019190600101906117ec565b5b50905061182891906118ab565b5090565b60405180610120016040528060608152602001600073ffffffffffffffffffffffffffffffffffffffff168152602001606081526020016060815260200160608152602001600081526020016000815260200160008152602001606081525090565b5b808211156118a757600081600090555060010161188f565b5090565b5b808211156118cb57600081816118c291906118cf565b506001016118ac565b5090565b5080546118db90612165565b6000825580601f106118ed575061190c565b601f01602090049060005260206000209081019061190b919061188e565b5b50565b6000604051905090565b600080fd5b600080fd5b600073ffffffffffffffffffffffffffffffffffffffff82169050919050565b600061194e82611923565b9050919050565b61195e81611943565b811461196957600080fd5b50565b60008135905061197b81611955565b92915050565b60006020828403121561199757611996611919565b5b60006119a58482850161196c565b91505092915050565b60008115159050919050565b6119c3816119ae565b82525050565b60006020820190506119de60008301846119ba565b92915050565b600080fd5b600080fd5b600080fd5b60008083601f840112611a0957611a086119e4565b5b8235905067ffffffffffffffff811115611a2657611a256119e9565b5b602083019150836001820283011115611a4257611a416119ee565b5b9250929050565b60008060208385031215611a6057611a5f611919565b5b600083013567ffffffffffffffff811115611a7e57611a7d61191e565b5b611a8a858286016119f3565b92509250509250929050565b600081519050919050565b600082825260208201905092915050565b6000819050602082019050919050565b600081519050919050565b600082825260208201905092915050565b60005b83811015611afc578082015181840152602081019050611ae1565b83811115611b0b576000848401525b50505050565b6000601f19601f8301169050919050565b6000611b2d82611ac2565b611b378185611acd565b9350611b47818560208601611ade565b611b5081611b11565b840191505092915050565b6000611b6682611923565b9050919050565b611b7681611b5b565b82525050565b6000819050919050565b611b8f81611b7c565b82525050565b600081519050919050565b600082825260208201905092915050565b6000819050602082019050919050565b6000611bcd8383611b22565b905092915050565b6000602082019050919050565b6000611bed82611b95565b611bf78185611ba0565b935083602082028501611c0985611bb1565b8060005b85811015611c455784840389528151611c268582611bc1565b9450611c3183611bd5565b925060208a01995050600181019050611c0d565b50829750879550505050505092915050565b6000610120830160008301518482036000860152611c758282611b22565b9150506020830151611c8a6020860182611b6d565b5060408301518482036040860152611ca28282611b22565b91505060608301518482036060860152611cbc8282611b22565b91505060808301518482036080860152611cd68282611b22565b91505060a0830151611ceb60a0860182611b86565b5060c0830151611cfe60c0860182611b86565b5060e0830151611d1160e0860182611b86565b50610100830151848203610100860152611d2b8282611be2565b9150508091505092915050565b6000611d448383611c57565b905092915050565b6000602082019050919050565b6000611d6482611a96565b611d6e8185611aa1565b935083602082028501611d8085611ab2565b8060005b85811015611dbc5784840389528151611d9d8582611d38565b9450611da883611d4c565b925060208a01995050600181019050611d84565b50829750879550505050505092915050565b60006020820190508181036000830152611de88184611d59565b905092915050565b600080fd5b7f4e487b7100000000000000000000000000000000000000000000000000000000600052604160045260246000fd5b611e2d82611b11565b810181811067ffffffffffffffff82111715611e4c57611e4b611df5565b5b80604052505050565b6000611e5f61190f565b9050611e6b8282611e24565b919050565b600067ffffffffffffffff821115611e8b57611e8a611df5565b5b611e9482611b11565b9050602081019050919050565b82818337600083830152505050565b6000611ec3611ebe84611e70565b611e55565b905082815260208101848484011115611edf57611ede611df0565b5b611eea848285611ea1565b509392505050565b600082601f830112611f0757611f066119e4565b5b8135611f17848260208601611eb0565b91505092915050565b600080600060608486031215611f3957611f38611919565b5b600084013567ffffffffffffffff811115611f5757611f5661191e565b5b611f6386828701611ef2565b935050602084013567ffffffffffffffff811115611f8457611f8361191e565b5b611f9086828701611ef2565b925050604084013567ffffffffffffffff811115611fb157611fb061191e565b5b611fbd86828701611ef2565b9150509250925092565b6000610120830160008301518482036000860152611fe58282611b22565b9150506020830151611ffa6020860182611b6d565b50604083015184820360408601526120128282611b22565b9150506060830151848203606086015261202c8282611b22565b915050608083015184820360808601526120468282611b22565b91505060a083015161205b60a0860182611b86565b5060c083015161206e60c0860182611b86565b5060e083015161208160e0860182611b86565b5061010083015184820361010086015261209b8282611be2565b9150508091505092915050565b600060208201905081810360008301526120c28184611fc7565b905092915050565b600082825260208201905092915050565b60006120e682611ac2565b6120f081856120ca565b9350612100818560208601611ade565b61210981611b11565b840191505092915050565b6000602082019050818103600083015261212e81846120db565b905092915050565b7f4e487b7100000000000000000000000000000000000000000000000000000000600052602260045260246000fd5b6000600282049050600182168061217d57607f821691505b6020821081141561219157612190612136565b5b50919050565b7f5573657220616c726564792068617320616e206163636f756e74210000000000600082015250565b60006121cd601b836120ca565b91506121d882612197565b602082019050919050565b600060208201905081810360008301526121fc816121c0565b9050919050565b7f55736572206e616d652073686f756c64206e6f7420626520656d707479210000600082015250565b6000612239601e836120ca565b915061224482612203565b602082019050919050565b600060208201905081810360008301526122688161222c565b9050919050565b7f55736572206e6f74207265676973746572656421000000000000000000000000600082015250565b60006122a56014836120ca565b91506122b08261226f565b602082019050919050565b600060208201905081810360008301526122d481612298565b9050919050565b7f4e487b7100000000000000000000000000000000000000000000000000000000600052601160045260246000fd5b600061231582611b7c565b91507fffffffffffffffffffffffffffffffffffffffffffffffffffffffffffffffff821415612348576123476122db565b5b600182019050919050565b600061235e82611b7c565b915061236983611b7c565b92508282101561237c5761237b6122db565b5b828203905092915050565b7f4e487b7100000000000000000000000000000000000000000000000000000000600052603260045260246000fdfea26469706673582212205f7b8ad8e265cc26b9dd3bc2fdcd974be6490c1bb07a0bcbfcf40e549de2242964736f6c63430008090033",
  "linkReferences": {},
  "deployedLinkReferences": {}
}