{
  "_format": "hh-sol-artifact-1",
  "contractName": "Inscrible",
  "sourceName": "contracts/Inscrible.sol",
  "abi": [
    {
      "inputs": [
        {
          "internalType": "string",
          "name": "_imgHash",
          "type": "string"
        },
        {
          "internalType": "string",
          "name": "desc",
          "type": "string"
        },
        {
          "internalType": "string",
          "name": "imgText",
          "type": "string"
        }
      ],
      "name": "addPostImage",
      "outputs": [],
      "stateMutability": "nonpayable",
      "type": "function"
    },
    {
      "inputs": [
        {
          "internalType": "address",
          "name": "key",
          "type": "address"
        }
      ],
      "name": "checkUser",
      "outputs": [
        {
          "internalType": "bool",
          "name": "",
          "type": "bool"
        }
      ],
      "stateMutability": "view",
      "type": "function"
    },
    {
      "inputs": [
        {
          "internalType": "string",
          "name": "_username",
          "type": "string"
        }
      ],
      "name": "createAccount",
      "outputs": [],
      "stateMutability": "nonpayable",
      "type": "function"
    },
    {
      "inputs": [],
      "name": "getAllPosts",
      "outputs": [
        {
          "components": [
            {
              "internalType": "string",
              "name": "createrName",
              "type": "string"
            },
            {
              "internalType": "address payable",
              "name": "userAddress",
              "type": "address"
            },
            {
              "internalType": "string",
              "name": "imageHash",
              "type": "string"
            },
            {
              "internalType": "string",
              "name": "caption",
              "type": "string"
            },
            {
              "internalType": "string",
              "name": "imageText",
              "type": "string"
            },
            {
              "internalType": "uint256",
              "name": "tipAmount",
              "type": "uint256"
            },
            {
              "internalType": "uint256",
              "name": "id",
              "type": "uint256"
            },
            {
              "internalType": "uint256",
              "name": "likeCount",
              "type": "uint256"
            },
            {
              "internalType": "string[]",
              "name": "likedByUser",
              "type": "string[]"
            }
          ],
          "internalType": "struct Inscrible.Post[]",
          "name": "",
          "type": "tuple[]"
        }
      ],
      "stateMutability": "view",
      "type": "function"
    },
    {
      "inputs": [
        {
          "internalType": "address",
          "name": "key",
          "type": "address"
        }
      ],
      "name": "getSingleUserLatestPost",
      "outputs": [
        {
          "components": [
            {
              "internalType": "string",
              "name": "createrName",
              "type": "string"
            },
            {
              "internalType": "address payable",
              "name": "userAddress",
              "type": "address"
            },
            {
              "internalType": "string",
              "name": "imageHash",
              "type": "string"
            },
            {
              "internalType": "string",
              "name": "caption",
              "type": "string"
            },
            {
              "internalType": "string",
              "name": "imageText",
              "type": "string"
            },
            {
              "internalType": "uint256",
              "name": "tipAmount",
              "type": "uint256"
            },
            {
              "internalType": "uint256",
              "name": "id",
              "type": "uint256"
            },
            {
              "internalType": "uint256",
              "name": "likeCount",
              "type": "uint256"
            },
            {
              "internalType": "string[]",
              "name": "likedByUser",
              "type": "string[]"
            }
          ],
          "internalType": "struct Inscrible.Post",
          "name": "",
          "type": "tuple"
        }
      ],
      "stateMutability": "view",
      "type": "function"
    },
    {
      "inputs": [
        {
          "internalType": "address",
          "name": "key",
          "type": "address"
        }
      ],
      "name": "getSingleUserPost",
      "outputs": [
        {
          "components": [
            {
              "internalType": "string",
              "name": "createrName",
              "type": "string"
            },
            {
              "internalType": "address payable",
              "name": "userAddress",
              "type": "address"
            },
            {
              "internalType": "string",
              "name": "imageHash",
              "type": "string"
            },
            {
              "internalType": "string",
              "name": "caption",
              "type": "string"
            },
            {
              "internalType": "string",
              "name": "imageText",
              "type": "string"
            },
            {
              "internalType": "uint256",
              "name": "tipAmount",
              "type": "uint256"
            },
            {
              "internalType": "uint256",
              "name": "id",
              "type": "uint256"
            },
            {
              "internalType": "uint256",
              "name": "likeCount",
              "type": "uint256"
            },
            {
              "internalType": "string[]",
              "name": "likedByUser",
              "type": "string[]"
            }
          ],
          "internalType": "struct Inscrible.Post[]",
          "name": "",
          "type": "tuple[]"
        }
      ],
      "stateMutability": "view",
      "type": "function"
    },
    {
      "inputs": [
        {
          "internalType": "address",
          "name": "key",
          "type": "address"
        }
      ],
      "name": "getUsername",
      "outputs": [
        {
          "internalType": "string",
          "name": "",
          "type": "string"
        }
      ],
      "stateMutability": "view",
      "type": "function"
    },
    {
      "stateMutability": "payable",
      "type": "receive"
    }
  ],
  "bytecode": "0x60806040526000805534801561001457600080fd5b50612344806100246000396000f3fe6080604052600436106100745760003560e01c806359737a541161004e57806359737a5414610111578063734ee8e51461013a578063ce43c03214610177578063f1114398146101b45761007b565b80631e9d48cf14610080578063298daf5b146100bd57806330561100146100e65761007b565b3661007b57005b600080fd5b34801561008c57600080fd5b506100a760048036038101906100a291906118d9565b6101f1565b6040516100b49190611921565b60405180910390f35b3480156100c957600080fd5b506100e460048036038101906100df91906119a1565b610263565b005b3480156100f257600080fd5b506100fb61044e565b6040516101089190611d26565b60405180910390f35b34801561011d57600080fd5b5061013860048036038101906101339190611e78565b610843565b005b34801561014657600080fd5b50610161600480360381019061015c91906118d9565b610cb3565b60405161016e9190612000565b60405180910390f35b34801561018357600080fd5b5061019e600480360381019061019991906118d9565b611110565b6040516101ab919061206c565b60405180910390f35b3480156101c057600080fd5b506101db60048036038101906101d691906118d9565b6111e4565b6040516101e89190611d26565b60405180910390f35b6000806002805490501115610259576000600160008473ffffffffffffffffffffffffffffffffffffffff1673ffffffffffffffffffffffffffffffffffffffff168152602001908152602001600020600001805461024f906120bd565b905011905061025e565b600090505b919050565b60001515610270336101f1565b1515146102b2576040517f08c379a00000000000000000000000000000000000000000000000000000000081526004016102a99061213b565b60405180910390fd5b600082829050116102f8576040517f08c379a00000000000000000000000000000000000000000000000000000000081526004016102ef906121a7565b60405180910390fd5b8181600160003373ffffffffffffffffffffffffffffffffffffffff1673ffffffffffffffffffffffffffffffffffffffff1681526020019081526020016000206000019190610349929190611618565b506002604051806040016040528084848080601f016020809104026020016040519081016040528093929190818152602001838380828437600081840152601f19601f8201169050808301925050505050505081526020013373ffffffffffffffffffffffffffffffffffffffff168152509080600181540180825580915050600190039060005260206000209060020201600090919091909150600082015181600001908051906020019061040092919061169e565b5060208201518160010160006101000a81548173ffffffffffffffffffffffffffffffffffffffff021916908373ffffffffffffffffffffffffffffffffffffffff16021790555050505050565b60606004805480602002602001604051908101604052809291908181526020016000905b8282101561083a5783829060005260206000209060090201604051806101200160405290816000820180546104a6906120bd565b80601f01602080910402602001604051908101604052809291908181526020018280546104d2906120bd565b801561051f5780601f106104f45761010080835404028352916020019161051f565b820191906000526020600020905b81548152906001019060200180831161050257829003601f168201915b505050505081526020016001820160009054906101000a900473ffffffffffffffffffffffffffffffffffffffff1673ffffffffffffffffffffffffffffffffffffffff1673ffffffffffffffffffffffffffffffffffffffff16815260200160028201805461058e906120bd565b80601f01602080910402602001604051908101604052809291908181526020018280546105ba906120bd565b80156106075780601f106105dc57610100808354040283529160200191610607565b820191906000526020600020905b8154815290600101906020018083116105ea57829003601f168201915b50505050508152602001600382018054610620906120bd565b80601f016020809104026020016040519081016040528092919081815260200182805461064c906120bd565b80156106995780601f1061066e57610100808354040283529160200191610699565b820191906000526020600020905b81548152906001019060200180831161067c57829003601f168201915b505050505081526020016004820180546106b2906120bd565b80601f01602080910402602001604051908101604052809291908181526020018280546106de906120bd565b801561072b5780601f106107005761010080835404028352916020019161072b565b820191906000526020600020905b81548152906001019060200180831161070e57829003601f168201915b5050505050815260200160058201548152602001600682015481526020016007820154815260200160088201805480602002602001604051908101604052809291908181526020016000905b82821015610823578382906000526020600020018054610796906120bd565b80601f01602080910402602001604051908101604052809291908181526020018280546107c2906120bd565b801561080f5780601f106107e45761010080835404028352916020019161080f565b820191906000526020600020905b8154815290600101906020018083116107f257829003601f168201915b505050505081526020019060010190610777565b505050508152505081526020019060010190610472565b50505050905090565b61084c336101f1565b61088b576040517f08c379a000000000000000000000000000000000000000000000000000000000815260040161088290612213565b60405180910390fd5b600083511161089957600080fd5b6000808154809291906108ab90612262565b91905055506000604051806101200160405280600160003373ffffffffffffffffffffffffffffffffffffffff1673ffffffffffffffffffffffffffffffffffffffff168152602001908152602001600020600001805461090b906120bd565b80601f0160208091040260200160405190810160405280929190818152602001828054610937906120bd565b80156109845780601f1061095957610100808354040283529160200191610984565b820191906000526020600020905b81548152906001019060200180831161096757829003601f168201915b505050505081526020013373ffffffffffffffffffffffffffffffffffffffff16815260200185815260200184815260200183815260200160008152602001600054815260200160008152602001600067ffffffffffffffff8111156109ed576109ec611d4d565b5b604051908082528060200260200182016040528015610a2057816020015b6060815260200190600190039081610a0b5790505b508152509050600360003373ffffffffffffffffffffffffffffffffffffffff1673ffffffffffffffffffffffffffffffffffffffff1681526020019081526020016000208190806001815401808255809150506001900390600052602060002090600902016000909190919091506000820151816000019080519060200190610aab92919061169e565b5060208201518160010160006101000a81548173ffffffffffffffffffffffffffffffffffffffff021916908373ffffffffffffffffffffffffffffffffffffffff1602179055506040820151816002019080519060200190610b0f92919061169e565b506060820151816003019080519060200190610b2c92919061169e565b506080820151816004019080519060200190610b4992919061169e565b5060a0820151816005015560c0820151816006015560e08201518160070155610100820151816008019080519060200190610b85929190611724565b50505060048190806001815401808255809150506001900390600052602060002090600902016000909190919091506000820151816000019080519060200190610bd092919061169e565b5060208201518160010160006101000a81548173ffffffffffffffffffffffffffffffffffffffff021916908373ffffffffffffffffffffffffffffffffffffffff1602179055506040820151816002019080519060200190610c3492919061169e565b506060820151816003019080519060200190610c5192919061169e565b506080820151816004019080519060200190610c6e92919061169e565b5060a0820151816005015560c0820151816006015560e08201518160070155610100820151816008019080519060200190610caa929190611724565b50505050505050565b610cbb611784565b600360008373ffffffffffffffffffffffffffffffffffffffff1673ffffffffffffffffffffffffffffffffffffffff1681526020019081526020016000206001600360008573ffffffffffffffffffffffffffffffffffffffff1673ffffffffffffffffffffffffffffffffffffffff16815260200190815260200160002080549050610d4991906122ab565b81548110610d5a57610d596122df565b5b906000526020600020906009020160405180610120016040529081600082018054610d84906120bd565b80601f0160208091040260200160405190810160405280929190818152602001828054610db0906120bd565b8015610dfd5780601f10610dd257610100808354040283529160200191610dfd565b820191906000526020600020905b815481529060010190602001808311610de057829003601f168201915b505050505081526020016001820160009054906101000a900473ffffffffffffffffffffffffffffffffffffffff1673ffffffffffffffffffffffffffffffffffffffff1673ffffffffffffffffffffffffffffffffffffffff168152602001600282018054610e6c906120bd565b80601f0160208091040260200160405190810160405280929190818152602001828054610e98906120bd565b8015610ee55780601f10610eba57610100808354040283529160200191610ee5565b820191906000526020600020905b815481529060010190602001808311610ec857829003601f168201915b50505050508152602001600382018054610efe906120bd565b80601f0160208091040260200160405190810160405280929190818152602001828054610f2a906120bd565b8015610f775780601f10610f4c57610100808354040283529160200191610f77565b820191906000526020600020905b815481529060010190602001808311610f5a57829003601f168201915b50505050508152602001600482018054610f90906120bd565b80601f0160208091040260200160405190810160405280929190818152602001828054610fbc906120bd565b80156110095780601f10610fde57610100808354040283529160200191611009565b820191906000526020600020905b815481529060010190602001808311610fec57829003601f168201915b5050505050815260200160058201548152602001600682015481526020016007820154815260200160088201805480602002602001604051908101604052809291908181526020016000905b82821015611101578382906000526020600020018054611074906120bd565b80601f01602080910402602001604051908101604052809291908181526020018280546110a0906120bd565b80156110ed5780601f106110c2576101008083540402835291602001916110ed565b820191906000526020600020905b8154815290600101906020018083116110d057829003601f168201915b505050505081526020019060010190611055565b50505050815250509050919050565b6060600160008373ffffffffffffffffffffffffffffffffffffffff1673ffffffffffffffffffffffffffffffffffffffff168152602001908152602001600020600001805461115f906120bd565b80601f016020809104026020016040519081016040528092919081815260200182805461118b906120bd565b80156111d85780601f106111ad576101008083540402835291602001916111d8565b820191906000526020600020905b8154815290600101906020018083116111bb57829003601f168201915b50505050509050919050565b6060600360008373ffffffffffffffffffffffffffffffffffffffff1673ffffffffffffffffffffffffffffffffffffffff168152602001908152602001600020805480602002602001604051908101604052809291908181526020016000905b8282101561160d578382906000526020600020906009020160405180610120016040529081600082018054611279906120bd565b80601f01602080910402602001604051908101604052809291908181526020018280546112a5906120bd565b80156112f25780601f106112c7576101008083540402835291602001916112f2565b820191906000526020600020905b8154815290600101906020018083116112d557829003601f168201915b505050505081526020016001820160009054906101000a900473ffffffffffffffffffffffffffffffffffffffff1673ffffffffffffffffffffffffffffffffffffffff1673ffffffffffffffffffffffffffffffffffffffff168152602001600282018054611361906120bd565b80601f016020809104026020016040519081016040528092919081815260200182805461138d906120bd565b80156113da5780601f106113af576101008083540402835291602001916113da565b820191906000526020600020905b8154815290600101906020018083116113bd57829003601f168201915b505050505081526020016003820180546113f3906120bd565b80601f016020809104026020016040519081016040528092919081815260200182805461141f906120bd565b801561146c5780601f106114415761010080835404028352916020019161146c565b820191906000526020600020905b81548152906001019060200180831161144f57829003601f168201915b50505050508152602001600482018054611485906120bd565b80601f01602080910402602001604051908101604052809291908181526020018280546114b1906120bd565b80156114fe5780601f106114d3576101008083540402835291602001916114fe565b820191906000526020600020905b8154815290600101906020018083116114e157829003601f168201915b5050505050815260200160058201548152602001600682015481526020016007820154815260200160088201805480602002602001604051908101604052809291908181526020016000905b828210156115f6578382906000526020600020018054611569906120bd565b80601f0160208091040260200160405190810160405280929190818152602001828054611595906120bd565b80156115e25780601f106115b7576101008083540402835291602001916115e2565b820191906000526020600020905b8154815290600101906020018083116115c557829003601f168201915b50505050508152602001906001019061154a565b505050508152505081526020019060010190611245565b505050509050919050565b828054611624906120bd565b90600052602060002090601f016020900481019282611646576000855561168d565b82601f1061165f57803560ff191683800117855561168d565b8280016001018555821561168d579182015b8281111561168c578235825591602001919060010190611671565b5b50905061169a91906117e6565b5090565b8280546116aa906120bd565b90600052602060002090601f0160209004810192826116cc5760008555611713565b82601f106116e557805160ff1916838001178555611713565b82800160010185558215611713579182015b828111156117125782518255916020019190600101906116f7565b5b50905061172091906117e6565b5090565b828054828255906000526020600020908101928215611773579160200282015b8281111561177257825182908051906020019061176292919061169e565b5091602001919060010190611744565b5b5090506117809190611803565b5090565b60405180610120016040528060608152602001600073ffffffffffffffffffffffffffffffffffffffff168152602001606081526020016060815260200160608152602001600081526020016000815260200160008152602001606081525090565b5b808211156117ff5760008160009055506001016117e7565b5090565b5b80821115611823576000818161181a9190611827565b50600101611804565b5090565b508054611833906120bd565b6000825580601f106118455750611864565b601f01602090049060005260206000209081019061186391906117e6565b5b50565b6000604051905090565b600080fd5b600080fd5b600073ffffffffffffffffffffffffffffffffffffffff82169050919050565b60006118a68261187b565b9050919050565b6118b68161189b565b81146118c157600080fd5b50565b6000813590506118d3816118ad565b92915050565b6000602082840312156118ef576118ee611871565b5b60006118fd848285016118c4565b91505092915050565b60008115159050919050565b61191b81611906565b82525050565b60006020820190506119366000830184611912565b92915050565b600080fd5b600080fd5b600080fd5b60008083601f8401126119615761196061193c565b5b8235905067ffffffffffffffff81111561197e5761197d611941565b5b60208301915083600182028301111561199a57611999611946565b5b9250929050565b600080602083850312156119b8576119b7611871565b5b600083013567ffffffffffffffff8111156119d6576119d5611876565b5b6119e28582860161194b565b92509250509250929050565b600081519050919050565b600082825260208201905092915050565b6000819050602082019050919050565b600081519050919050565b600082825260208201905092915050565b60005b83811015611a54578082015181840152602081019050611a39565b83811115611a63576000848401525b50505050565b6000601f19601f8301169050919050565b6000611a8582611a1a565b611a8f8185611a25565b9350611a9f818560208601611a36565b611aa881611a69565b840191505092915050565b6000611abe8261187b565b9050919050565b611ace81611ab3565b82525050565b6000819050919050565b611ae781611ad4565b82525050565b600081519050919050565b600082825260208201905092915050565b6000819050602082019050919050565b6000611b258383611a7a565b905092915050565b6000602082019050919050565b6000611b4582611aed565b611b4f8185611af8565b935083602082028501611b6185611b09565b8060005b85811015611b9d5784840389528151611b7e8582611b19565b9450611b8983611b2d565b925060208a01995050600181019050611b65565b50829750879550505050505092915050565b6000610120830160008301518482036000860152611bcd8282611a7a565b9150506020830151611be26020860182611ac5565b5060408301518482036040860152611bfa8282611a7a565b91505060608301518482036060860152611c148282611a7a565b91505060808301518482036080860152611c2e8282611a7a565b91505060a0830151611c4360a0860182611ade565b5060c0830151611c5660c0860182611ade565b5060e0830151611c6960e0860182611ade565b50610100830151848203610100860152611c838282611b3a565b9150508091505092915050565b6000611c9c8383611baf565b905092915050565b6000602082019050919050565b6000611cbc826119ee565b611cc681856119f9565b935083602082028501611cd885611a0a565b8060005b85811015611d145784840389528151611cf58582611c90565b9450611d0083611ca4565b925060208a01995050600181019050611cdc565b50829750879550505050505092915050565b60006020820190508181036000830152611d408184611cb1565b905092915050565b600080fd5b7f4e487b7100000000000000000000000000000000000000000000000000000000600052604160045260246000fd5b611d8582611a69565b810181811067ffffffffffffffff82111715611da457611da3611d4d565b5b80604052505050565b6000611db7611867565b9050611dc38282611d7c565b919050565b600067ffffffffffffffff821115611de357611de2611d4d565b5b611dec82611a69565b9050602081019050919050565b82818337600083830152505050565b6000611e1b611e1684611dc8565b611dad565b905082815260208101848484011115611e3757611e36611d48565b5b611e42848285611df9565b509392505050565b600082601f830112611e5f57611e5e61193c565b5b8135611e6f848260208601611e08565b91505092915050565b600080600060608486031215611e9157611e90611871565b5b600084013567ffffffffffffffff811115611eaf57611eae611876565b5b611ebb86828701611e4a565b935050602084013567ffffffffffffffff811115611edc57611edb611876565b5b611ee886828701611e4a565b925050604084013567ffffffffffffffff811115611f0957611f08611876565b5b611f1586828701611e4a565b9150509250925092565b6000610120830160008301518482036000860152611f3d8282611a7a565b9150506020830151611f526020860182611ac5565b5060408301518482036040860152611f6a8282611a7a565b91505060608301518482036060860152611f848282611a7a565b91505060808301518482036080860152611f9e8282611a7a565b91505060a0830151611fb360a0860182611ade565b5060c0830151611fc660c0860182611ade565b5060e0830151611fd960e0860182611ade565b50610100830151848203610100860152611ff38282611b3a565b9150508091505092915050565b6000602082019050818103600083015261201a8184611f1f565b905092915050565b600082825260208201905092915050565b600061203e82611a1a565b6120488185612022565b9350612058818560208601611a36565b61206181611a69565b840191505092915050565b600060208201905081810360008301526120868184612033565b905092915050565b7f4e487b7100000000000000000000000000000000000000000000000000000000600052602260045260246000fd5b600060028204905060018216806120d557607f821691505b602082108114156120e9576120e861208e565b5b50919050565b7f5573657220616c726564792068617320616e206163636f756e74210000000000600082015250565b6000612125601b83612022565b9150612130826120ef565b602082019050919050565b6000602082019050818103600083015261215481612118565b9050919050565b7f55736572206e616d652073686f756c64206e6f7420626520656d707479210000600082015250565b6000612191601e83612022565b915061219c8261215b565b602082019050919050565b600060208201905081810360008301526121c081612184565b9050919050565b7f55736572206e6f74207265676973746572656421000000000000000000000000600082015250565b60006121fd601483612022565b9150612208826121c7565b602082019050919050565b6000602082019050818103600083015261222c816121f0565b9050919050565b7f4e487b7100000000000000000000000000000000000000000000000000000000600052601160045260246000fd5b600061226d82611ad4565b91507fffffffffffffffffffffffffffffffffffffffffffffffffffffffffffffffff8214156122a05761229f612233565b5b600182019050919050565b60006122b682611ad4565b91506122c183611ad4565b9250828210156122d4576122d3612233565b5b828203905092915050565b7f4e487b7100000000000000000000000000000000000000000000000000000000600052603260045260246000fdfea26469706673582212200bab54c5752aef10d895534d598af9ce1a0de4670e4e0930b3e28d649dc364c164736f6c63430008090033",
  "linkReferences": {},
  "deployedLinkReferences": {}
}