{
  "_format": "hh-sol-artifact-1",
  "contractName": "Inscrible",
  "sourceName": "contracts/Inscrible.sol",
  "abi": [
    {
      "inputs": [
        {
          "internalType": "address",
          "name": "key",
          "type": "address"
        }
      ],
      "name": "checkUser",
      "outputs": [
        {
          "internalType": "bool",
          "name": "",
          "type": "bool"
        }
      ],
      "stateMutability": "view",
      "type": "function"
    },
    {
      "inputs": [
        {
          "internalType": "string",
          "name": "_username",
          "type": "string"
        }
      ],
      "name": "createAccount",
      "outputs": [],
      "stateMutability": "nonpayable",
      "type": "function"
    },
    {
      "stateMutability": "payable",
      "type": "receive"
    }
  ],
  "bytecode": "0x608060405234801561001057600080fd5b50610708806100206000396000f3fe60806040526004361061002d5760003560e01c80631e9d48cf14610039578063298daf5b1461007657610034565b3661003457005b600080fd5b34801561004557600080fd5b50610060600480360381019061005b9190610473565b61009f565b60405161006d91906104bb565b60405180910390f35b34801561008257600080fd5b5061009d6004803603810190610098919061053b565b6100f8565b005b6000806000808473ffffffffffffffffffffffffffffffffffffffff1673ffffffffffffffffffffffffffffffffffffffff16815260200190815260200160002060000180546100ee906105b7565b9050119050919050565b600015156101053361009f565b151514610147576040517f08c379a000000000000000000000000000000000000000000000000000000000815260040161013e90610646565b60405180910390fd5b6000828290501161018d576040517f08c379a0000000000000000000000000000000000000000000000000000000008152600401610184906106b2565b60405180910390fd5b81816000803373ffffffffffffffffffffffffffffffffffffffff1673ffffffffffffffffffffffffffffffffffffffff16815260200190815260200160002060000191906101dd9291906102e2565b506001604051806040016040528084848080601f016020809104026020016040519081016040528093929190818152602001838380828437600081840152601f19601f8201169050808301925050505050505081526020013373ffffffffffffffffffffffffffffffffffffffff1681525090806001815401808255809150506001900390600052602060002090600202016000909190919091506000820151816000019080519060200190610294929190610368565b5060208201518160010160006101000a81548173ffffffffffffffffffffffffffffffffffffffff021916908373ffffffffffffffffffffffffffffffffffffffff16021790555050505050565b8280546102ee906105b7565b90600052602060002090601f0160209004810192826103105760008555610357565b82601f1061032957803560ff1916838001178555610357565b82800160010185558215610357579182015b8281111561035657823582559160200191906001019061033b565b5b50905061036491906103ee565b5090565b828054610374906105b7565b90600052602060002090601f01602090048101928261039657600085556103dd565b82601f106103af57805160ff19168380011785556103dd565b828001600101855582156103dd579182015b828111156103dc5782518255916020019190600101906103c1565b5b5090506103ea91906103ee565b5090565b5b808211156104075760008160009055506001016103ef565b5090565b600080fd5b600080fd5b600073ffffffffffffffffffffffffffffffffffffffff82169050919050565b600061044082610415565b9050919050565b61045081610435565b811461045b57600080fd5b50565b60008135905061046d81610447565b92915050565b6000602082840312156104895761048861040b565b5b60006104978482850161045e565b91505092915050565b60008115159050919050565b6104b5816104a0565b82525050565b60006020820190506104d060008301846104ac565b92915050565b600080fd5b600080fd5b600080fd5b60008083601f8401126104fb576104fa6104d6565b5b8235905067ffffffffffffffff811115610518576105176104db565b5b602083019150836001820283011115610534576105336104e0565b5b9250929050565b600080602083850312156105525761055161040b565b5b600083013567ffffffffffffffff8111156105705761056f610410565b5b61057c858286016104e5565b92509250509250929050565b7f4e487b7100000000000000000000000000000000000000000000000000000000600052602260045260246000fd5b600060028204905060018216806105cf57607f821691505b602082108114156105e3576105e2610588565b5b50919050565b600082825260208201905092915050565b7f5573657220616c726564792068617320616e206163636f756e74210000000000600082015250565b6000610630601b836105e9565b915061063b826105fa565b602082019050919050565b6000602082019050818103600083015261065f81610623565b9050919050565b7f55736572206e616d652073686f756c64206e6f7420626520656d707479210000600082015250565b600061069c601e836105e9565b91506106a782610666565b602082019050919050565b600060208201905081810360008301526106cb8161068f565b905091905056fea2646970667358221220240479e891c7d5031a80ed205903626b4fc710cd79843ed2f117a7d1aedf2b0164736f6c63430008090033",
  "linkReferences": {},
  "deployedLinkReferences": {}
}