{
  "_format": "hh-sol-artifact-1",
  "contractName": "Inscrible",
  "sourceName": "contracts/Inscrible.sol",
  "abi": [
    {
      "inputs": [
        {
          "internalType": "address",
          "name": "following_key",
          "type": "address"
        }
      ],
      "name": "addFriend",
      "outputs": [],
      "stateMutability": "nonpayable",
      "type": "function"
    },
    {
      "inputs": [
        {
          "internalType": "string",
          "name": "_imgHash",
          "type": "string"
        },
        {
          "internalType": "string",
          "name": "desc",
          "type": "string"
        },
        {
          "internalType": "string",
          "name": "imgText",
          "type": "string"
        }
      ],
      "name": "addPostImage",
      "outputs": [],
      "stateMutability": "nonpayable",
      "type": "function"
    },
    {
      "inputs": [
        {
          "internalType": "address",
          "name": "me",
          "type": "address"
        },
        {
          "internalType": "address",
          "name": "following_key",
          "type": "address"
        }
      ],
      "name": "checkAlreadyFriends",
      "outputs": [
        {
          "internalType": "bool",
          "name": "",
          "type": "bool"
        }
      ],
      "stateMutability": "view",
      "type": "function"
    },
    {
      "inputs": [
        {
          "internalType": "address",
          "name": "key",
          "type": "address"
        }
      ],
      "name": "checkUser",
      "outputs": [
        {
          "internalType": "bool",
          "name": "",
          "type": "bool"
        }
      ],
      "stateMutability": "view",
      "type": "function"
    },
    {
      "inputs": [
        {
          "internalType": "string",
          "name": "_username",
          "type": "string"
        }
      ],
      "name": "createAccount",
      "outputs": [],
      "stateMutability": "nonpayable",
      "type": "function"
    },
    {
      "inputs": [],
      "name": "getAllAppUser",
      "outputs": [
        {
          "components": [
            {
              "internalType": "string",
              "name": "username",
              "type": "string"
            },
            {
              "internalType": "address",
              "name": "accountAddress",
              "type": "address"
            }
          ],
          "internalType": "struct Inscrible.AllUserStruck[]",
          "name": "",
          "type": "tuple[]"
        }
      ],
      "stateMutability": "view",
      "type": "function"
    },
    {
      "inputs": [],
      "name": "getAllPosts",
      "outputs": [
        {
          "components": [
            {
              "internalType": "string",
              "name": "createrName",
              "type": "string"
            },
            {
              "internalType": "address payable",
              "name": "userAddress",
              "type": "address"
            },
            {
              "internalType": "string",
              "name": "imageHash",
              "type": "string"
            },
            {
              "internalType": "string",
              "name": "caption",
              "type": "string"
            },
            {
              "internalType": "string",
              "name": "imageText",
              "type": "string"
            },
            {
              "internalType": "uint256",
              "name": "tipAmount",
              "type": "uint256"
            },
            {
              "internalType": "uint256",
              "name": "id",
              "type": "uint256"
            },
            {
              "internalType": "uint256",
              "name": "likeCount",
              "type": "uint256"
            },
            {
              "internalType": "string[]",
              "name": "likedByUser",
              "type": "string[]"
            }
          ],
          "internalType": "struct Inscrible.Post[]",
          "name": "",
          "type": "tuple[]"
        }
      ],
      "stateMutability": "view",
      "type": "function"
    },
    {
      "inputs": [],
      "name": "getMyFollowersList",
      "outputs": [
        {
          "components": [
            {
              "internalType": "address",
              "name": "pubkey",
              "type": "address"
            },
            {
              "internalType": "string",
              "name": "name",
              "type": "string"
            }
          ],
          "internalType": "struct Inscrible.friend[]",
          "name": "",
          "type": "tuple[]"
        }
      ],
      "stateMutability": "view",
      "type": "function"
    },
    {
      "inputs": [],
      "name": "getMyFollowingsList",
      "outputs": [
        {
          "components": [
            {
              "internalType": "address",
              "name": "pubkey",
              "type": "address"
            },
            {
              "internalType": "string",
              "name": "name",
              "type": "string"
            }
          ],
          "internalType": "struct Inscrible.friend[]",
          "name": "",
          "type": "tuple[]"
        }
      ],
      "stateMutability": "view",
      "type": "function"
    },
    {
      "inputs": [
        {
          "internalType": "address",
          "name": "key",
          "type": "address"
        }
      ],
      "name": "getSingleUserLatestPost",
      "outputs": [
        {
          "components": [
            {
              "internalType": "string",
              "name": "createrName",
              "type": "string"
            },
            {
              "internalType": "address payable",
              "name": "userAddress",
              "type": "address"
            },
            {
              "internalType": "string",
              "name": "imageHash",
              "type": "string"
            },
            {
              "internalType": "string",
              "name": "caption",
              "type": "string"
            },
            {
              "internalType": "string",
              "name": "imageText",
              "type": "string"
            },
            {
              "internalType": "uint256",
              "name": "tipAmount",
              "type": "uint256"
            },
            {
              "internalType": "uint256",
              "name": "id",
              "type": "uint256"
            },
            {
              "internalType": "uint256",
              "name": "likeCount",
              "type": "uint256"
            },
            {
              "internalType": "string[]",
              "name": "likedByUser",
              "type": "string[]"
            }
          ],
          "internalType": "struct Inscrible.Post",
          "name": "",
          "type": "tuple"
        }
      ],
      "stateMutability": "view",
      "type": "function"
    },
    {
      "inputs": [
        {
          "internalType": "address",
          "name": "key",
          "type": "address"
        }
      ],
      "name": "getSingleUserPost",
      "outputs": [
        {
          "components": [
            {
              "internalType": "string",
              "name": "createrName",
              "type": "string"
            },
            {
              "internalType": "address payable",
              "name": "userAddress",
              "type": "address"
            },
            {
              "internalType": "string",
              "name": "imageHash",
              "type": "string"
            },
            {
              "internalType": "string",
              "name": "caption",
              "type": "string"
            },
            {
              "internalType": "string",
              "name": "imageText",
              "type": "string"
            },
            {
              "internalType": "uint256",
              "name": "tipAmount",
              "type": "uint256"
            },
            {
              "internalType": "uint256",
              "name": "id",
              "type": "uint256"
            },
            {
              "internalType": "uint256",
              "name": "likeCount",
              "type": "uint256"
            },
            {
              "internalType": "string[]",
              "name": "likedByUser",
              "type": "string[]"
            }
          ],
          "internalType": "struct Inscrible.Post[]",
          "name": "",
          "type": "tuple[]"
        }
      ],
      "stateMutability": "view",
      "type": "function"
    },
    {
      "inputs": [
        {
          "internalType": "address",
          "name": "key",
          "type": "address"
        }
      ],
      "name": "getUsername",
      "outputs": [
        {
          "internalType": "string",
          "name": "",
          "type": "string"
        }
      ],
      "stateMutability": "view",
      "type": "function"
    },
    {
      "inputs": [
        {
          "internalType": "address",
          "name": "followingAddress",
          "type": "address"
        }
      ],
      "name": "removeFriend",
      "outputs": [],
      "stateMutability": "nonpayable",
      "type": "function"
    },
    {
      "stateMutability": "payable",
      "type": "receive"
    }
  ],
  "bytecode": "0x6080604052600060015534801561001557600080fd5b506140f7806100256000396000f3fe6080604052600436106100c65760003560e01c806380cee8a51161007f578063b9a4134f11610059578063b9a4134f14610273578063ce43c032146102b0578063d7a1cfe1146102ed578063f111439814610316576100cd565b806380cee8a5146101f4578063a24d41de1461021d578063a8b37ff214610248576100cd565b8063060f0eb2146100d25780631e9d48cf146100fd578063298daf5b1461013a578063305611001461016357806359737a541461018e578063734ee8e5146101b7576100cd565b366100cd57005b600080fd5b3480156100de57600080fd5b506100e7610353565b6040516100f4919061335d565b60405180910390f35b34801561010957600080fd5b50610124600480360381019061011f91906133bf565b6104da565b6040516101319190613407565b60405180910390f35b34801561014657600080fd5b50610161600480360381019061015c9190613487565b61054c565b005b34801561016f57600080fd5b50610178610737565b6040516101859190613773565b60405180910390f35b34801561019a57600080fd5b506101b560048036038101906101b091906138c5565b610b2c565b005b3480156101c357600080fd5b506101de60048036038101906101d991906133bf565b6111eb565b6040516101eb9190613a4d565b60405180910390f35b34801561020057600080fd5b5061021b600480360381019061021691906133bf565b611648565b005b34801561022957600080fd5b50610232611d45565b60405161023f9190613b6e565b60405180910390f35b34801561025457600080fd5b5061025d611e8c565b60405161026a919061335d565b60405180910390f35b34801561027f57600080fd5b5061029a60048036038101906102959190613b90565b612013565b6040516102a79190613407565b60405180910390f35b3480156102bc57600080fd5b506102d760048036038101906102d291906133bf565b61214a565b6040516102e49190613c1a565b60405180910390f35b3480156102f957600080fd5b50610314600480360381019061030f91906133bf565b61221e565b005b34801561032257600080fd5b5061033d600480360381019061033891906133bf565b612691565b60405161034a9190613773565b60405180910390f35b6060600360003373ffffffffffffffffffffffffffffffffffffffff1673ffffffffffffffffffffffffffffffffffffffff168152602001908152602001600020600101805480602002602001604051908101604052809291908181526020016000905b828210156104d157838290600052602060002090600202016040518060400160405290816000820160009054906101000a900473ffffffffffffffffffffffffffffffffffffffff1673ffffffffffffffffffffffffffffffffffffffff1673ffffffffffffffffffffffffffffffffffffffff16815260200160018201805461044090613c6b565b80601f016020809104026020016040519081016040528092919081815260200182805461046c90613c6b565b80156104b95780601f1061048e576101008083540402835291602001916104b9565b820191906000526020600020905b81548152906001019060200180831161049c57829003601f168201915b505050505081525050815260200190600101906103b7565b50505050905090565b6000806000805490501115610542576000600360008473ffffffffffffffffffffffffffffffffffffffff1673ffffffffffffffffffffffffffffffffffffffff168152602001908152602001600020600001805461053890613c6b565b9050119050610547565b600090505b919050565b60001515610559336104da565b15151461059b576040517f08c379a000000000000000000000000000000000000000000000000000000000815260040161059290613ce9565b60405180910390fd5b600082829050116105e1576040517f08c379a00000000000000000000000000000000000000000000000000000000081526004016105d890613d55565b60405180910390fd5b8181600360003373ffffffffffffffffffffffffffffffffffffffff1673ffffffffffffffffffffffffffffffffffffffff1681526020019081526020016000206000019190610632929190612e40565b506000604051806040016040528084848080601f016020809104026020016040519081016040528093929190818152602001838380828437600081840152601f19601f8201169050808301925050505050505081526020013373ffffffffffffffffffffffffffffffffffffffff16815250908060018154018082558091505060019003906000526020600020906002020160009091909190915060008201518160000190805190602001906106e9929190612ec6565b5060208201518160010160006101000a81548173ffffffffffffffffffffffffffffffffffffffff021916908373ffffffffffffffffffffffffffffffffffffffff16021790555050505050565b60606005805480602002602001604051908101604052809291908181526020016000905b82821015610b2357838290600052602060002090600902016040518061012001604052908160008201805461078f90613c6b565b80601f01602080910402602001604051908101604052809291908181526020018280546107bb90613c6b565b80156108085780601f106107dd57610100808354040283529160200191610808565b820191906000526020600020905b8154815290600101906020018083116107eb57829003601f168201915b505050505081526020016001820160009054906101000a900473ffffffffffffffffffffffffffffffffffffffff1673ffffffffffffffffffffffffffffffffffffffff1673ffffffffffffffffffffffffffffffffffffffff16815260200160028201805461087790613c6b565b80601f01602080910402602001604051908101604052809291908181526020018280546108a390613c6b565b80156108f05780601f106108c5576101008083540402835291602001916108f0565b820191906000526020600020905b8154815290600101906020018083116108d357829003601f168201915b5050505050815260200160038201805461090990613c6b565b80601f016020809104026020016040519081016040528092919081815260200182805461093590613c6b565b80156109825780601f1061095757610100808354040283529160200191610982565b820191906000526020600020905b81548152906001019060200180831161096557829003601f168201915b5050505050815260200160048201805461099b90613c6b565b80601f01602080910402602001604051908101604052809291908181526020018280546109c790613c6b565b8015610a145780601f106109e957610100808354040283529160200191610a14565b820191906000526020600020905b8154815290600101906020018083116109f757829003601f168201915b5050505050815260200160058201548152602001600682015481526020016007820154815260200160088201805480602002602001604051908101604052809291908181526020016000905b82821015610b0c578382906000526020600020018054610a7f90613c6b565b80601f0160208091040260200160405190810160405280929190818152602001828054610aab90613c6b565b8015610af85780601f10610acd57610100808354040283529160200191610af8565b820191906000526020600020905b815481529060010190602001808311610adb57829003601f168201915b505050505081526020019060010190610a60565b50505050815250508152602001906001019061075b565b50505050905090565b610b35336104da565b610b74576040517f08c379a0000000000000000000000000000000000000000000000000000000008152600401610b6b90613dc1565b60405180910390fd5b6000835111610b8257600080fd5b60016000815480929190610b9590613e10565b91905055506000604051806101200160405280600360003373ffffffffffffffffffffffffffffffffffffffff1673ffffffffffffffffffffffffffffffffffffffff1681526020019081526020016000206000018054610bf590613c6b565b80601f0160208091040260200160405190810160405280929190818152602001828054610c2190613c6b565b8015610c6e5780601f10610c4357610100808354040283529160200191610c6e565b820191906000526020600020905b815481529060010190602001808311610c5157829003601f168201915b505050505081526020013373ffffffffffffffffffffffffffffffffffffffff16815260200185815260200184815260200183815260200160008152602001600154815260200160008152602001600067ffffffffffffffff811115610cd757610cd661379a565b5b604051908082528060200260200182016040528015610d0a57816020015b6060815260200190600190039081610cf55790505b50815250905060005b600360003373ffffffffffffffffffffffffffffffffffffffff1673ffffffffffffffffffffffffffffffffffffffff16815260200190815260200160002060010180549050811015610f5a5760046000600360003373ffffffffffffffffffffffffffffffffffffffff1673ffffffffffffffffffffffffffffffffffffffff1681526020019081526020016000206001018381548110610db857610db7613e59565b5b906000526020600020906002020160000160009054906101000a900473ffffffffffffffffffffffffffffffffffffffff1673ffffffffffffffffffffffffffffffffffffffff1673ffffffffffffffffffffffffffffffffffffffff1681526020019081526020016000208290806001815401808255809150506001900390600052602060002090600902016000909190919091506000820151816000019080519060200190610e6a929190612ec6565b5060208201518160010160006101000a81548173ffffffffffffffffffffffffffffffffffffffff021916908373ffffffffffffffffffffffffffffffffffffffff1602179055506040820151816002019080519060200190610ece929190612ec6565b506060820151816003019080519060200190610eeb929190612ec6565b506080820151816004019080519060200190610f08929190612ec6565b5060a0820151816005015560c0820151816006015560e08201518160070155610100820151816008019080519060200190610f44929190612f4c565b5050508080610f5290613e10565b915050610d13565b50600360003373ffffffffffffffffffffffffffffffffffffffff1673ffffffffffffffffffffffffffffffffffffffff1681526020019081526020016000206003018190806001815401808255809150506001900390600052602060002090600902016000909190919091506000820151816000019080519060200190610fe3929190612ec6565b5060208201518160010160006101000a81548173ffffffffffffffffffffffffffffffffffffffff021916908373ffffffffffffffffffffffffffffffffffffffff1602179055506040820151816002019080519060200190611047929190612ec6565b506060820151816003019080519060200190611064929190612ec6565b506080820151816004019080519060200190611081929190612ec6565b5060a0820151816005015560c0820151816006015560e082015181600701556101008201518160080190805190602001906110bd929190612f4c565b50505060058190806001815401808255809150506001900390600052602060002090600902016000909190919091506000820151816000019080519060200190611108929190612ec6565b5060208201518160010160006101000a81548173ffffffffffffffffffffffffffffffffffffffff021916908373ffffffffffffffffffffffffffffffffffffffff160217905550604082015181600201908051906020019061116c929190612ec6565b506060820151816003019080519060200190611189929190612ec6565b5060808201518160040190805190602001906111a6929190612ec6565b5060a0820151816005015560c0820151816006015560e082015181600701556101008201518160080190805190602001906111e2929190612f4c565b50505050505050565b6111f3612fac565b600460008373ffffffffffffffffffffffffffffffffffffffff1673ffffffffffffffffffffffffffffffffffffffff1681526020019081526020016000206001600460008573ffffffffffffffffffffffffffffffffffffffff1673ffffffffffffffffffffffffffffffffffffffff168152602001908152602001600020805490506112819190613e88565b8154811061129257611291613e59565b5b9060005260206000209060090201604051806101200160405290816000820180546112bc90613c6b565b80601f01602080910402602001604051908101604052809291908181526020018280546112e890613c6b565b80156113355780601f1061130a57610100808354040283529160200191611335565b820191906000526020600020905b81548152906001019060200180831161131857829003601f168201915b505050505081526020016001820160009054906101000a900473ffffffffffffffffffffffffffffffffffffffff1673ffffffffffffffffffffffffffffffffffffffff1673ffffffffffffffffffffffffffffffffffffffff1681526020016002820180546113a490613c6b565b80601f01602080910402602001604051908101604052809291908181526020018280546113d090613c6b565b801561141d5780601f106113f25761010080835404028352916020019161141d565b820191906000526020600020905b81548152906001019060200180831161140057829003601f168201915b5050505050815260200160038201805461143690613c6b565b80601f016020809104026020016040519081016040528092919081815260200182805461146290613c6b565b80156114af5780601f10611484576101008083540402835291602001916114af565b820191906000526020600020905b81548152906001019060200180831161149257829003601f168201915b505050505081526020016004820180546114c890613c6b565b80601f01602080910402602001604051908101604052809291908181526020018280546114f490613c6b565b80156115415780601f1061151657610100808354040283529160200191611541565b820191906000526020600020905b81548152906001019060200180831161152457829003601f168201915b5050505050815260200160058201548152602001600682015481526020016007820154815260200160088201805480602002602001604051908101604052809291908181526020016000905b828210156116395783829060005260206000200180546115ac90613c6b565b80601f01602080910402602001604051908101604052809291908181526020018280546115d890613c6b565b80156116255780601f106115fa57610100808354040283529160200191611625565b820191906000526020600020905b81548152906001019060200180831161160857829003601f168201915b50505050508152602001906001019061158d565b50505050815250509050919050565b6000806000905060005b600360008573ffffffffffffffffffffffffffffffffffffffff1673ffffffffffffffffffffffffffffffffffffffff16815260200190815260200160002060010180549050811015611777573373ffffffffffffffffffffffffffffffffffffffff16600360008673ffffffffffffffffffffffffffffffffffffffff1673ffffffffffffffffffffffffffffffffffffffff168152602001908152602001600020600101828154811061170a57611709613e59565b5b906000526020600020906002020160000160009054906101000a900473ffffffffffffffffffffffffffffffffffffffff1673ffffffffffffffffffffffffffffffffffffffff1614156117645780925060019150611777565b808061176f90613e10565b915050611652565b5080156119c057600360008473ffffffffffffffffffffffffffffffffffffffff1673ffffffffffffffffffffffffffffffffffffffff1681526020019081526020016000206001016001600360008673ffffffffffffffffffffffffffffffffffffffff1673ffffffffffffffffffffffffffffffffffffffff168152602001908152602001600020600101805490506118129190613e88565b8154811061182357611822613e59565b5b9060005260206000209060020201600360008573ffffffffffffffffffffffffffffffffffffffff1673ffffffffffffffffffffffffffffffffffffffff168152602001908152602001600020600101838154811061188557611884613e59565b5b90600052602060002090600202016000820160009054906101000a900473ffffffffffffffffffffffffffffffffffffffff168160000160006101000a81548173ffffffffffffffffffffffffffffffffffffffff021916908373ffffffffffffffffffffffffffffffffffffffff160217905550600182018160010190805461190e90613c6b565b61191992919061300e565b50905050600360008473ffffffffffffffffffffffffffffffffffffffff1673ffffffffffffffffffffffffffffffffffffffff16815260200190815260200160002060010180548061196f5761196e613ebc565b5b6001900381819060005260206000209060020201600080820160006101000a81549073ffffffffffffffffffffffffffffffffffffffff02191690556001820160006119bb919061309b565b505090555b6000806000905060005b600360003373ffffffffffffffffffffffffffffffffffffffff1673ffffffffffffffffffffffffffffffffffffffff16815260200190815260200160002060020180549050811015611aef578573ffffffffffffffffffffffffffffffffffffffff16600360003373ffffffffffffffffffffffffffffffffffffffff1673ffffffffffffffffffffffffffffffffffffffff1681526020019081526020016000206002018281548110611a8257611a81613e59565b5b906000526020600020906002020160000160009054906101000a900473ffffffffffffffffffffffffffffffffffffffff1673ffffffffffffffffffffffffffffffffffffffff161415611adc5780925060019150611aef565b8080611ae790613e10565b9150506119ca565b508015611d3e576000600360003373ffffffffffffffffffffffffffffffffffffffff1673ffffffffffffffffffffffffffffffffffffffff168152602001908152602001600020600201805490509050600360003373ffffffffffffffffffffffffffffffffffffffff1673ffffffffffffffffffffffffffffffffffffffff168152602001908152602001600020600201600182611b8f9190613e88565b81548110611ba057611b9f613e59565b5b9060005260206000209060020201600360003373ffffffffffffffffffffffffffffffffffffffff1673ffffffffffffffffffffffffffffffffffffffff1681526020019081526020016000206002018481548110611c0257611c01613e59565b5b90600052602060002090600202016000820160009054906101000a900473ffffffffffffffffffffffffffffffffffffffff168160000160006101000a81548173ffffffffffffffffffffffffffffffffffffffff021916908373ffffffffffffffffffffffffffffffffffffffff1602179055506001820181600101908054611c8b90613c6b565b611c9692919061300e565b50905050600360003373ffffffffffffffffffffffffffffffffffffffff1673ffffffffffffffffffffffffffffffffffffffff168152602001908152602001600020600201805480611cec57611ceb613ebc565b5b6001900381819060005260206000209060020201600080820160006101000a81549073ffffffffffffffffffffffffffffffffffffffff0219169055600182016000611d38919061309b565b50509055505b5050505050565b60606000805480602002602001604051908101604052809291908181526020016000905b82821015611e835783829060005260206000209060020201604051806040016040529081600082018054611d9c90613c6b565b80601f0160208091040260200160405190810160405280929190818152602001828054611dc890613c6b565b8015611e155780601f10611dea57610100808354040283529160200191611e15565b820191906000526020600020905b815481529060010190602001808311611df857829003601f168201915b505050505081526020016001820160009054906101000a900473ffffffffffffffffffffffffffffffffffffffff1673ffffffffffffffffffffffffffffffffffffffff1673ffffffffffffffffffffffffffffffffffffffff168152505081526020019060010190611d69565b50505050905090565b6060600360003373ffffffffffffffffffffffffffffffffffffffff1673ffffffffffffffffffffffffffffffffffffffff168152602001908152602001600020600201805480602002602001604051908101604052809291908181526020016000905b8282101561200a57838290600052602060002090600202016040518060400160405290816000820160009054906101000a900473ffffffffffffffffffffffffffffffffffffffff1673ffffffffffffffffffffffffffffffffffffffff1673ffffffffffffffffffffffffffffffffffffffff168152602001600182018054611f7990613c6b565b80601f0160208091040260200160405190810160405280929190818152602001828054611fa590613c6b565b8015611ff25780601f10611fc757610100808354040283529160200191611ff2565b820191906000526020600020905b815481529060010190602001808311611fd557829003601f168201915b50505050508152505081526020019060010190611ef0565b50505050905090565b600080600090505b600360008473ffffffffffffffffffffffffffffffffffffffff1673ffffffffffffffffffffffffffffffffffffffff1681526020019081526020016000206001018054905081101561213e578373ffffffffffffffffffffffffffffffffffffffff16600360008573ffffffffffffffffffffffffffffffffffffffff1673ffffffffffffffffffffffffffffffffffffffff16815260200190815260200160002060010182815481106120d3576120d2613e59565b5b906000526020600020906002020160000160009054906101000a900473ffffffffffffffffffffffffffffffffffffffff1673ffffffffffffffffffffffffffffffffffffffff16141561212b576001915050612144565b808061213690613e10565b91505061201b565b50600090505b92915050565b6060600360008373ffffffffffffffffffffffffffffffffffffffff1673ffffffffffffffffffffffffffffffffffffffff168152602001908152602001600020600001805461219990613c6b565b80601f01602080910402602001604051908101604052809291908181526020018280546121c590613c6b565b80156122125780601f106121e757610100808354040283529160200191612212565b820191906000526020600020905b8154815290600101906020018083116121f557829003601f168201915b50505050509050919050565b612227336104da565b612266576040517f08c379a000000000000000000000000000000000000000000000000000000000815260040161225d90613f37565b60405180910390fd5b61226f816104da565b6122ae576040517f08c379a00000000000000000000000000000000000000000000000000000000081526004016122a590613fa3565b60405180910390fd5b8073ffffffffffffffffffffffffffffffffffffffff163373ffffffffffffffffffffffffffffffffffffffff16141561231d576040517f08c379a000000000000000000000000000000000000000000000000000000000815260040161231490614035565b60405180910390fd5b6000151561232b3383612013565b15151461236d576040517f08c379a0000000000000000000000000000000000000000000000000000000008152600401612364906140a1565b60405180910390fd5b6124428133600360003373ffffffffffffffffffffffffffffffffffffffff1673ffffffffffffffffffffffffffffffffffffffff16815260200190815260200160002060000180546123bf90613c6b565b80601f01602080910402602001604051908101604052809291908181526020018280546123eb90613c6b565b80156124385780601f1061240d57610100808354040283529160200191612438565b820191906000526020600020905b81548152906001019060200180831161241b57829003601f168201915b5050505050612b6d565b60005b600360008373ffffffffffffffffffffffffffffffffffffffff1673ffffffffffffffffffffffffffffffffffffffff1681526020019081526020016000206003018054905081101561268d57600460003373ffffffffffffffffffffffffffffffffffffffff1673ffffffffffffffffffffffffffffffffffffffff168152602001908152602001600020600360008473ffffffffffffffffffffffffffffffffffffffff1673ffffffffffffffffffffffffffffffffffffffff168152602001908152602001600020600301828154811061252557612524613e59565b5b90600052602060002090600902019080600181540180825580915050600190039060005260206000209060090201600090919091909150600082018160000190805461257090613c6b565b61257b92919061300e565b506001820160009054906101000a900473ffffffffffffffffffffffffffffffffffffffff168160010160006101000a81548173ffffffffffffffffffffffffffffffffffffffff021916908373ffffffffffffffffffffffffffffffffffffffff16021790555060028201816002019080546125f790613c6b565b61260292919061300e565b50600382018160030190805461261790613c6b565b61262292919061300e565b50600482018160040190805461263790613c6b565b61264292919061300e565b5060058201548160050155600682015481600601556007820154816007015560088201816008019080546126779291906130db565b505050808061268590613e10565b915050612445565b5050565b60606000600460008473ffffffffffffffffffffffffffffffffffffffff1673ffffffffffffffffffffffffffffffffffffffff168152602001908152602001600020805490501115612b1057600460008373ffffffffffffffffffffffffffffffffffffffff1673ffffffffffffffffffffffffffffffffffffffff168152602001908152602001600020805480602002602001604051908101604052809291908181526020016000905b82821015612b0557838290600052602060002090600902016040518061012001604052908160008201805461277190613c6b565b80601f016020809104026020016040519081016040528092919081815260200182805461279d90613c6b565b80156127ea5780601f106127bf576101008083540402835291602001916127ea565b820191906000526020600020905b8154815290600101906020018083116127cd57829003601f168201915b505050505081526020016001820160009054906101000a900473ffffffffffffffffffffffffffffffffffffffff1673ffffffffffffffffffffffffffffffffffffffff1673ffffffffffffffffffffffffffffffffffffffff16815260200160028201805461285990613c6b565b80601f016020809104026020016040519081016040528092919081815260200182805461288590613c6b565b80156128d25780601f106128a7576101008083540402835291602001916128d2565b820191906000526020600020905b8154815290600101906020018083116128b557829003601f168201915b505050505081526020016003820180546128eb90613c6b565b80601f016020809104026020016040519081016040528092919081815260200182805461291790613c6b565b80156129645780601f1061293957610100808354040283529160200191612964565b820191906000526020600020905b81548152906001019060200180831161294757829003601f168201915b5050505050815260200160048201805461297d90613c6b565b80601f01602080910402602001604051908101604052809291908181526020018280546129a990613c6b565b80156129f65780601f106129cb576101008083540402835291602001916129f6565b820191906000526020600020905b8154815290600101906020018083116129d957829003601f168201915b5050505050815260200160058201548152602001600682015481526020016007820154815260200160088201805480602002602001604051908101604052809291908181526020016000905b82821015612aee578382906000526020600020018054612a6190613c6b565b80601f0160208091040260200160405190810160405280929190818152602001828054612a8d90613c6b565b8015612ada5780601f10612aaf57610100808354040283529160200191612ada565b820191906000526020600020905b815481529060010190602001808311612abd57829003601f168201915b505050505081526020019060010190612a42565b50505050815250508152602001906001019061273d565b505050509050612b68565b600067ffffffffffffffff811115612b2b57612b2a61379a565b5b604051908082528060200260200182016040528015612b6457816020015b612b51612fac565b815260200190600190039081612b495790505b5090505b919050565b600060405180604001604052808473ffffffffffffffffffffffffffffffffffffffff168152602001838152509050600360008573ffffffffffffffffffffffffffffffffffffffff1673ffffffffffffffffffffffffffffffffffffffff16815260200190815260200160002060010181908060018154018082558091505060019003906000526020600020906002020160009091909190915060008201518160000160006101000a81548173ffffffffffffffffffffffffffffffffffffffff021916908373ffffffffffffffffffffffffffffffffffffffff1602179055506020820151816001019080519060200190612c6b929190612ec6565b505050600060405180604001604052808673ffffffffffffffffffffffffffffffffffffffff168152602001600360008873ffffffffffffffffffffffffffffffffffffffff1673ffffffffffffffffffffffffffffffffffffffff1681526020019081526020016000206000018054612ce490613c6b565b80601f0160208091040260200160405190810160405280929190818152602001828054612d1090613c6b565b8015612d5d5780601f10612d3257610100808354040283529160200191612d5d565b820191906000526020600020905b815481529060010190602001808311612d4057829003601f168201915b50505050508152509050600360008573ffffffffffffffffffffffffffffffffffffffff1673ffffffffffffffffffffffffffffffffffffffff16815260200190815260200160002060020181908060018154018082558091505060019003906000526020600020906002020160009091909190915060008201518160000160006101000a81548173ffffffffffffffffffffffffffffffffffffffff021916908373ffffffffffffffffffffffffffffffffffffffff1602179055506020820151816001019080519060200190612e36929190612ec6565b5050505050505050565b828054612e4c90613c6b565b90600052602060002090601f016020900481019282612e6e5760008555612eb5565b82601f10612e8757803560ff1916838001178555612eb5565b82800160010185558215612eb5579182015b82811115612eb4578235825591602001919060010190612e99565b5b509050612ec29190613143565b5090565b828054612ed290613c6b565b90600052602060002090601f016020900481019282612ef45760008555612f3b565b82601f10612f0d57805160ff1916838001178555612f3b565b82800160010185558215612f3b579182015b82811115612f3a578251825591602001919060010190612f1f565b5b509050612f489190613143565b5090565b828054828255906000526020600020908101928215612f9b579160200282015b82811115612f9a578251829080519060200190612f8a929190612ec6565b5091602001919060010190612f6c565b5b509050612fa89190613160565b5090565b60405180610120016040528060608152602001600073ffffffffffffffffffffffffffffffffffffffff168152602001606081526020016060815260200160608152602001600081526020016000815260200160008152602001606081525090565b82805461301a90613c6b565b90600052602060002090601f01602090048101928261303c576000855561308a565b82601f1061304d578054855561308a565b8280016001018555821561308a57600052602060002091601f016020900482015b8281111561308957825482559160010191906001019061306e565b5b5090506130979190613143565b5090565b5080546130a790613c6b565b6000825580601f106130b957506130d8565b601f0160209004906000526020600020908101906130d79190613143565b5b50565b8280548282559060005260206000209081019282156131325760005260206000209182015b8281111561313157828290805461311690613c6b565b61312192919061300e565b5091600101919060010190613100565b5b50905061313f9190613160565b5090565b5b8082111561315c576000816000905550600101613144565b5090565b5b808211156131805760008181613177919061309b565b50600101613161565b5090565b600081519050919050565b600082825260208201905092915050565b6000819050602082019050919050565b600073ffffffffffffffffffffffffffffffffffffffff82169050919050565b60006131db826131b0565b9050919050565b6131eb816131d0565b82525050565b600081519050919050565b600082825260208201905092915050565b60005b8381101561322b578082015181840152602081019050613210565b8381111561323a576000848401525b50505050565b6000601f19601f8301169050919050565b600061325c826131f1565b61326681856131fc565b935061327681856020860161320d565b61327f81613240565b840191505092915050565b60006040830160008301516132a260008601826131e2565b50602083015184820360208601526132ba8282613251565b9150508091505092915050565b60006132d3838361328a565b905092915050565b6000602082019050919050565b60006132f382613184565b6132fd818561318f565b93508360208202850161330f856131a0565b8060005b8581101561334b578484038952815161332c85826132c7565b9450613337836132db565b925060208a01995050600181019050613313565b50829750879550505050505092915050565b6000602082019050818103600083015261337781846132e8565b905092915050565b6000604051905090565b600080fd5b600080fd5b61339c816131d0565b81146133a757600080fd5b50565b6000813590506133b981613393565b92915050565b6000602082840312156133d5576133d4613389565b5b60006133e3848285016133aa565b91505092915050565b60008115159050919050565b613401816133ec565b82525050565b600060208201905061341c60008301846133f8565b92915050565b600080fd5b600080fd5b600080fd5b60008083601f84011261344757613446613422565b5b8235905067ffffffffffffffff81111561346457613463613427565b5b6020830191508360018202830111156134805761347f61342c565b5b9250929050565b6000806020838503121561349e5761349d613389565b5b600083013567ffffffffffffffff8111156134bc576134bb61338e565b5b6134c885828601613431565b92509250509250929050565b600081519050919050565b600082825260208201905092915050565b6000819050602082019050919050565b600061350b826131b0565b9050919050565b61351b81613500565b82525050565b6000819050919050565b61353481613521565b82525050565b600081519050919050565b600082825260208201905092915050565b6000819050602082019050919050565b60006135728383613251565b905092915050565b6000602082019050919050565b60006135928261353a565b61359c8185613545565b9350836020820285016135ae85613556565b8060005b858110156135ea57848403895281516135cb8582613566565b94506135d68361357a565b925060208a019950506001810190506135b2565b50829750879550505050505092915050565b600061012083016000830151848203600086015261361a8282613251565b915050602083015161362f6020860182613512565b50604083015184820360408601526136478282613251565b915050606083015184820360608601526136618282613251565b9150506080830151848203608086015261367b8282613251565b91505060a083015161369060a086018261352b565b5060c08301516136a360c086018261352b565b5060e08301516136b660e086018261352b565b506101008301518482036101008601526136d08282613587565b9150508091505092915050565b60006136e983836135fc565b905092915050565b6000602082019050919050565b6000613709826134d4565b61371381856134df565b935083602082028501613725856134f0565b8060005b85811015613761578484038952815161374285826136dd565b945061374d836136f1565b925060208a01995050600181019050613729565b50829750879550505050505092915050565b6000602082019050818103600083015261378d81846136fe565b905092915050565b600080fd5b7f4e487b7100000000000000000000000000000000000000000000000000000000600052604160045260246000fd5b6137d282613240565b810181811067ffffffffffffffff821117156137f1576137f061379a565b5b80604052505050565b600061380461337f565b905061381082826137c9565b919050565b600067ffffffffffffffff8211156138305761382f61379a565b5b61383982613240565b9050602081019050919050565b82818337600083830152505050565b600061386861386384613815565b6137fa565b90508281526020810184848401111561388457613883613795565b5b61388f848285613846565b509392505050565b600082601f8301126138ac576138ab613422565b5b81356138bc848260208601613855565b91505092915050565b6000806000606084860312156138de576138dd613389565b5b600084013567ffffffffffffffff8111156138fc576138fb61338e565b5b61390886828701613897565b935050602084013567ffffffffffffffff8111156139295761392861338e565b5b61393586828701613897565b925050604084013567ffffffffffffffff8111156139565761395561338e565b5b61396286828701613897565b9150509250925092565b600061012083016000830151848203600086015261398a8282613251565b915050602083015161399f6020860182613512565b50604083015184820360408601526139b78282613251565b915050606083015184820360608601526139d18282613251565b915050608083015184820360808601526139eb8282613251565b91505060a0830151613a0060a086018261352b565b5060c0830151613a1360c086018261352b565b5060e0830151613a2660e086018261352b565b50610100830151848203610100860152613a408282613587565b9150508091505092915050565b60006020820190508181036000830152613a67818461396c565b905092915050565b600081519050919050565b600082825260208201905092915050565b6000819050602082019050919050565b60006040830160008301518482036000860152613ab88282613251565b9150506020830151613acd60208601826131e2565b508091505092915050565b6000613ae48383613a9b565b905092915050565b6000602082019050919050565b6000613b0482613a6f565b613b0e8185613a7a565b935083602082028501613b2085613a8b565b8060005b85811015613b5c5784840389528151613b3d8582613ad8565b9450613b4883613aec565b925060208a01995050600181019050613b24565b50829750879550505050505092915050565b60006020820190508181036000830152613b888184613af9565b905092915050565b60008060408385031215613ba757613ba6613389565b5b6000613bb5858286016133aa565b9250506020613bc6858286016133aa565b9150509250929050565b600082825260208201905092915050565b6000613bec826131f1565b613bf68185613bd0565b9350613c0681856020860161320d565b613c0f81613240565b840191505092915050565b60006020820190508181036000830152613c348184613be1565b905092915050565b7f4e487b7100000000000000000000000000000000000000000000000000000000600052602260045260246000fd5b60006002820490506001821680613c8357607f821691505b60208210811415613c9757613c96613c3c565b5b50919050565b7f5573657220616c726564792068617320616e206163636f756e74210000000000600082015250565b6000613cd3601b83613bd0565b9150613cde82613c9d565b602082019050919050565b60006020820190508181036000830152613d0281613cc6565b9050919050565b7f55736572206e616d652073686f756c64206e6f7420626520656d707479210000600082015250565b6000613d3f601e83613bd0565b9150613d4a82613d09565b602082019050919050565b60006020820190508181036000830152613d6e81613d32565b9050919050565b7f55736572206e6f74207265676973746572656421000000000000000000000000600082015250565b6000613dab601483613bd0565b9150613db682613d75565b602082019050919050565b60006020820190508181036000830152613dda81613d9e565b9050919050565b7f4e487b7100000000000000000000000000000000000000000000000000000000600052601160045260246000fd5b6000613e1b82613521565b91507fffffffffffffffffffffffffffffffffffffffffffffffffffffffffffffffff821415613e4e57613e4d613de1565b5b600182019050919050565b7f4e487b7100000000000000000000000000000000000000000000000000000000600052603260045260246000fd5b6000613e9382613521565b9150613e9e83613521565b925082821015613eb157613eb0613de1565b5b828203905092915050565b7f4e487b7100000000000000000000000000000000000000000000000000000000600052603160045260246000fd5b7f43726561746520616e206163636f756e74206669727374000000000000000000600082015250565b6000613f21601783613bd0565b9150613f2c82613eeb565b602082019050919050565b60006020820190508181036000830152613f5081613f14565b9050919050565b7f55736572206973206e6f74207265676973746572656421000000000000000000600082015250565b6000613f8d601783613bd0565b9150613f9882613f57565b602082019050919050565b60006020820190508181036000830152613fbc81613f80565b9050919050565b7f55736572732063616e6e6f7420616464207468656d6573656c7665732061732060008201527f667269656e647300000000000000000000000000000000000000000000000000602082015250565b600061401f602783613bd0565b915061402a82613fc3565b604082019050919050565b6000602082019050818103600083015261404e81614012565b9050919050565b7f54686573652075736572732061726520616c726561647920667269656e647300600082015250565b600061408b601f83613bd0565b915061409682614055565b602082019050919050565b600060208201905081810360008301526140ba8161407e565b905091905056fea26469706673582212202fb4ebe534abad64dcb1c2526c1fafbbd215153688260cbc7ca405fa7d3fc68564736f6c63430008090033",
  "linkReferences": {},
  "deployedLinkReferences": {}
}