{
  "_format": "hh-sol-artifact-1",
  "contractName": "Inscrible",
  "sourceName": "contracts/Inscrible.sol",
  "abi": [
    {
      "inputs": [
        {
          "internalType": "address",
          "name": "key",
          "type": "address"
        }
      ],
      "name": "checkUser",
      "outputs": [
        {
          "internalType": "bool",
          "name": "",
          "type": "bool"
        }
      ],
      "stateMutability": "view",
      "type": "function"
    },
    {
      "inputs": [
        {
          "internalType": "string",
          "name": "_username",
          "type": "string"
        }
      ],
      "name": "createAccount",
      "outputs": [],
      "stateMutability": "nonpayable",
      "type": "function"
    },
    {
      "inputs": [
        {
          "internalType": "address",
          "name": "key",
          "type": "address"
        }
      ],
      "name": "getUsername",
      "outputs": [
        {
          "internalType": "string",
          "name": "",
          "type": "string"
        }
      ],
      "stateMutability": "view",
      "type": "function"
    },
    {
      "stateMutability": "payable",
      "type": "receive"
    }
  ],
  "bytecode": "0x608060405234801561001057600080fd5b506109db806100206000396000f3fe6080604052600436106100385760003560e01c80631e9d48cf14610044578063298daf5b14610081578063ce43c032146100aa5761003f565b3661003f57005b600080fd5b34801561005057600080fd5b5061006b600480360381019061006691906105eb565b6100e7565b6040516100789190610633565b60405180910390f35b34801561008d57600080fd5b506100a860048036038101906100a391906106b3565b61019d565b005b3480156100b657600080fd5b506100d160048036038101906100cc91906105eb565b610387565b6040516100de9190610799565b60405180910390f35b600080600090505b600180549050811015610192578273ffffffffffffffffffffffffffffffffffffffff1660018281548110610127576101266107bb565b5b906000526020600020906002020160010160009054906101000a900473ffffffffffffffffffffffffffffffffffffffff1673ffffffffffffffffffffffffffffffffffffffff16141561017f576001915050610198565b808061018a90610823565b9150506100ef565b50600090505b919050565b600015156101aa336100e7565b1515146101ec576040517f08c379a00000000000000000000000000000000000000000000000000000000081526004016101e3906108b8565b60405180910390fd5b60008282905011610232576040517f08c379a000000000000000000000000000000000000000000000000000000000815260040161022990610924565b60405180910390fd5b81816000803373ffffffffffffffffffffffffffffffffffffffff1673ffffffffffffffffffffffffffffffffffffffff168152602001908152602001600020600001919061028292919061045a565b506001604051806040016040528084848080601f016020809104026020016040519081016040528093929190818152602001838380828437600081840152601f19601f8201169050808301925050505050505081526020013373ffffffffffffffffffffffffffffffffffffffff16815250908060018154018082558091505060019003906000526020600020906002020160009091909190915060008201518160000190805190602001906103399291906104e0565b5060208201518160010160006101000a81548173ffffffffffffffffffffffffffffffffffffffff021916908373ffffffffffffffffffffffffffffffffffffffff16021790555050505050565b60606000808373ffffffffffffffffffffffffffffffffffffffff1673ffffffffffffffffffffffffffffffffffffffff16815260200190815260200160002060000180546103d590610973565b80601f016020809104026020016040519081016040528092919081815260200182805461040190610973565b801561044e5780601f106104235761010080835404028352916020019161044e565b820191906000526020600020905b81548152906001019060200180831161043157829003601f168201915b50505050509050919050565b82805461046690610973565b90600052602060002090601f01602090048101928261048857600085556104cf565b82601f106104a157803560ff19168380011785556104cf565b828001600101855582156104cf579182015b828111156104ce5782358255916020019190600101906104b3565b5b5090506104dc9190610566565b5090565b8280546104ec90610973565b90600052602060002090601f01602090048101928261050e5760008555610555565b82601f1061052757805160ff1916838001178555610555565b82800160010185558215610555579182015b82811115610554578251825591602001919060010190610539565b5b5090506105629190610566565b5090565b5b8082111561057f576000816000905550600101610567565b5090565b600080fd5b600080fd5b600073ffffffffffffffffffffffffffffffffffffffff82169050919050565b60006105b88261058d565b9050919050565b6105c8816105ad565b81146105d357600080fd5b50565b6000813590506105e5816105bf565b92915050565b60006020828403121561060157610600610583565b5b600061060f848285016105d6565b91505092915050565b60008115159050919050565b61062d81610618565b82525050565b60006020820190506106486000830184610624565b92915050565b600080fd5b600080fd5b600080fd5b60008083601f8401126106735761067261064e565b5b8235905067ffffffffffffffff8111156106905761068f610653565b5b6020830191508360018202830111156106ac576106ab610658565b5b9250929050565b600080602083850312156106ca576106c9610583565b5b600083013567ffffffffffffffff8111156106e8576106e7610588565b5b6106f48582860161065d565b92509250509250929050565b600081519050919050565b600082825260208201905092915050565b60005b8381101561073a57808201518184015260208101905061071f565b83811115610749576000848401525b50505050565b6000601f19601f8301169050919050565b600061076b82610700565b610775818561070b565b935061078581856020860161071c565b61078e8161074f565b840191505092915050565b600060208201905081810360008301526107b38184610760565b905092915050565b7f4e487b7100000000000000000000000000000000000000000000000000000000600052603260045260246000fd5b7f4e487b7100000000000000000000000000000000000000000000000000000000600052601160045260246000fd5b6000819050919050565b600061082e82610819565b91507fffffffffffffffffffffffffffffffffffffffffffffffffffffffffffffffff821415610861576108606107ea565b5b600182019050919050565b7f5573657220616c726564792068617320616e206163636f756e74210000000000600082015250565b60006108a2601b8361070b565b91506108ad8261086c565b602082019050919050565b600060208201905081810360008301526108d181610895565b9050919050565b7f55736572206e616d652073686f756c64206e6f7420626520656d707479210000600082015250565b600061090e601e8361070b565b9150610919826108d8565b602082019050919050565b6000602082019050818103600083015261093d81610901565b9050919050565b7f4e487b7100000000000000000000000000000000000000000000000000000000600052602260045260246000fd5b6000600282049050600182168061098b57607f821691505b6020821081141561099f5761099e610944565b5b5091905056fea264697066735822122016254b522f2b237e5cc72638d5522c9441e41b60f8701e73c194976ea3a0383e64736f6c63430008090033",
  "linkReferences": {},
  "deployedLinkReferences": {}
}