{
  "_format": "hh-sol-artifact-1",
  "contractName": "Inscrible",
  "sourceName": "contracts/Inscrible.sol",
  "abi": [
    {
      "inputs": [
        {
          "internalType": "address",
          "name": "friend_key",
          "type": "address"
        },
        {
          "internalType": "string",
          "name": "name",
          "type": "string"
        }
      ],
      "name": "addFriend",
      "outputs": [],
      "stateMutability": "nonpayable",
      "type": "function"
    },
    {
      "inputs": [
        {
          "internalType": "string",
          "name": "_imgHash",
          "type": "string"
        },
        {
          "internalType": "string",
          "name": "desc",
          "type": "string"
        },
        {
          "internalType": "string",
          "name": "imgText",
          "type": "string"
        }
      ],
      "name": "addPostImage",
      "outputs": [],
      "stateMutability": "nonpayable",
      "type": "function"
    },
    {
      "inputs": [
        {
          "internalType": "address",
          "name": "key",
          "type": "address"
        }
      ],
      "name": "checkUser",
      "outputs": [
        {
          "internalType": "bool",
          "name": "",
          "type": "bool"
        }
      ],
      "stateMutability": "view",
      "type": "function"
    },
    {
      "inputs": [
        {
          "internalType": "string",
          "name": "_username",
          "type": "string"
        }
      ],
      "name": "createAccount",
      "outputs": [],
      "stateMutability": "nonpayable",
      "type": "function"
    },
    {
      "inputs": [],
      "name": "getAllAppUser",
      "outputs": [
        {
          "components": [
            {
              "internalType": "string",
              "name": "username",
              "type": "string"
            },
            {
              "internalType": "address",
              "name": "accountAddress",
              "type": "address"
            }
          ],
          "internalType": "struct Inscrible.AllUserStruck[]",
          "name": "",
          "type": "tuple[]"
        }
      ],
      "stateMutability": "view",
      "type": "function"
    },
    {
      "inputs": [],
      "name": "getAllPosts",
      "outputs": [
        {
          "components": [
            {
              "internalType": "string",
              "name": "createrName",
              "type": "string"
            },
            {
              "internalType": "address payable",
              "name": "userAddress",
              "type": "address"
            },
            {
              "internalType": "string",
              "name": "imageHash",
              "type": "string"
            },
            {
              "internalType": "string",
              "name": "caption",
              "type": "string"
            },
            {
              "internalType": "string",
              "name": "imageText",
              "type": "string"
            },
            {
              "internalType": "uint256",
              "name": "tipAmount",
              "type": "uint256"
            },
            {
              "internalType": "uint256",
              "name": "id",
              "type": "uint256"
            },
            {
              "internalType": "uint256",
              "name": "likeCount",
              "type": "uint256"
            },
            {
              "internalType": "string[]",
              "name": "likedByUser",
              "type": "string[]"
            }
          ],
          "internalType": "struct Inscrible.Post[]",
          "name": "",
          "type": "tuple[]"
        }
      ],
      "stateMutability": "view",
      "type": "function"
    },
    {
      "inputs": [],
      "name": "getMyFriendList",
      "outputs": [
        {
          "components": [
            {
              "internalType": "address",
              "name": "pubkey",
              "type": "address"
            },
            {
              "internalType": "string",
              "name": "name",
              "type": "string"
            }
          ],
          "internalType": "struct Inscrible.friend[]",
          "name": "",
          "type": "tuple[]"
        }
      ],
      "stateMutability": "view",
      "type": "function"
    },
    {
      "inputs": [
        {
          "internalType": "address",
          "name": "key",
          "type": "address"
        }
      ],
      "name": "getSingleUserLatestPost",
      "outputs": [
        {
          "components": [
            {
              "internalType": "string",
              "name": "createrName",
              "type": "string"
            },
            {
              "internalType": "address payable",
              "name": "userAddress",
              "type": "address"
            },
            {
              "internalType": "string",
              "name": "imageHash",
              "type": "string"
            },
            {
              "internalType": "string",
              "name": "caption",
              "type": "string"
            },
            {
              "internalType": "string",
              "name": "imageText",
              "type": "string"
            },
            {
              "internalType": "uint256",
              "name": "tipAmount",
              "type": "uint256"
            },
            {
              "internalType": "uint256",
              "name": "id",
              "type": "uint256"
            },
            {
              "internalType": "uint256",
              "name": "likeCount",
              "type": "uint256"
            },
            {
              "internalType": "string[]",
              "name": "likedByUser",
              "type": "string[]"
            }
          ],
          "internalType": "struct Inscrible.Post",
          "name": "",
          "type": "tuple"
        }
      ],
      "stateMutability": "view",
      "type": "function"
    },
    {
      "inputs": [
        {
          "internalType": "address",
          "name": "key",
          "type": "address"
        }
      ],
      "name": "getSingleUserPost",
      "outputs": [
        {
          "components": [
            {
              "internalType": "string",
              "name": "createrName",
              "type": "string"
            },
            {
              "internalType": "address payable",
              "name": "userAddress",
              "type": "address"
            },
            {
              "internalType": "string",
              "name": "imageHash",
              "type": "string"
            },
            {
              "internalType": "string",
              "name": "caption",
              "type": "string"
            },
            {
              "internalType": "string",
              "name": "imageText",
              "type": "string"
            },
            {
              "internalType": "uint256",
              "name": "tipAmount",
              "type": "uint256"
            },
            {
              "internalType": "uint256",
              "name": "id",
              "type": "uint256"
            },
            {
              "internalType": "uint256",
              "name": "likeCount",
              "type": "uint256"
            },
            {
              "internalType": "string[]",
              "name": "likedByUser",
              "type": "string[]"
            }
          ],
          "internalType": "struct Inscrible.Post[]",
          "name": "",
          "type": "tuple[]"
        }
      ],
      "stateMutability": "view",
      "type": "function"
    },
    {
      "inputs": [
        {
          "internalType": "address",
          "name": "key",
          "type": "address"
        }
      ],
      "name": "getUsername",
      "outputs": [
        {
          "internalType": "string",
          "name": "",
          "type": "string"
        }
      ],
      "stateMutability": "view",
      "type": "function"
    },
    {
      "inputs": [
        {
          "internalType": "address",
          "name": "friendAddress",
          "type": "address"
        }
      ],
      "name": "removeFriend",
      "outputs": [],
      "stateMutability": "nonpayable",
      "type": "function"
    },
    {
      "stateMutability": "payable",
      "type": "receive"
    }
  ],
  "bytecode": "0x6080604052600060015534801561001557600080fd5b506135a1806100256000396000f3fe6080604052600436106100a05760003560e01c8063734ee8e511610064578063734ee8e51461018f57806380cee8a5146101cc578063a24d41de146101f5578063bd0f4d0d14610220578063ce43c0321461024b578063f111439814610288576100a7565b80631e9d48cf146100ac578063298daf5b146100e957806330561100146101125780633b9f708d1461013d57806359737a5414610166576100a7565b366100a757005b600080fd5b3480156100b857600080fd5b506100d360048036038101906100ce9190612680565b6102c5565b6040516100e091906126c8565b60405180910390f35b3480156100f557600080fd5b50610110600480360381019061010b9190612748565b610337565b005b34801561011e57600080fd5b50610127610522565b6040516101349190612acd565b60405180910390f35b34801561014957600080fd5b50610164600480360381019061015f9190612aef565b610917565b005b34801561017257600080fd5b5061018d60048036038101906101889190612c7f565b610b8f565b005b34801561019b57600080fd5b506101b660048036038101906101b19190612680565b611000565b6040516101c39190612e07565b60405180910390f35b3480156101d857600080fd5b506101f360048036038101906101ee9190612680565b61145d565b005b34801561020157600080fd5b5061020a6117da565b6040516102179190612f37565b60405180910390f35b34801561022c57600080fd5b50610235611921565b6040516102429190613058565b60405180910390f35b34801561025757600080fd5b50610272600480360381019061026d9190612680565b611aa8565b60405161027f91906130c4565b60405180910390f35b34801561029457600080fd5b506102af60048036038101906102aa9190612680565b611b7c565b6040516102bc9190612acd565b60405180910390f35b600080600080549050111561032d576000600260008473ffffffffffffffffffffffffffffffffffffffff1673ffffffffffffffffffffffffffffffffffffffff168152602001908152602001600020600001805461032390613115565b9050119050610332565b600090505b919050565b60001515610344336102c5565b151514610386576040517f08c379a000000000000000000000000000000000000000000000000000000000815260040161037d90613193565b60405180910390fd5b600082829050116103cc576040517f08c379a00000000000000000000000000000000000000000000000000000000081526004016103c3906131ff565b60405180910390fd5b8181600260003373ffffffffffffffffffffffffffffffffffffffff1673ffffffffffffffffffffffffffffffffffffffff168152602001908152602001600020600001919061041d929190612332565b506000604051806040016040528084848080601f016020809104026020016040519081016040528093929190818152602001838380828437600081840152601f19601f8201169050808301925050505050505081526020013373ffffffffffffffffffffffffffffffffffffffff16815250908060018154018082558091505060019003906000526020600020906002020160009091909190915060008201518160000190805190602001906104d49291906123b8565b5060208201518160010160006101000a81548173ffffffffffffffffffffffffffffffffffffffff021916908373ffffffffffffffffffffffffffffffffffffffff16021790555050505050565b60606004805480602002602001604051908101604052809291908181526020016000905b8282101561090e57838290600052602060002090600902016040518061012001604052908160008201805461057a90613115565b80601f01602080910402602001604051908101604052809291908181526020018280546105a690613115565b80156105f35780601f106105c8576101008083540402835291602001916105f3565b820191906000526020600020905b8154815290600101906020018083116105d657829003601f168201915b505050505081526020016001820160009054906101000a900473ffffffffffffffffffffffffffffffffffffffff1673ffffffffffffffffffffffffffffffffffffffff1673ffffffffffffffffffffffffffffffffffffffff16815260200160028201805461066290613115565b80601f016020809104026020016040519081016040528092919081815260200182805461068e90613115565b80156106db5780601f106106b0576101008083540402835291602001916106db565b820191906000526020600020905b8154815290600101906020018083116106be57829003601f168201915b505050505081526020016003820180546106f490613115565b80601f016020809104026020016040519081016040528092919081815260200182805461072090613115565b801561076d5780601f106107425761010080835404028352916020019161076d565b820191906000526020600020905b81548152906001019060200180831161075057829003601f168201915b5050505050815260200160048201805461078690613115565b80601f01602080910402602001604051908101604052809291908181526020018280546107b290613115565b80156107ff5780601f106107d4576101008083540402835291602001916107ff565b820191906000526020600020905b8154815290600101906020018083116107e257829003601f168201915b5050505050815260200160058201548152602001600682015481526020016007820154815260200160088201805480602002602001604051908101604052809291908181526020016000905b828210156108f757838290600052602060002001805461086a90613115565b80601f016020809104026020016040519081016040528092919081815260200182805461089690613115565b80156108e35780601f106108b8576101008083540402835291602001916108e3565b820191906000526020600020905b8154815290600101906020018083116108c657829003601f168201915b50505050508152602001906001019061084b565b505050508152505081526020019060010190610546565b50505050905090565b610920336102c5565b61095f576040517f08c379a00000000000000000000000000000000000000000000000000000000081526004016109569061326b565b60405180910390fd5b610968836102c5565b6109a7576040517f08c379a000000000000000000000000000000000000000000000000000000000815260040161099e906132d7565b60405180910390fd5b8273ffffffffffffffffffffffffffffffffffffffff163373ffffffffffffffffffffffffffffffffffffffff161415610a16576040517f08c379a0000000000000000000000000000000000000000000000000000000008152600401610a0d90613369565b60405180910390fd5b60001515610a243385612058565b151514610a66576040517f08c379a0000000000000000000000000000000000000000000000000000000008152600401610a5d906133d5565b60405180910390fd5b610ab5338484848080601f016020809104026020016040519081016040528093929190818152602001838380828437600081840152601f19601f8201169050808301925050505050505061222b565b610b8a8333600260003373ffffffffffffffffffffffffffffffffffffffff1673ffffffffffffffffffffffffffffffffffffffff1681526020019081526020016000206000018054610b0790613115565b80601f0160208091040260200160405190810160405280929190818152602001828054610b3390613115565b8015610b805780601f10610b5557610100808354040283529160200191610b80565b820191906000526020600020905b815481529060010190602001808311610b6357829003601f168201915b505050505061222b565b505050565b610b98336102c5565b610bd7576040517f08c379a0000000000000000000000000000000000000000000000000000000008152600401610bce90613441565b60405180910390fd5b6000835111610be557600080fd5b60016000815480929190610bf890613490565b91905055506000604051806101200160405280600260003373ffffffffffffffffffffffffffffffffffffffff1673ffffffffffffffffffffffffffffffffffffffff1681526020019081526020016000206000018054610c5890613115565b80601f0160208091040260200160405190810160405280929190818152602001828054610c8490613115565b8015610cd15780601f10610ca657610100808354040283529160200191610cd1565b820191906000526020600020905b815481529060010190602001808311610cb457829003601f168201915b505050505081526020013373ffffffffffffffffffffffffffffffffffffffff16815260200185815260200184815260200183815260200160008152602001600154815260200160008152602001600067ffffffffffffffff811115610d3a57610d39612b54565b5b604051908082528060200260200182016040528015610d6d57816020015b6060815260200190600190039081610d585790505b508152509050600360003373ffffffffffffffffffffffffffffffffffffffff1673ffffffffffffffffffffffffffffffffffffffff1681526020019081526020016000208190806001815401808255809150506001900390600052602060002090600902016000909190919091506000820151816000019080519060200190610df89291906123b8565b5060208201518160010160006101000a81548173ffffffffffffffffffffffffffffffffffffffff021916908373ffffffffffffffffffffffffffffffffffffffff1602179055506040820151816002019080519060200190610e5c9291906123b8565b506060820151816003019080519060200190610e799291906123b8565b506080820151816004019080519060200190610e969291906123b8565b5060a0820151816005015560c0820151816006015560e08201518160070155610100820151816008019080519060200190610ed292919061243e565b50505060048190806001815401808255809150506001900390600052602060002090600902016000909190919091506000820151816000019080519060200190610f1d9291906123b8565b5060208201518160010160006101000a81548173ffffffffffffffffffffffffffffffffffffffff021916908373ffffffffffffffffffffffffffffffffffffffff1602179055506040820151816002019080519060200190610f819291906123b8565b506060820151816003019080519060200190610f9e9291906123b8565b506080820151816004019080519060200190610fbb9291906123b8565b5060a0820151816005015560c0820151816006015560e08201518160070155610100820151816008019080519060200190610ff792919061243e565b50505050505050565b61100861249e565b600360008373ffffffffffffffffffffffffffffffffffffffff1673ffffffffffffffffffffffffffffffffffffffff1681526020019081526020016000206001600360008573ffffffffffffffffffffffffffffffffffffffff1673ffffffffffffffffffffffffffffffffffffffff1681526020019081526020016000208054905061109691906134d9565b815481106110a7576110a661350d565b5b9060005260206000209060090201604051806101200160405290816000820180546110d190613115565b80601f01602080910402602001604051908101604052809291908181526020018280546110fd90613115565b801561114a5780601f1061111f5761010080835404028352916020019161114a565b820191906000526020600020905b81548152906001019060200180831161112d57829003601f168201915b505050505081526020016001820160009054906101000a900473ffffffffffffffffffffffffffffffffffffffff1673ffffffffffffffffffffffffffffffffffffffff1673ffffffffffffffffffffffffffffffffffffffff1681526020016002820180546111b990613115565b80601f01602080910402602001604051908101604052809291908181526020018280546111e590613115565b80156112325780601f1061120757610100808354040283529160200191611232565b820191906000526020600020905b81548152906001019060200180831161121557829003601f168201915b5050505050815260200160038201805461124b90613115565b80601f016020809104026020016040519081016040528092919081815260200182805461127790613115565b80156112c45780601f10611299576101008083540402835291602001916112c4565b820191906000526020600020905b8154815290600101906020018083116112a757829003601f168201915b505050505081526020016004820180546112dd90613115565b80601f016020809104026020016040519081016040528092919081815260200182805461130990613115565b80156113565780601f1061132b57610100808354040283529160200191611356565b820191906000526020600020905b81548152906001019060200180831161133957829003601f168201915b5050505050815260200160058201548152602001600682015481526020016007820154815260200160088201805480602002602001604051908101604052809291908181526020016000905b8282101561144e5783829060005260206000200180546113c190613115565b80601f01602080910402602001604051908101604052809291908181526020018280546113ed90613115565b801561143a5780601f1061140f5761010080835404028352916020019161143a565b820191906000526020600020905b81548152906001019060200180831161141d57829003601f168201915b5050505050815260200190600101906113a2565b50505050815250509050919050565b6000806000905060005b600260003373ffffffffffffffffffffffffffffffffffffffff1673ffffffffffffffffffffffffffffffffffffffff1681526020019081526020016000206001018054905081101561158c578373ffffffffffffffffffffffffffffffffffffffff16600260003373ffffffffffffffffffffffffffffffffffffffff1673ffffffffffffffffffffffffffffffffffffffff168152602001908152602001600020600101828154811061151f5761151e61350d565b5b906000526020600020906002020160000160009054906101000a900473ffffffffffffffffffffffffffffffffffffffff1673ffffffffffffffffffffffffffffffffffffffff161415611579578092506001915061158c565b808061158490613490565b915050611467565b5080156117d557600260003373ffffffffffffffffffffffffffffffffffffffff1673ffffffffffffffffffffffffffffffffffffffff1681526020019081526020016000206001016001600260003373ffffffffffffffffffffffffffffffffffffffff1673ffffffffffffffffffffffffffffffffffffffff1681526020019081526020016000206001018054905061162791906134d9565b815481106116385761163761350d565b5b9060005260206000209060020201600260003373ffffffffffffffffffffffffffffffffffffffff1673ffffffffffffffffffffffffffffffffffffffff168152602001908152602001600020600101838154811061169a5761169961350d565b5b90600052602060002090600202016000820160009054906101000a900473ffffffffffffffffffffffffffffffffffffffff168160000160006101000a81548173ffffffffffffffffffffffffffffffffffffffff021916908373ffffffffffffffffffffffffffffffffffffffff160217905550600182018160010190805461172390613115565b61172e929190612500565b50905050600260003373ffffffffffffffffffffffffffffffffffffffff1673ffffffffffffffffffffffffffffffffffffffff1681526020019081526020016000206001018054806117845761178361353c565b5b6001900381819060005260206000209060020201600080820160006101000a81549073ffffffffffffffffffffffffffffffffffffffff02191690556001820160006117d0919061258d565b505090555b505050565b60606000805480602002602001604051908101604052809291908181526020016000905b82821015611918578382906000526020600020906002020160405180604001604052908160008201805461183190613115565b80601f016020809104026020016040519081016040528092919081815260200182805461185d90613115565b80156118aa5780601f1061187f576101008083540402835291602001916118aa565b820191906000526020600020905b81548152906001019060200180831161188d57829003601f168201915b505050505081526020016001820160009054906101000a900473ffffffffffffffffffffffffffffffffffffffff1673ffffffffffffffffffffffffffffffffffffffff1673ffffffffffffffffffffffffffffffffffffffff1681525050815260200190600101906117fe565b50505050905090565b6060600260003373ffffffffffffffffffffffffffffffffffffffff1673ffffffffffffffffffffffffffffffffffffffff168152602001908152602001600020600101805480602002602001604051908101604052809291908181526020016000905b82821015611a9f57838290600052602060002090600202016040518060400160405290816000820160009054906101000a900473ffffffffffffffffffffffffffffffffffffffff1673ffffffffffffffffffffffffffffffffffffffff1673ffffffffffffffffffffffffffffffffffffffff168152602001600182018054611a0e90613115565b80601f0160208091040260200160405190810160405280929190818152602001828054611a3a90613115565b8015611a875780601f10611a5c57610100808354040283529160200191611a87565b820191906000526020600020905b815481529060010190602001808311611a6a57829003601f168201915b50505050508152505081526020019060010190611985565b50505050905090565b6060600260008373ffffffffffffffffffffffffffffffffffffffff1673ffffffffffffffffffffffffffffffffffffffff1681526020019081526020016000206000018054611af790613115565b80601f0160208091040260200160405190810160405280929190818152602001828054611b2390613115565b8015611b705780601f10611b4557610100808354040283529160200191611b70565b820191906000526020600020905b815481529060010190602001808311611b5357829003601f168201915b50505050509050919050565b60606000600360008473ffffffffffffffffffffffffffffffffffffffff1673ffffffffffffffffffffffffffffffffffffffff168152602001908152602001600020805490501115611ffb57600360008373ffffffffffffffffffffffffffffffffffffffff1673ffffffffffffffffffffffffffffffffffffffff168152602001908152602001600020805480602002602001604051908101604052809291908181526020016000905b82821015611ff0578382906000526020600020906009020160405180610120016040529081600082018054611c5c90613115565b80601f0160208091040260200160405190810160405280929190818152602001828054611c8890613115565b8015611cd55780601f10611caa57610100808354040283529160200191611cd5565b820191906000526020600020905b815481529060010190602001808311611cb857829003601f168201915b505050505081526020016001820160009054906101000a900473ffffffffffffffffffffffffffffffffffffffff1673ffffffffffffffffffffffffffffffffffffffff1673ffffffffffffffffffffffffffffffffffffffff168152602001600282018054611d4490613115565b80601f0160208091040260200160405190810160405280929190818152602001828054611d7090613115565b8015611dbd5780601f10611d9257610100808354040283529160200191611dbd565b820191906000526020600020905b815481529060010190602001808311611da057829003601f168201915b50505050508152602001600382018054611dd690613115565b80601f0160208091040260200160405190810160405280929190818152602001828054611e0290613115565b8015611e4f5780601f10611e2457610100808354040283529160200191611e4f565b820191906000526020600020905b815481529060010190602001808311611e3257829003601f168201915b50505050508152602001600482018054611e6890613115565b80601f0160208091040260200160405190810160405280929190818152602001828054611e9490613115565b8015611ee15780601f10611eb657610100808354040283529160200191611ee1565b820191906000526020600020905b815481529060010190602001808311611ec457829003601f168201915b5050505050815260200160058201548152602001600682015481526020016007820154815260200160088201805480602002602001604051908101604052809291908181526020016000905b82821015611fd9578382906000526020600020018054611f4c90613115565b80601f0160208091040260200160405190810160405280929190818152602001828054611f7890613115565b8015611fc55780601f10611f9a57610100808354040283529160200191611fc5565b820191906000526020600020905b815481529060010190602001808311611fa857829003601f168201915b505050505081526020019060010190611f2d565b505050508152505081526020019060010190611c28565b505050509050612053565b600067ffffffffffffffff81111561201657612015612b54565b5b60405190808252806020026020018201604052801561204f57816020015b61203c61249e565b8152602001906001900390816120345790505b5090505b919050565b6000600260008373ffffffffffffffffffffffffffffffffffffffff1673ffffffffffffffffffffffffffffffffffffffff16815260200190815260200160002060010180549050600260008573ffffffffffffffffffffffffffffffffffffffff1673ffffffffffffffffffffffffffffffffffffffff1681526020019081526020016000206001018054905011156120f9576000839050829350809250505b60005b600260008573ffffffffffffffffffffffffffffffffffffffff1673ffffffffffffffffffffffffffffffffffffffff1681526020019081526020016000206001018054905081101561221f578273ffffffffffffffffffffffffffffffffffffffff16600260008673ffffffffffffffffffffffffffffffffffffffff1673ffffffffffffffffffffffffffffffffffffffff16815260200190815260200160002060010182815481106121b4576121b361350d565b5b906000526020600020906002020160000160009054906101000a900473ffffffffffffffffffffffffffffffffffffffff1673ffffffffffffffffffffffffffffffffffffffff16141561220c576001915050612225565b808061221790613490565b9150506120fc565b50600090505b92915050565b600060405180604001604052808473ffffffffffffffffffffffffffffffffffffffff168152602001838152509050600260008573ffffffffffffffffffffffffffffffffffffffff1673ffffffffffffffffffffffffffffffffffffffff16815260200190815260200160002060010181908060018154018082558091505060019003906000526020600020906002020160009091909190915060008201518160000160006101000a81548173ffffffffffffffffffffffffffffffffffffffff021916908373ffffffffffffffffffffffffffffffffffffffff16021790555060208201518160010190805190602001906123299291906123b8565b50505050505050565b82805461233e90613115565b90600052602060002090601f01602090048101928261236057600085556123a7565b82601f1061237957803560ff19168380011785556123a7565b828001600101855582156123a7579182015b828111156123a657823582559160200191906001019061238b565b5b5090506123b491906125cd565b5090565b8280546123c490613115565b90600052602060002090601f0160209004810192826123e6576000855561242d565b82601f106123ff57805160ff191683800117855561242d565b8280016001018555821561242d579182015b8281111561242c578251825591602001919060010190612411565b5b50905061243a91906125cd565b5090565b82805482825590600052602060002090810192821561248d579160200282015b8281111561248c57825182908051906020019061247c9291906123b8565b509160200191906001019061245e565b5b50905061249a91906125ea565b5090565b60405180610120016040528060608152602001600073ffffffffffffffffffffffffffffffffffffffff168152602001606081526020016060815260200160608152602001600081526020016000815260200160008152602001606081525090565b82805461250c90613115565b90600052602060002090601f01602090048101928261252e576000855561257c565b82601f1061253f578054855561257c565b8280016001018555821561257c57600052602060002091601f016020900482015b8281111561257b578254825591600101919060010190612560565b5b50905061258991906125cd565b5090565b50805461259990613115565b6000825580601f106125ab57506125ca565b601f0160209004906000526020600020908101906125c991906125cd565b5b50565b5b808211156125e65760008160009055506001016125ce565b5090565b5b8082111561260a5760008181612601919061258d565b506001016125eb565b5090565b6000604051905090565b600080fd5b600080fd5b600073ffffffffffffffffffffffffffffffffffffffff82169050919050565b600061264d82612622565b9050919050565b61265d81612642565b811461266857600080fd5b50565b60008135905061267a81612654565b92915050565b60006020828403121561269657612695612618565b5b60006126a48482850161266b565b91505092915050565b60008115159050919050565b6126c2816126ad565b82525050565b60006020820190506126dd60008301846126b9565b92915050565b600080fd5b600080fd5b600080fd5b60008083601f840112612708576127076126e3565b5b8235905067ffffffffffffffff811115612725576127246126e8565b5b602083019150836001820283011115612741576127406126ed565b5b9250929050565b6000806020838503121561275f5761275e612618565b5b600083013567ffffffffffffffff81111561277d5761277c61261d565b5b612789858286016126f2565b92509250509250929050565b600081519050919050565b600082825260208201905092915050565b6000819050602082019050919050565b600081519050919050565b600082825260208201905092915050565b60005b838110156127fb5780820151818401526020810190506127e0565b8381111561280a576000848401525b50505050565b6000601f19601f8301169050919050565b600061282c826127c1565b61283681856127cc565b93506128468185602086016127dd565b61284f81612810565b840191505092915050565b600061286582612622565b9050919050565b6128758161285a565b82525050565b6000819050919050565b61288e8161287b565b82525050565b600081519050919050565b600082825260208201905092915050565b6000819050602082019050919050565b60006128cc8383612821565b905092915050565b6000602082019050919050565b60006128ec82612894565b6128f6818561289f565b935083602082028501612908856128b0565b8060005b85811015612944578484038952815161292585826128c0565b9450612930836128d4565b925060208a0199505060018101905061290c565b50829750879550505050505092915050565b60006101208301600083015184820360008601526129748282612821565b9150506020830151612989602086018261286c565b50604083015184820360408601526129a18282612821565b915050606083015184820360608601526129bb8282612821565b915050608083015184820360808601526129d58282612821565b91505060a08301516129ea60a0860182612885565b5060c08301516129fd60c0860182612885565b5060e0830151612a1060e0860182612885565b50610100830151848203610100860152612a2a82826128e1565b9150508091505092915050565b6000612a438383612956565b905092915050565b6000602082019050919050565b6000612a6382612795565b612a6d81856127a0565b935083602082028501612a7f856127b1565b8060005b85811015612abb5784840389528151612a9c8582612a37565b9450612aa783612a4b565b925060208a01995050600181019050612a83565b50829750879550505050505092915050565b60006020820190508181036000830152612ae78184612a58565b905092915050565b600080600060408486031215612b0857612b07612618565b5b6000612b168682870161266b565b935050602084013567ffffffffffffffff811115612b3757612b3661261d565b5b612b43868287016126f2565b92509250509250925092565b600080fd5b7f4e487b7100000000000000000000000000000000000000000000000000000000600052604160045260246000fd5b612b8c82612810565b810181811067ffffffffffffffff82111715612bab57612baa612b54565b5b80604052505050565b6000612bbe61260e565b9050612bca8282612b83565b919050565b600067ffffffffffffffff821115612bea57612be9612b54565b5b612bf382612810565b9050602081019050919050565b82818337600083830152505050565b6000612c22612c1d84612bcf565b612bb4565b905082815260208101848484011115612c3e57612c3d612b4f565b5b612c49848285612c00565b509392505050565b600082601f830112612c6657612c656126e3565b5b8135612c76848260208601612c0f565b91505092915050565b600080600060608486031215612c9857612c97612618565b5b600084013567ffffffffffffffff811115612cb657612cb561261d565b5b612cc286828701612c51565b935050602084013567ffffffffffffffff811115612ce357612ce261261d565b5b612cef86828701612c51565b925050604084013567ffffffffffffffff811115612d1057612d0f61261d565b5b612d1c86828701612c51565b9150509250925092565b6000610120830160008301518482036000860152612d448282612821565b9150506020830151612d59602086018261286c565b5060408301518482036040860152612d718282612821565b91505060608301518482036060860152612d8b8282612821565b91505060808301518482036080860152612da58282612821565b91505060a0830151612dba60a0860182612885565b5060c0830151612dcd60c0860182612885565b5060e0830151612de060e0860182612885565b50610100830151848203610100860152612dfa82826128e1565b9150508091505092915050565b60006020820190508181036000830152612e218184612d26565b905092915050565b600081519050919050565b600082825260208201905092915050565b6000819050602082019050919050565b612e5e81612642565b82525050565b60006040830160008301518482036000860152612e818282612821565b9150506020830151612e966020860182612e55565b508091505092915050565b6000612ead8383612e64565b905092915050565b6000602082019050919050565b6000612ecd82612e29565b612ed78185612e34565b935083602082028501612ee985612e45565b8060005b85811015612f255784840389528151612f068582612ea1565b9450612f1183612eb5565b925060208a01995050600181019050612eed565b50829750879550505050505092915050565b60006020820190508181036000830152612f518184612ec2565b905092915050565b600081519050919050565b600082825260208201905092915050565b6000819050602082019050919050565b6000604083016000830151612f9d6000860182612e55565b5060208301518482036020860152612fb58282612821565b9150508091505092915050565b6000612fce8383612f85565b905092915050565b6000602082019050919050565b6000612fee82612f59565b612ff88185612f64565b93508360208202850161300a85612f75565b8060005b8581101561304657848403895281516130278582612fc2565b945061303283612fd6565b925060208a0199505060018101905061300e565b50829750879550505050505092915050565b600060208201905081810360008301526130728184612fe3565b905092915050565b600082825260208201905092915050565b6000613096826127c1565b6130a0818561307a565b93506130b08185602086016127dd565b6130b981612810565b840191505092915050565b600060208201905081810360008301526130de818461308b565b905092915050565b7f4e487b7100000000000000000000000000000000000000000000000000000000600052602260045260246000fd5b6000600282049050600182168061312d57607f821691505b60208210811415613141576131406130e6565b5b50919050565b7f5573657220616c726564792068617320616e206163636f756e74210000000000600082015250565b600061317d601b8361307a565b915061318882613147565b602082019050919050565b600060208201905081810360008301526131ac81613170565b9050919050565b7f55736572206e616d652073686f756c64206e6f7420626520656d707479210000600082015250565b60006131e9601e8361307a565b91506131f4826131b3565b602082019050919050565b60006020820190508181036000830152613218816131dc565b9050919050565b7f43726561746520616e206163636f756e74206669727374000000000000000000600082015250565b600061325560178361307a565b91506132608261321f565b602082019050919050565b6000602082019050818103600083015261328481613248565b9050919050565b7f55736572206973206e6f74207265676973746572656421000000000000000000600082015250565b60006132c160178361307a565b91506132cc8261328b565b602082019050919050565b600060208201905081810360008301526132f0816132b4565b9050919050565b7f55736572732063616e6e6f7420616464207468656d6573656c7665732061732060008201527f667269656e647300000000000000000000000000000000000000000000000000602082015250565b600061335360278361307a565b915061335e826132f7565b604082019050919050565b6000602082019050818103600083015261338281613346565b9050919050565b7f54686573652075736572732061726520616c726561647920667269656e647300600082015250565b60006133bf601f8361307a565b91506133ca82613389565b602082019050919050565b600060208201905081810360008301526133ee816133b2565b9050919050565b7f55736572206e6f74207265676973746572656421000000000000000000000000600082015250565b600061342b60148361307a565b9150613436826133f5565b602082019050919050565b6000602082019050818103600083015261345a8161341e565b9050919050565b7f4e487b7100000000000000000000000000000000000000000000000000000000600052601160045260246000fd5b600061349b8261287b565b91507fffffffffffffffffffffffffffffffffffffffffffffffffffffffffffffffff8214156134ce576134cd613461565b5b600182019050919050565b60006134e48261287b565b91506134ef8361287b565b92508282101561350257613501613461565b5b828203905092915050565b7f4e487b7100000000000000000000000000000000000000000000000000000000600052603260045260246000fd5b7f4e487b7100000000000000000000000000000000000000000000000000000000600052603160045260246000fdfea26469706673582212204477127143ea3e9504bee3c2b7c2627df70ec356a305f3d99f0ef2eb28889e1864736f6c63430008090033",
  "linkReferences": {},
  "deployedLinkReferences": {}
}