{
  "_format": "hh-sol-artifact-1",
  "contractName": "Inscrible",
  "sourceName": "contracts/Inscrible.sol",
  "abi": [
    {
      "inputs": [
        {
          "internalType": "address",
          "name": "friend_key",
          "type": "address"
        }
      ],
      "name": "addFriend",
      "outputs": [],
      "stateMutability": "nonpayable",
      "type": "function"
    },
    {
      "inputs": [
        {
          "internalType": "string",
          "name": "_imgHash",
          "type": "string"
        },
        {
          "internalType": "string",
          "name": "desc",
          "type": "string"
        },
        {
          "internalType": "string",
          "name": "imgText",
          "type": "string"
        }
      ],
      "name": "addPostImage",
      "outputs": [],
      "stateMutability": "nonpayable",
      "type": "function"
    },
    {
      "inputs": [
        {
          "internalType": "address",
          "name": "key",
          "type": "address"
        }
      ],
      "name": "checkUser",
      "outputs": [
        {
          "internalType": "bool",
          "name": "",
          "type": "bool"
        }
      ],
      "stateMutability": "view",
      "type": "function"
    },
    {
      "inputs": [
        {
          "internalType": "string",
          "name": "_username",
          "type": "string"
        }
      ],
      "name": "createAccount",
      "outputs": [],
      "stateMutability": "nonpayable",
      "type": "function"
    },
    {
      "inputs": [],
      "name": "getAllAppUser",
      "outputs": [
        {
          "components": [
            {
              "internalType": "string",
              "name": "username",
              "type": "string"
            },
            {
              "internalType": "address",
              "name": "accountAddress",
              "type": "address"
            }
          ],
          "internalType": "struct Inscrible.AllUserStruck[]",
          "name": "",
          "type": "tuple[]"
        }
      ],
      "stateMutability": "view",
      "type": "function"
    },
    {
      "inputs": [],
      "name": "getAllPosts",
      "outputs": [
        {
          "components": [
            {
              "internalType": "string",
              "name": "createrName",
              "type": "string"
            },
            {
              "internalType": "address payable",
              "name": "userAddress",
              "type": "address"
            },
            {
              "internalType": "string",
              "name": "imageHash",
              "type": "string"
            },
            {
              "internalType": "string",
              "name": "caption",
              "type": "string"
            },
            {
              "internalType": "string",
              "name": "imageText",
              "type": "string"
            },
            {
              "internalType": "uint256",
              "name": "tipAmount",
              "type": "uint256"
            },
            {
              "internalType": "uint256",
              "name": "id",
              "type": "uint256"
            },
            {
              "internalType": "uint256",
              "name": "likeCount",
              "type": "uint256"
            },
            {
              "internalType": "string[]",
              "name": "likedByUser",
              "type": "string[]"
            }
          ],
          "internalType": "struct Inscrible.Post[]",
          "name": "",
          "type": "tuple[]"
        }
      ],
      "stateMutability": "view",
      "type": "function"
    },
    {
      "inputs": [],
      "name": "getMyFriendList",
      "outputs": [
        {
          "components": [
            {
              "internalType": "address",
              "name": "pubkey",
              "type": "address"
            },
            {
              "internalType": "string",
              "name": "name",
              "type": "string"
            }
          ],
          "internalType": "struct Inscrible.friend[]",
          "name": "",
          "type": "tuple[]"
        }
      ],
      "stateMutability": "view",
      "type": "function"
    },
    {
      "inputs": [
        {
          "internalType": "address",
          "name": "key",
          "type": "address"
        }
      ],
      "name": "getSingleUserLatestPost",
      "outputs": [
        {
          "components": [
            {
              "internalType": "string",
              "name": "createrName",
              "type": "string"
            },
            {
              "internalType": "address payable",
              "name": "userAddress",
              "type": "address"
            },
            {
              "internalType": "string",
              "name": "imageHash",
              "type": "string"
            },
            {
              "internalType": "string",
              "name": "caption",
              "type": "string"
            },
            {
              "internalType": "string",
              "name": "imageText",
              "type": "string"
            },
            {
              "internalType": "uint256",
              "name": "tipAmount",
              "type": "uint256"
            },
            {
              "internalType": "uint256",
              "name": "id",
              "type": "uint256"
            },
            {
              "internalType": "uint256",
              "name": "likeCount",
              "type": "uint256"
            },
            {
              "internalType": "string[]",
              "name": "likedByUser",
              "type": "string[]"
            }
          ],
          "internalType": "struct Inscrible.Post",
          "name": "",
          "type": "tuple"
        }
      ],
      "stateMutability": "view",
      "type": "function"
    },
    {
      "inputs": [
        {
          "internalType": "address",
          "name": "key",
          "type": "address"
        }
      ],
      "name": "getSingleUserPost",
      "outputs": [
        {
          "components": [
            {
              "internalType": "string",
              "name": "createrName",
              "type": "string"
            },
            {
              "internalType": "address payable",
              "name": "userAddress",
              "type": "address"
            },
            {
              "internalType": "string",
              "name": "imageHash",
              "type": "string"
            },
            {
              "internalType": "string",
              "name": "caption",
              "type": "string"
            },
            {
              "internalType": "string",
              "name": "imageText",
              "type": "string"
            },
            {
              "internalType": "uint256",
              "name": "tipAmount",
              "type": "uint256"
            },
            {
              "internalType": "uint256",
              "name": "id",
              "type": "uint256"
            },
            {
              "internalType": "uint256",
              "name": "likeCount",
              "type": "uint256"
            },
            {
              "internalType": "string[]",
              "name": "likedByUser",
              "type": "string[]"
            }
          ],
          "internalType": "struct Inscrible.Post[]",
          "name": "",
          "type": "tuple[]"
        }
      ],
      "stateMutability": "view",
      "type": "function"
    },
    {
      "inputs": [
        {
          "internalType": "address",
          "name": "key",
          "type": "address"
        }
      ],
      "name": "getUsername",
      "outputs": [
        {
          "internalType": "string",
          "name": "",
          "type": "string"
        }
      ],
      "stateMutability": "view",
      "type": "function"
    },
    {
      "inputs": [
        {
          "internalType": "address",
          "name": "friendAddress",
          "type": "address"
        }
      ],
      "name": "removeFriend",
      "outputs": [],
      "stateMutability": "nonpayable",
      "type": "function"
    },
    {
      "stateMutability": "payable",
      "type": "receive"
    }
  ],
  "bytecode": "0x6080604052600060015534801561001557600080fd5b50613954806100256000396000f3fe6080604052600436106100a05760003560e01c806380cee8a51161006457806380cee8a5146101a3578063a24d41de146101cc578063bd0f4d0d146101f7578063ce43c03214610222578063d7a1cfe11461025f578063f111439814610288576100a7565b80631e9d48cf146100ac578063298daf5b146100e9578063305611001461011257806359737a541461013d578063734ee8e514610166576100a7565b366100a757005b600080fd5b3480156100b857600080fd5b506100d360048036038101906100ce9190612a93565b6102c5565b6040516100e09190612adb565b60405180910390f35b3480156100f557600080fd5b50610110600480360381019061010b9190612b5b565b610337565b005b34801561011e57600080fd5b50610127610522565b6040516101349190612ee0565b60405180910390f35b34801561014957600080fd5b50610164600480360381019061015f9190613032565b610917565b005b34801561017257600080fd5b5061018d60048036038101906101889190612a93565b610fd6565b60405161019a91906131ba565b60405180910390f35b3480156101af57600080fd5b506101ca60048036038101906101c59190612a93565b611433565b005b3480156101d857600080fd5b506101e16117b0565b6040516101ee91906132ea565b60405180910390f35b34801561020357600080fd5b5061020c6118f7565b604051610219919061340b565b60405180910390f35b34801561022e57600080fd5b5061024960048036038101906102449190612a93565b611a7e565b6040516102569190613477565b60405180910390f35b34801561026b57600080fd5b5061028660048036038101906102819190612a93565b611b52565b005b34801561029457600080fd5b506102af60048036038101906102aa9190612a93565b611fc4565b6040516102bc9190612ee0565b60405180910390f35b600080600080549050111561032d576000600360008473ffffffffffffffffffffffffffffffffffffffff1673ffffffffffffffffffffffffffffffffffffffff1681526020019081526020016000206000018054610323906134c8565b9050119050610332565b600090505b919050565b60001515610344336102c5565b151514610386576040517f08c379a000000000000000000000000000000000000000000000000000000000815260040161037d90613546565b60405180910390fd5b600082829050116103cc576040517f08c379a00000000000000000000000000000000000000000000000000000000081526004016103c3906135b2565b60405180910390fd5b8181600360003373ffffffffffffffffffffffffffffffffffffffff1673ffffffffffffffffffffffffffffffffffffffff168152602001908152602001600020600001919061041d9291906126dd565b506000604051806040016040528084848080601f016020809104026020016040519081016040528093929190818152602001838380828437600081840152601f19601f8201169050808301925050505050505081526020013373ffffffffffffffffffffffffffffffffffffffff16815250908060018154018082558091505060019003906000526020600020906002020160009091909190915060008201518160000190805190602001906104d4929190612763565b5060208201518160010160006101000a81548173ffffffffffffffffffffffffffffffffffffffff021916908373ffffffffffffffffffffffffffffffffffffffff16021790555050505050565b60606005805480602002602001604051908101604052809291908181526020016000905b8282101561090e57838290600052602060002090600902016040518061012001604052908160008201805461057a906134c8565b80601f01602080910402602001604051908101604052809291908181526020018280546105a6906134c8565b80156105f35780601f106105c8576101008083540402835291602001916105f3565b820191906000526020600020905b8154815290600101906020018083116105d657829003601f168201915b505050505081526020016001820160009054906101000a900473ffffffffffffffffffffffffffffffffffffffff1673ffffffffffffffffffffffffffffffffffffffff1673ffffffffffffffffffffffffffffffffffffffff168152602001600282018054610662906134c8565b80601f016020809104026020016040519081016040528092919081815260200182805461068e906134c8565b80156106db5780601f106106b0576101008083540402835291602001916106db565b820191906000526020600020905b8154815290600101906020018083116106be57829003601f168201915b505050505081526020016003820180546106f4906134c8565b80601f0160208091040260200160405190810160405280929190818152602001828054610720906134c8565b801561076d5780601f106107425761010080835404028352916020019161076d565b820191906000526020600020905b81548152906001019060200180831161075057829003601f168201915b50505050508152602001600482018054610786906134c8565b80601f01602080910402602001604051908101604052809291908181526020018280546107b2906134c8565b80156107ff5780601f106107d4576101008083540402835291602001916107ff565b820191906000526020600020905b8154815290600101906020018083116107e257829003601f168201915b5050505050815260200160058201548152602001600682015481526020016007820154815260200160088201805480602002602001604051908101604052809291908181526020016000905b828210156108f757838290600052602060002001805461086a906134c8565b80601f0160208091040260200160405190810160405280929190818152602001828054610896906134c8565b80156108e35780601f106108b8576101008083540402835291602001916108e3565b820191906000526020600020905b8154815290600101906020018083116108c657829003601f168201915b50505050508152602001906001019061084b565b505050508152505081526020019060010190610546565b50505050905090565b610920336102c5565b61095f576040517f08c379a00000000000000000000000000000000000000000000000000000000081526004016109569061361e565b60405180910390fd5b600083511161096d57600080fd5b600160008154809291906109809061366d565b91905055506000604051806101200160405280600360003373ffffffffffffffffffffffffffffffffffffffff1673ffffffffffffffffffffffffffffffffffffffff16815260200190815260200160002060000180546109e0906134c8565b80601f0160208091040260200160405190810160405280929190818152602001828054610a0c906134c8565b8015610a595780601f10610a2e57610100808354040283529160200191610a59565b820191906000526020600020905b815481529060010190602001808311610a3c57829003601f168201915b505050505081526020013373ffffffffffffffffffffffffffffffffffffffff16815260200185815260200184815260200183815260200160008152602001600154815260200160008152602001600067ffffffffffffffff811115610ac257610ac1612f07565b5b604051908082528060200260200182016040528015610af557816020015b6060815260200190600190039081610ae05790505b50815250905060005b600360003373ffffffffffffffffffffffffffffffffffffffff1673ffffffffffffffffffffffffffffffffffffffff16815260200190815260200160002060010180549050811015610d455760046000600360003373ffffffffffffffffffffffffffffffffffffffff1673ffffffffffffffffffffffffffffffffffffffff1681526020019081526020016000206001018381548110610ba357610ba26136b6565b5b906000526020600020906002020160000160009054906101000a900473ffffffffffffffffffffffffffffffffffffffff1673ffffffffffffffffffffffffffffffffffffffff1673ffffffffffffffffffffffffffffffffffffffff1681526020019081526020016000208290806001815401808255809150506001900390600052602060002090600902016000909190919091506000820151816000019080519060200190610c55929190612763565b5060208201518160010160006101000a81548173ffffffffffffffffffffffffffffffffffffffff021916908373ffffffffffffffffffffffffffffffffffffffff1602179055506040820151816002019080519060200190610cb9929190612763565b506060820151816003019080519060200190610cd6929190612763565b506080820151816004019080519060200190610cf3929190612763565b5060a0820151816005015560c0820151816006015560e08201518160070155610100820151816008019080519060200190610d2f9291906127e9565b5050508080610d3d9061366d565b915050610afe565b50600360003373ffffffffffffffffffffffffffffffffffffffff1673ffffffffffffffffffffffffffffffffffffffff1681526020019081526020016000206002018190806001815401808255809150506001900390600052602060002090600902016000909190919091506000820151816000019080519060200190610dce929190612763565b5060208201518160010160006101000a81548173ffffffffffffffffffffffffffffffffffffffff021916908373ffffffffffffffffffffffffffffffffffffffff1602179055506040820151816002019080519060200190610e32929190612763565b506060820151816003019080519060200190610e4f929190612763565b506080820151816004019080519060200190610e6c929190612763565b5060a0820151816005015560c0820151816006015560e08201518160070155610100820151816008019080519060200190610ea89291906127e9565b50505060058190806001815401808255809150506001900390600052602060002090600902016000909190919091506000820151816000019080519060200190610ef3929190612763565b5060208201518160010160006101000a81548173ffffffffffffffffffffffffffffffffffffffff021916908373ffffffffffffffffffffffffffffffffffffffff1602179055506040820151816002019080519060200190610f57929190612763565b506060820151816003019080519060200190610f74929190612763565b506080820151816004019080519060200190610f91929190612763565b5060a0820151816005015560c0820151816006015560e08201518160070155610100820151816008019080519060200190610fcd9291906127e9565b50505050505050565b610fde612849565b600460008373ffffffffffffffffffffffffffffffffffffffff1673ffffffffffffffffffffffffffffffffffffffff1681526020019081526020016000206001600460008573ffffffffffffffffffffffffffffffffffffffff1673ffffffffffffffffffffffffffffffffffffffff1681526020019081526020016000208054905061106c91906136e5565b8154811061107d5761107c6136b6565b5b9060005260206000209060090201604051806101200160405290816000820180546110a7906134c8565b80601f01602080910402602001604051908101604052809291908181526020018280546110d3906134c8565b80156111205780601f106110f557610100808354040283529160200191611120565b820191906000526020600020905b81548152906001019060200180831161110357829003601f168201915b505050505081526020016001820160009054906101000a900473ffffffffffffffffffffffffffffffffffffffff1673ffffffffffffffffffffffffffffffffffffffff1673ffffffffffffffffffffffffffffffffffffffff16815260200160028201805461118f906134c8565b80601f01602080910402602001604051908101604052809291908181526020018280546111bb906134c8565b80156112085780601f106111dd57610100808354040283529160200191611208565b820191906000526020600020905b8154815290600101906020018083116111eb57829003601f168201915b50505050508152602001600382018054611221906134c8565b80601f016020809104026020016040519081016040528092919081815260200182805461124d906134c8565b801561129a5780601f1061126f5761010080835404028352916020019161129a565b820191906000526020600020905b81548152906001019060200180831161127d57829003601f168201915b505050505081526020016004820180546112b3906134c8565b80601f01602080910402602001604051908101604052809291908181526020018280546112df906134c8565b801561132c5780601f106113015761010080835404028352916020019161132c565b820191906000526020600020905b81548152906001019060200180831161130f57829003601f168201915b5050505050815260200160058201548152602001600682015481526020016007820154815260200160088201805480602002602001604051908101604052809291908181526020016000905b82821015611424578382906000526020600020018054611397906134c8565b80601f01602080910402602001604051908101604052809291908181526020018280546113c3906134c8565b80156114105780601f106113e557610100808354040283529160200191611410565b820191906000526020600020905b8154815290600101906020018083116113f357829003601f168201915b505050505081526020019060010190611378565b50505050815250509050919050565b6000806000905060005b600360003373ffffffffffffffffffffffffffffffffffffffff1673ffffffffffffffffffffffffffffffffffffffff16815260200190815260200160002060010180549050811015611562578373ffffffffffffffffffffffffffffffffffffffff16600360003373ffffffffffffffffffffffffffffffffffffffff1673ffffffffffffffffffffffffffffffffffffffff16815260200190815260200160002060010182815481106114f5576114f46136b6565b5b906000526020600020906002020160000160009054906101000a900473ffffffffffffffffffffffffffffffffffffffff1673ffffffffffffffffffffffffffffffffffffffff16141561154f5780925060019150611562565b808061155a9061366d565b91505061143d565b5080156117ab57600360003373ffffffffffffffffffffffffffffffffffffffff1673ffffffffffffffffffffffffffffffffffffffff1681526020019081526020016000206001016001600360003373ffffffffffffffffffffffffffffffffffffffff1673ffffffffffffffffffffffffffffffffffffffff168152602001908152602001600020600101805490506115fd91906136e5565b8154811061160e5761160d6136b6565b5b9060005260206000209060020201600360003373ffffffffffffffffffffffffffffffffffffffff1673ffffffffffffffffffffffffffffffffffffffff16815260200190815260200160002060010183815481106116705761166f6136b6565b5b90600052602060002090600202016000820160009054906101000a900473ffffffffffffffffffffffffffffffffffffffff168160000160006101000a81548173ffffffffffffffffffffffffffffffffffffffff021916908373ffffffffffffffffffffffffffffffffffffffff16021790555060018201816001019080546116f9906134c8565b6117049291906128ab565b50905050600360003373ffffffffffffffffffffffffffffffffffffffff1673ffffffffffffffffffffffffffffffffffffffff16815260200190815260200160002060010180548061175a57611759613719565b5b6001900381819060005260206000209060020201600080820160006101000a81549073ffffffffffffffffffffffffffffffffffffffff02191690556001820160006117a69190612938565b505090555b505050565b60606000805480602002602001604051908101604052809291908181526020016000905b828210156118ee5783829060005260206000209060020201604051806040016040529081600082018054611807906134c8565b80601f0160208091040260200160405190810160405280929190818152602001828054611833906134c8565b80156118805780601f1061185557610100808354040283529160200191611880565b820191906000526020600020905b81548152906001019060200180831161186357829003601f168201915b505050505081526020016001820160009054906101000a900473ffffffffffffffffffffffffffffffffffffffff1673ffffffffffffffffffffffffffffffffffffffff1673ffffffffffffffffffffffffffffffffffffffff1681525050815260200190600101906117d4565b50505050905090565b6060600360003373ffffffffffffffffffffffffffffffffffffffff1673ffffffffffffffffffffffffffffffffffffffff168152602001908152602001600020600101805480602002602001604051908101604052809291908181526020016000905b82821015611a7557838290600052602060002090600202016040518060400160405290816000820160009054906101000a900473ffffffffffffffffffffffffffffffffffffffff1673ffffffffffffffffffffffffffffffffffffffff1673ffffffffffffffffffffffffffffffffffffffff1681526020016001820180546119e4906134c8565b80601f0160208091040260200160405190810160405280929190818152602001828054611a10906134c8565b8015611a5d5780601f10611a3257610100808354040283529160200191611a5d565b820191906000526020600020905b815481529060010190602001808311611a4057829003601f168201915b5050505050815250508152602001906001019061195b565b50505050905090565b6060600360008373ffffffffffffffffffffffffffffffffffffffff1673ffffffffffffffffffffffffffffffffffffffff1681526020019081526020016000206000018054611acd906134c8565b80601f0160208091040260200160405190810160405280929190818152602001828054611af9906134c8565b8015611b465780601f10611b1b57610100808354040283529160200191611b46565b820191906000526020600020905b815481529060010190602001808311611b2957829003601f168201915b50505050509050919050565b611b5b336102c5565b611b9a576040517f08c379a0000000000000000000000000000000000000000000000000000000008152600401611b9190613794565b60405180910390fd5b611ba3816102c5565b611be2576040517f08c379a0000000000000000000000000000000000000000000000000000000008152600401611bd990613800565b60405180910390fd5b8073ffffffffffffffffffffffffffffffffffffffff163373ffffffffffffffffffffffffffffffffffffffff161415611c51576040517f08c379a0000000000000000000000000000000000000000000000000000000008152600401611c4890613892565b60405180910390fd5b60001515611c5e826124a0565b151514611ca0576040517f08c379a0000000000000000000000000000000000000000000000000000000008152600401611c97906138fe565b60405180910390fd5b611d758133600360003373ffffffffffffffffffffffffffffffffffffffff1673ffffffffffffffffffffffffffffffffffffffff1681526020019081526020016000206000018054611cf2906134c8565b80601f0160208091040260200160405190810160405280929190818152602001828054611d1e906134c8565b8015611d6b5780601f10611d4057610100808354040283529160200191611d6b565b820191906000526020600020905b815481529060010190602001808311611d4e57829003601f168201915b50505050506125d6565b60005b600360008373ffffffffffffffffffffffffffffffffffffffff1673ffffffffffffffffffffffffffffffffffffffff16815260200190815260200160002060020180549050811015611fc057600460003373ffffffffffffffffffffffffffffffffffffffff1673ffffffffffffffffffffffffffffffffffffffff168152602001908152602001600020600360008473ffffffffffffffffffffffffffffffffffffffff1673ffffffffffffffffffffffffffffffffffffffff1681526020019081526020016000206002018281548110611e5857611e576136b6565b5b906000526020600020906009020190806001815401808255809150506001900390600052602060002090600902016000909190919091506000820181600001908054611ea3906134c8565b611eae9291906128ab565b506001820160009054906101000a900473ffffffffffffffffffffffffffffffffffffffff168160010160006101000a81548173ffffffffffffffffffffffffffffffffffffffff021916908373ffffffffffffffffffffffffffffffffffffffff1602179055506002820181600201908054611f2a906134c8565b611f359291906128ab565b506003820181600301908054611f4a906134c8565b611f559291906128ab565b506004820181600401908054611f6a906134c8565b611f759291906128ab565b506005820154816005015560068201548160060155600782015481600701556008820181600801908054611faa929190612978565b5050508080611fb89061366d565b915050611d78565b5050565b60606000600460008473ffffffffffffffffffffffffffffffffffffffff1673ffffffffffffffffffffffffffffffffffffffff16815260200190815260200160002080549050111561244357600460008373ffffffffffffffffffffffffffffffffffffffff1673ffffffffffffffffffffffffffffffffffffffff168152602001908152602001600020805480602002602001604051908101604052809291908181526020016000905b828210156124385783829060005260206000209060090201604051806101200160405290816000820180546120a4906134c8565b80601f01602080910402602001604051908101604052809291908181526020018280546120d0906134c8565b801561211d5780601f106120f25761010080835404028352916020019161211d565b820191906000526020600020905b81548152906001019060200180831161210057829003601f168201915b505050505081526020016001820160009054906101000a900473ffffffffffffffffffffffffffffffffffffffff1673ffffffffffffffffffffffffffffffffffffffff1673ffffffffffffffffffffffffffffffffffffffff16815260200160028201805461218c906134c8565b80601f01602080910402602001604051908101604052809291908181526020018280546121b8906134c8565b80156122055780601f106121da57610100808354040283529160200191612205565b820191906000526020600020905b8154815290600101906020018083116121e857829003601f168201915b5050505050815260200160038201805461221e906134c8565b80601f016020809104026020016040519081016040528092919081815260200182805461224a906134c8565b80156122975780601f1061226c57610100808354040283529160200191612297565b820191906000526020600020905b81548152906001019060200180831161227a57829003601f168201915b505050505081526020016004820180546122b0906134c8565b80601f01602080910402602001604051908101604052809291908181526020018280546122dc906134c8565b80156123295780601f106122fe57610100808354040283529160200191612329565b820191906000526020600020905b81548152906001019060200180831161230c57829003601f168201915b5050505050815260200160058201548152602001600682015481526020016007820154815260200160088201805480602002602001604051908101604052809291908181526020016000905b82821015612421578382906000526020600020018054612394906134c8565b80601f01602080910402602001604051908101604052809291908181526020018280546123c0906134c8565b801561240d5780601f106123e25761010080835404028352916020019161240d565b820191906000526020600020905b8154815290600101906020018083116123f057829003601f168201915b505050505081526020019060010190612375565b505050508152505081526020019060010190612070565b50505050905061249b565b600067ffffffffffffffff81111561245e5761245d612f07565b5b60405190808252806020026020018201604052801561249757816020015b612484612849565b81526020019060019003908161247c5790505b5090505b919050565b600080600090505b600360003373ffffffffffffffffffffffffffffffffffffffff1673ffffffffffffffffffffffffffffffffffffffff168152602001908152602001600020600101805490508110156125cb578273ffffffffffffffffffffffffffffffffffffffff16600360003373ffffffffffffffffffffffffffffffffffffffff1673ffffffffffffffffffffffffffffffffffffffff16815260200190815260200160002060010182815481106125605761255f6136b6565b5b906000526020600020906002020160000160009054906101000a900473ffffffffffffffffffffffffffffffffffffffff1673ffffffffffffffffffffffffffffffffffffffff1614156125b85760019150506125d1565b80806125c39061366d565b9150506124a8565b50600090505b919050565b600060405180604001604052808473ffffffffffffffffffffffffffffffffffffffff168152602001838152509050600360008573ffffffffffffffffffffffffffffffffffffffff1673ffffffffffffffffffffffffffffffffffffffff16815260200190815260200160002060010181908060018154018082558091505060019003906000526020600020906002020160009091909190915060008201518160000160006101000a81548173ffffffffffffffffffffffffffffffffffffffff021916908373ffffffffffffffffffffffffffffffffffffffff16021790555060208201518160010190805190602001906126d4929190612763565b50505050505050565b8280546126e9906134c8565b90600052602060002090601f01602090048101928261270b5760008555612752565b82601f1061272457803560ff1916838001178555612752565b82800160010185558215612752579182015b82811115612751578235825591602001919060010190612736565b5b50905061275f91906129e0565b5090565b82805461276f906134c8565b90600052602060002090601f01602090048101928261279157600085556127d8565b82601f106127aa57805160ff19168380011785556127d8565b828001600101855582156127d8579182015b828111156127d75782518255916020019190600101906127bc565b5b5090506127e591906129e0565b5090565b828054828255906000526020600020908101928215612838579160200282015b82811115612837578251829080519060200190612827929190612763565b5091602001919060010190612809565b5b50905061284591906129fd565b5090565b60405180610120016040528060608152602001600073ffffffffffffffffffffffffffffffffffffffff168152602001606081526020016060815260200160608152602001600081526020016000815260200160008152602001606081525090565b8280546128b7906134c8565b90600052602060002090601f0160209004810192826128d95760008555612927565b82601f106128ea5780548555612927565b8280016001018555821561292757600052602060002091601f016020900482015b8281111561292657825482559160010191906001019061290b565b5b50905061293491906129e0565b5090565b508054612944906134c8565b6000825580601f106129565750612975565b601f01602090049060005260206000209081019061297491906129e0565b5b50565b8280548282559060005260206000209081019282156129cf5760005260206000209182015b828111156129ce5782829080546129b3906134c8565b6129be9291906128ab565b509160010191906001019061299d565b5b5090506129dc91906129fd565b5090565b5b808211156129f95760008160009055506001016129e1565b5090565b5b80821115612a1d5760008181612a149190612938565b506001016129fe565b5090565b6000604051905090565b600080fd5b600080fd5b600073ffffffffffffffffffffffffffffffffffffffff82169050919050565b6000612a6082612a35565b9050919050565b612a7081612a55565b8114612a7b57600080fd5b50565b600081359050612a8d81612a67565b92915050565b600060208284031215612aa957612aa8612a2b565b5b6000612ab784828501612a7e565b91505092915050565b60008115159050919050565b612ad581612ac0565b82525050565b6000602082019050612af06000830184612acc565b92915050565b600080fd5b600080fd5b600080fd5b60008083601f840112612b1b57612b1a612af6565b5b8235905067ffffffffffffffff811115612b3857612b37612afb565b5b602083019150836001820283011115612b5457612b53612b00565b5b9250929050565b60008060208385031215612b7257612b71612a2b565b5b600083013567ffffffffffffffff811115612b9057612b8f612a30565b5b612b9c85828601612b05565b92509250509250929050565b600081519050919050565b600082825260208201905092915050565b6000819050602082019050919050565b600081519050919050565b600082825260208201905092915050565b60005b83811015612c0e578082015181840152602081019050612bf3565b83811115612c1d576000848401525b50505050565b6000601f19601f8301169050919050565b6000612c3f82612bd4565b612c498185612bdf565b9350612c59818560208601612bf0565b612c6281612c23565b840191505092915050565b6000612c7882612a35565b9050919050565b612c8881612c6d565b82525050565b6000819050919050565b612ca181612c8e565b82525050565b600081519050919050565b600082825260208201905092915050565b6000819050602082019050919050565b6000612cdf8383612c34565b905092915050565b6000602082019050919050565b6000612cff82612ca7565b612d098185612cb2565b935083602082028501612d1b85612cc3565b8060005b85811015612d575784840389528151612d388582612cd3565b9450612d4383612ce7565b925060208a01995050600181019050612d1f565b50829750879550505050505092915050565b6000610120830160008301518482036000860152612d878282612c34565b9150506020830151612d9c6020860182612c7f565b5060408301518482036040860152612db48282612c34565b91505060608301518482036060860152612dce8282612c34565b91505060808301518482036080860152612de88282612c34565b91505060a0830151612dfd60a0860182612c98565b5060c0830151612e1060c0860182612c98565b5060e0830151612e2360e0860182612c98565b50610100830151848203610100860152612e3d8282612cf4565b9150508091505092915050565b6000612e568383612d69565b905092915050565b6000602082019050919050565b6000612e7682612ba8565b612e808185612bb3565b935083602082028501612e9285612bc4565b8060005b85811015612ece5784840389528151612eaf8582612e4a565b9450612eba83612e5e565b925060208a01995050600181019050612e96565b50829750879550505050505092915050565b60006020820190508181036000830152612efa8184612e6b565b905092915050565b600080fd5b7f4e487b7100000000000000000000000000000000000000000000000000000000600052604160045260246000fd5b612f3f82612c23565b810181811067ffffffffffffffff82111715612f5e57612f5d612f07565b5b80604052505050565b6000612f71612a21565b9050612f7d8282612f36565b919050565b600067ffffffffffffffff821115612f9d57612f9c612f07565b5b612fa682612c23565b9050602081019050919050565b82818337600083830152505050565b6000612fd5612fd084612f82565b612f67565b905082815260208101848484011115612ff157612ff0612f02565b5b612ffc848285612fb3565b509392505050565b600082601f83011261301957613018612af6565b5b8135613029848260208601612fc2565b91505092915050565b60008060006060848603121561304b5761304a612a2b565b5b600084013567ffffffffffffffff81111561306957613068612a30565b5b61307586828701613004565b935050602084013567ffffffffffffffff81111561309657613095612a30565b5b6130a286828701613004565b925050604084013567ffffffffffffffff8111156130c3576130c2612a30565b5b6130cf86828701613004565b9150509250925092565b60006101208301600083015184820360008601526130f78282612c34565b915050602083015161310c6020860182612c7f565b50604083015184820360408601526131248282612c34565b9150506060830151848203606086015261313e8282612c34565b915050608083015184820360808601526131588282612c34565b91505060a083015161316d60a0860182612c98565b5060c083015161318060c0860182612c98565b5060e083015161319360e0860182612c98565b506101008301518482036101008601526131ad8282612cf4565b9150508091505092915050565b600060208201905081810360008301526131d481846130d9565b905092915050565b600081519050919050565b600082825260208201905092915050565b6000819050602082019050919050565b61321181612a55565b82525050565b600060408301600083015184820360008601526132348282612c34565b91505060208301516132496020860182613208565b508091505092915050565b60006132608383613217565b905092915050565b6000602082019050919050565b6000613280826131dc565b61328a81856131e7565b93508360208202850161329c856131f8565b8060005b858110156132d857848403895281516132b98582613254565b94506132c483613268565b925060208a019950506001810190506132a0565b50829750879550505050505092915050565b600060208201905081810360008301526133048184613275565b905092915050565b600081519050919050565b600082825260208201905092915050565b6000819050602082019050919050565b60006040830160008301516133506000860182613208565b50602083015184820360208601526133688282612c34565b9150508091505092915050565b60006133818383613338565b905092915050565b6000602082019050919050565b60006133a18261330c565b6133ab8185613317565b9350836020820285016133bd85613328565b8060005b858110156133f957848403895281516133da8582613375565b94506133e583613389565b925060208a019950506001810190506133c1565b50829750879550505050505092915050565b600060208201905081810360008301526134258184613396565b905092915050565b600082825260208201905092915050565b600061344982612bd4565b613453818561342d565b9350613463818560208601612bf0565b61346c81612c23565b840191505092915050565b60006020820190508181036000830152613491818461343e565b905092915050565b7f4e487b7100000000000000000000000000000000000000000000000000000000600052602260045260246000fd5b600060028204905060018216806134e057607f821691505b602082108114156134f4576134f3613499565b5b50919050565b7f5573657220616c726564792068617320616e206163636f756e74210000000000600082015250565b6000613530601b8361342d565b915061353b826134fa565b602082019050919050565b6000602082019050818103600083015261355f81613523565b9050919050565b7f55736572206e616d652073686f756c64206e6f7420626520656d707479210000600082015250565b600061359c601e8361342d565b91506135a782613566565b602082019050919050565b600060208201905081810360008301526135cb8161358f565b9050919050565b7f55736572206e6f74207265676973746572656421000000000000000000000000600082015250565b600061360860148361342d565b9150613613826135d2565b602082019050919050565b60006020820190508181036000830152613637816135fb565b9050919050565b7f4e487b7100000000000000000000000000000000000000000000000000000000600052601160045260246000fd5b600061367882612c8e565b91507fffffffffffffffffffffffffffffffffffffffffffffffffffffffffffffffff8214156136ab576136aa61363e565b5b600182019050919050565b7f4e487b7100000000000000000000000000000000000000000000000000000000600052603260045260246000fd5b60006136f082612c8e565b91506136fb83612c8e565b92508282101561370e5761370d61363e565b5b828203905092915050565b7f4e487b7100000000000000000000000000000000000000000000000000000000600052603160045260246000fd5b7f43726561746520616e206163636f756e74206669727374000000000000000000600082015250565b600061377e60178361342d565b915061378982613748565b602082019050919050565b600060208201905081810360008301526137ad81613771565b9050919050565b7f55736572206973206e6f74207265676973746572656421000000000000000000600082015250565b60006137ea60178361342d565b91506137f5826137b4565b602082019050919050565b60006020820190508181036000830152613819816137dd565b9050919050565b7f55736572732063616e6e6f7420616464207468656d6573656c7665732061732060008201527f667269656e647300000000000000000000000000000000000000000000000000602082015250565b600061387c60278361342d565b915061388782613820565b604082019050919050565b600060208201905081810360008301526138ab8161386f565b9050919050565b7f54686573652075736572732061726520616c726561647920667269656e647300600082015250565b60006138e8601f8361342d565b91506138f3826138b2565b602082019050919050565b60006020820190508181036000830152613917816138db565b905091905056fea2646970667358221220d42dbfd13d74dba4ba7ae0c7ebc7a3d17bbcc6b36a7d1c1324fe11feb72001d164736f6c63430008090033",
  "linkReferences": {},
  "deployedLinkReferences": {}
}