{
  "_format": "hh-sol-artifact-1",
  "contractName": "Inscrible",
  "sourceName": "contracts/Inscrible.sol",
  "abi": [
    {
      "inputs": [
        {
          "internalType": "address",
          "name": "friend_key",
          "type": "address"
        },
        {
          "internalType": "string",
          "name": "name",
          "type": "string"
        }
      ],
      "name": "addFriend",
      "outputs": [],
      "stateMutability": "nonpayable",
      "type": "function"
    },
    {
      "inputs": [
        {
          "internalType": "string",
          "name": "_imgHash",
          "type": "string"
        },
        {
          "internalType": "string",
          "name": "desc",
          "type": "string"
        },
        {
          "internalType": "string",
          "name": "imgText",
          "type": "string"
        }
      ],
      "name": "addPostImage",
      "outputs": [],
      "stateMutability": "nonpayable",
      "type": "function"
    },
    {
      "inputs": [
        {
          "internalType": "address",
          "name": "sender_key",
          "type": "address"
        },
        {
          "internalType": "address",
          "name": "friend_key",
          "type": "address"
        }
      ],
      "name": "checkAlreadyFriends",
      "outputs": [
        {
          "internalType": "bool",
          "name": "",
          "type": "bool"
        }
      ],
      "stateMutability": "view",
      "type": "function"
    },
    {
      "inputs": [
        {
          "internalType": "address",
          "name": "key",
          "type": "address"
        }
      ],
      "name": "checkUser",
      "outputs": [
        {
          "internalType": "bool",
          "name": "",
          "type": "bool"
        }
      ],
      "stateMutability": "view",
      "type": "function"
    },
    {
      "inputs": [
        {
          "internalType": "string",
          "name": "_username",
          "type": "string"
        }
      ],
      "name": "createAccount",
      "outputs": [],
      "stateMutability": "nonpayable",
      "type": "function"
    },
    {
      "inputs": [],
      "name": "getAllAppUser",
      "outputs": [
        {
          "components": [
            {
              "internalType": "string",
              "name": "username",
              "type": "string"
            },
            {
              "internalType": "address",
              "name": "accountAddress",
              "type": "address"
            }
          ],
          "internalType": "struct Inscrible.AllUserStruck[]",
          "name": "",
          "type": "tuple[]"
        }
      ],
      "stateMutability": "view",
      "type": "function"
    },
    {
      "inputs": [],
      "name": "getAllPosts",
      "outputs": [
        {
          "components": [
            {
              "internalType": "string",
              "name": "createrName",
              "type": "string"
            },
            {
              "internalType": "address payable",
              "name": "userAddress",
              "type": "address"
            },
            {
              "internalType": "string",
              "name": "imageHash",
              "type": "string"
            },
            {
              "internalType": "string",
              "name": "caption",
              "type": "string"
            },
            {
              "internalType": "string",
              "name": "imageText",
              "type": "string"
            },
            {
              "internalType": "uint256",
              "name": "tipAmount",
              "type": "uint256"
            },
            {
              "internalType": "uint256",
              "name": "id",
              "type": "uint256"
            },
            {
              "internalType": "uint256",
              "name": "likeCount",
              "type": "uint256"
            },
            {
              "internalType": "string[]",
              "name": "likedByUser",
              "type": "string[]"
            }
          ],
          "internalType": "struct Inscrible.Post[]",
          "name": "",
          "type": "tuple[]"
        }
      ],
      "stateMutability": "view",
      "type": "function"
    },
    {
      "inputs": [],
      "name": "getMyFriendList",
      "outputs": [
        {
          "components": [
            {
              "internalType": "address",
              "name": "pubkey",
              "type": "address"
            },
            {
              "internalType": "string",
              "name": "name",
              "type": "string"
            }
          ],
          "internalType": "struct Inscrible.friend[]",
          "name": "",
          "type": "tuple[]"
        }
      ],
      "stateMutability": "view",
      "type": "function"
    },
    {
      "inputs": [
        {
          "internalType": "address",
          "name": "key",
          "type": "address"
        }
      ],
      "name": "getSingleUserLatestPost",
      "outputs": [
        {
          "components": [
            {
              "internalType": "string",
              "name": "createrName",
              "type": "string"
            },
            {
              "internalType": "address payable",
              "name": "userAddress",
              "type": "address"
            },
            {
              "internalType": "string",
              "name": "imageHash",
              "type": "string"
            },
            {
              "internalType": "string",
              "name": "caption",
              "type": "string"
            },
            {
              "internalType": "string",
              "name": "imageText",
              "type": "string"
            },
            {
              "internalType": "uint256",
              "name": "tipAmount",
              "type": "uint256"
            },
            {
              "internalType": "uint256",
              "name": "id",
              "type": "uint256"
            },
            {
              "internalType": "uint256",
              "name": "likeCount",
              "type": "uint256"
            },
            {
              "internalType": "string[]",
              "name": "likedByUser",
              "type": "string[]"
            }
          ],
          "internalType": "struct Inscrible.Post",
          "name": "",
          "type": "tuple"
        }
      ],
      "stateMutability": "view",
      "type": "function"
    },
    {
      "inputs": [
        {
          "internalType": "address",
          "name": "key",
          "type": "address"
        }
      ],
      "name": "getSingleUserPost",
      "outputs": [
        {
          "components": [
            {
              "internalType": "string",
              "name": "createrName",
              "type": "string"
            },
            {
              "internalType": "address payable",
              "name": "userAddress",
              "type": "address"
            },
            {
              "internalType": "string",
              "name": "imageHash",
              "type": "string"
            },
            {
              "internalType": "string",
              "name": "caption",
              "type": "string"
            },
            {
              "internalType": "string",
              "name": "imageText",
              "type": "string"
            },
            {
              "internalType": "uint256",
              "name": "tipAmount",
              "type": "uint256"
            },
            {
              "internalType": "uint256",
              "name": "id",
              "type": "uint256"
            },
            {
              "internalType": "uint256",
              "name": "likeCount",
              "type": "uint256"
            },
            {
              "internalType": "string[]",
              "name": "likedByUser",
              "type": "string[]"
            }
          ],
          "internalType": "struct Inscrible.Post[]",
          "name": "",
          "type": "tuple[]"
        }
      ],
      "stateMutability": "view",
      "type": "function"
    },
    {
      "inputs": [
        {
          "internalType": "address",
          "name": "key",
          "type": "address"
        }
      ],
      "name": "getUsername",
      "outputs": [
        {
          "internalType": "string",
          "name": "",
          "type": "string"
        }
      ],
      "stateMutability": "view",
      "type": "function"
    },
    {
      "inputs": [
        {
          "internalType": "address",
          "name": "friendAddress",
          "type": "address"
        }
      ],
      "name": "removeFriend",
      "outputs": [],
      "stateMutability": "nonpayable",
      "type": "function"
    },
    {
      "stateMutability": "payable",
      "type": "receive"
    }
  ],
  "bytecode": "0x6080604052600060015534801561001557600080fd5b506139ba806100256000396000f3fe6080604052600436106100ab5760003560e01c806380cee8a51161006457806380cee8a5146101d7578063a24d41de14610200578063b9a4134f1461022b578063bd0f4d0d14610268578063ce43c03214610293578063f1114398146102d0576100b2565b80631e9d48cf146100b7578063298daf5b146100f4578063305611001461011d5780633b9f708d1461014857806359737a5414610171578063734ee8e51461019a576100b2565b366100b257005b600080fd5b3480156100c357600080fd5b506100de60048036038101906100d99190612a59565b61030d565b6040516100eb9190612aa1565b60405180910390f35b34801561010057600080fd5b5061011b60048036038101906101169190612b21565b61037f565b005b34801561012957600080fd5b5061013261056a565b60405161013f9190612ea6565b60405180910390f35b34801561015457600080fd5b5061016f600480360381019061016a9190612ec8565b61095f565b005b34801561017d57600080fd5b5061019860048036038101906101939190613058565b610d4e565b005b3480156101a657600080fd5b506101c160048036038101906101bc9190612a59565b61140d565b6040516101ce91906131e0565b60405180910390f35b3480156101e357600080fd5b506101fe60048036038101906101f99190612a59565b61186a565b005b34801561020c57600080fd5b50610215611be7565b6040516102229190613310565b60405180910390f35b34801561023757600080fd5b50610252600480360381019061024d9190613332565b611d2e565b60405161025f9190612aa1565b60405180910390f35b34801561027457600080fd5b5061027d611e65565b60405161028a9190613471565b60405180910390f35b34801561029f57600080fd5b506102ba60048036038101906102b59190612a59565b611fec565b6040516102c791906134dd565b60405180910390f35b3480156102dc57600080fd5b506102f760048036038101906102f29190612a59565b6120c0565b6040516103049190612ea6565b60405180910390f35b6000806000805490501115610375576000600360008473ffffffffffffffffffffffffffffffffffffffff1673ffffffffffffffffffffffffffffffffffffffff168152602001908152602001600020600001805461036b9061352e565b905011905061037a565b600090505b919050565b6000151561038c3361030d565b1515146103ce576040517f08c379a00000000000000000000000000000000000000000000000000000000081526004016103c5906135ac565b60405180910390fd5b60008282905011610414576040517f08c379a000000000000000000000000000000000000000000000000000000000815260040161040b90613618565b60405180910390fd5b8181600360003373ffffffffffffffffffffffffffffffffffffffff1673ffffffffffffffffffffffffffffffffffffffff16815260200190815260200160002060000191906104659291906126a3565b506000604051806040016040528084848080601f016020809104026020016040519081016040528093929190818152602001838380828437600081840152601f19601f8201169050808301925050505050505081526020013373ffffffffffffffffffffffffffffffffffffffff168152509080600181540180825580915050600190039060005260206000209060020201600090919091909150600082015181600001908051906020019061051c929190612729565b5060208201518160010160006101000a81548173ffffffffffffffffffffffffffffffffffffffff021916908373ffffffffffffffffffffffffffffffffffffffff16021790555050505050565b60606005805480602002602001604051908101604052809291908181526020016000905b828210156109565783829060005260206000209060090201604051806101200160405290816000820180546105c29061352e565b80601f01602080910402602001604051908101604052809291908181526020018280546105ee9061352e565b801561063b5780601f106106105761010080835404028352916020019161063b565b820191906000526020600020905b81548152906001019060200180831161061e57829003601f168201915b505050505081526020016001820160009054906101000a900473ffffffffffffffffffffffffffffffffffffffff1673ffffffffffffffffffffffffffffffffffffffff1673ffffffffffffffffffffffffffffffffffffffff1681526020016002820180546106aa9061352e565b80601f01602080910402602001604051908101604052809291908181526020018280546106d69061352e565b80156107235780601f106106f857610100808354040283529160200191610723565b820191906000526020600020905b81548152906001019060200180831161070657829003601f168201915b5050505050815260200160038201805461073c9061352e565b80601f01602080910402602001604051908101604052809291908181526020018280546107689061352e565b80156107b55780601f1061078a576101008083540402835291602001916107b5565b820191906000526020600020905b81548152906001019060200180831161079857829003601f168201915b505050505081526020016004820180546107ce9061352e565b80601f01602080910402602001604051908101604052809291908181526020018280546107fa9061352e565b80156108475780601f1061081c57610100808354040283529160200191610847565b820191906000526020600020905b81548152906001019060200180831161082a57829003601f168201915b5050505050815260200160058201548152602001600682015481526020016007820154815260200160088201805480602002602001604051908101604052809291908181526020016000905b8282101561093f5783829060005260206000200180546108b29061352e565b80601f01602080910402602001604051908101604052809291908181526020018280546108de9061352e565b801561092b5780601f106109005761010080835404028352916020019161092b565b820191906000526020600020905b81548152906001019060200180831161090e57829003601f168201915b505050505081526020019060010190610893565b50505050815250508152602001906001019061058e565b50505050905090565b6109683361030d565b6109a7576040517f08c379a000000000000000000000000000000000000000000000000000000000815260040161099e90613684565b60405180910390fd5b6109b08361030d565b6109ef576040517f08c379a00000000000000000000000000000000000000000000000000000000081526004016109e6906136f0565b60405180910390fd5b8273ffffffffffffffffffffffffffffffffffffffff163373ffffffffffffffffffffffffffffffffffffffff161415610a5e576040517f08c379a0000000000000000000000000000000000000000000000000000000008152600401610a5590613782565b60405180910390fd5b60001515610a6c3385611d2e565b151514610aae576040517f08c379a0000000000000000000000000000000000000000000000000000000008152600401610aa5906137ee565b60405180910390fd5b610afd338484848080601f016020809104026020016040519081016040528093929190818152602001838380828437600081840152601f19601f8201169050808301925050505050505061259c565b60005b600360008573ffffffffffffffffffffffffffffffffffffffff1673ffffffffffffffffffffffffffffffffffffffff16815260200190815260200160002060020180549050811015610d4857600460003373ffffffffffffffffffffffffffffffffffffffff1673ffffffffffffffffffffffffffffffffffffffff168152602001908152602001600020600360008673ffffffffffffffffffffffffffffffffffffffff1673ffffffffffffffffffffffffffffffffffffffff1681526020019081526020016000206002018281548110610be057610bdf61380e565b5b906000526020600020906009020190806001815401808255809150506001900390600052602060002090600902016000909190919091506000820181600001908054610c2b9061352e565b610c369291906127af565b506001820160009054906101000a900473ffffffffffffffffffffffffffffffffffffffff168160010160006101000a81548173ffffffffffffffffffffffffffffffffffffffff021916908373ffffffffffffffffffffffffffffffffffffffff1602179055506002820181600201908054610cb29061352e565b610cbd9291906127af565b506003820181600301908054610cd29061352e565b610cdd9291906127af565b506004820181600401908054610cf29061352e565b610cfd9291906127af565b506005820154816005015560068201548160060155600782015481600701556008820181600801908054610d3292919061283c565b5050508080610d409061386c565b915050610b00565b50505050565b610d573361030d565b610d96576040517f08c379a0000000000000000000000000000000000000000000000000000000008152600401610d8d90613901565b60405180910390fd5b6000835111610da457600080fd5b60016000815480929190610db79061386c565b91905055506000604051806101200160405280600360003373ffffffffffffffffffffffffffffffffffffffff1673ffffffffffffffffffffffffffffffffffffffff1681526020019081526020016000206000018054610e179061352e565b80601f0160208091040260200160405190810160405280929190818152602001828054610e439061352e565b8015610e905780601f10610e6557610100808354040283529160200191610e90565b820191906000526020600020905b815481529060010190602001808311610e7357829003601f168201915b505050505081526020013373ffffffffffffffffffffffffffffffffffffffff16815260200185815260200184815260200183815260200160008152602001600154815260200160008152602001600067ffffffffffffffff811115610ef957610ef8612f2d565b5b604051908082528060200260200182016040528015610f2c57816020015b6060815260200190600190039081610f175790505b50815250905060005b600360003373ffffffffffffffffffffffffffffffffffffffff1673ffffffffffffffffffffffffffffffffffffffff1681526020019081526020016000206001018054905081101561117c5760046000600360003373ffffffffffffffffffffffffffffffffffffffff1673ffffffffffffffffffffffffffffffffffffffff1681526020019081526020016000206001018381548110610fda57610fd961380e565b5b906000526020600020906002020160000160009054906101000a900473ffffffffffffffffffffffffffffffffffffffff1673ffffffffffffffffffffffffffffffffffffffff1673ffffffffffffffffffffffffffffffffffffffff168152602001908152602001600020829080600181540180825580915050600190039060005260206000209060090201600090919091909150600082015181600001908051906020019061108c929190612729565b5060208201518160010160006101000a81548173ffffffffffffffffffffffffffffffffffffffff021916908373ffffffffffffffffffffffffffffffffffffffff16021790555060408201518160020190805190602001906110f0929190612729565b50606082015181600301908051906020019061110d929190612729565b50608082015181600401908051906020019061112a929190612729565b5060a0820151816005015560c0820151816006015560e082015181600701556101008201518160080190805190602001906111669291906128a4565b50505080806111749061386c565b915050610f35565b50600360003373ffffffffffffffffffffffffffffffffffffffff1673ffffffffffffffffffffffffffffffffffffffff1681526020019081526020016000206002018190806001815401808255809150506001900390600052602060002090600902016000909190919091506000820151816000019080519060200190611205929190612729565b5060208201518160010160006101000a81548173ffffffffffffffffffffffffffffffffffffffff021916908373ffffffffffffffffffffffffffffffffffffffff1602179055506040820151816002019080519060200190611269929190612729565b506060820151816003019080519060200190611286929190612729565b5060808201518160040190805190602001906112a3929190612729565b5060a0820151816005015560c0820151816006015560e082015181600701556101008201518160080190805190602001906112df9291906128a4565b5050506005819080600181540180825580915050600190039060005260206000209060090201600090919091909150600082015181600001908051906020019061132a929190612729565b5060208201518160010160006101000a81548173ffffffffffffffffffffffffffffffffffffffff021916908373ffffffffffffffffffffffffffffffffffffffff160217905550604082015181600201908051906020019061138e929190612729565b5060608201518160030190805190602001906113ab929190612729565b5060808201518160040190805190602001906113c8929190612729565b5060a0820151816005015560c0820151816006015560e082015181600701556101008201518160080190805190602001906114049291906128a4565b50505050505050565b611415612904565b600460008373ffffffffffffffffffffffffffffffffffffffff1673ffffffffffffffffffffffffffffffffffffffff1681526020019081526020016000206001600460008573ffffffffffffffffffffffffffffffffffffffff1673ffffffffffffffffffffffffffffffffffffffff168152602001908152602001600020805490506114a39190613921565b815481106114b4576114b361380e565b5b9060005260206000209060090201604051806101200160405290816000820180546114de9061352e565b80601f016020809104026020016040519081016040528092919081815260200182805461150a9061352e565b80156115575780601f1061152c57610100808354040283529160200191611557565b820191906000526020600020905b81548152906001019060200180831161153a57829003601f168201915b505050505081526020016001820160009054906101000a900473ffffffffffffffffffffffffffffffffffffffff1673ffffffffffffffffffffffffffffffffffffffff1673ffffffffffffffffffffffffffffffffffffffff1681526020016002820180546115c69061352e565b80601f01602080910402602001604051908101604052809291908181526020018280546115f29061352e565b801561163f5780601f106116145761010080835404028352916020019161163f565b820191906000526020600020905b81548152906001019060200180831161162257829003601f168201915b505050505081526020016003820180546116589061352e565b80601f01602080910402602001604051908101604052809291908181526020018280546116849061352e565b80156116d15780601f106116a6576101008083540402835291602001916116d1565b820191906000526020600020905b8154815290600101906020018083116116b457829003601f168201915b505050505081526020016004820180546116ea9061352e565b80601f01602080910402602001604051908101604052809291908181526020018280546117169061352e565b80156117635780601f1061173857610100808354040283529160200191611763565b820191906000526020600020905b81548152906001019060200180831161174657829003601f168201915b5050505050815260200160058201548152602001600682015481526020016007820154815260200160088201805480602002602001604051908101604052809291908181526020016000905b8282101561185b5783829060005260206000200180546117ce9061352e565b80601f01602080910402602001604051908101604052809291908181526020018280546117fa9061352e565b80156118475780601f1061181c57610100808354040283529160200191611847565b820191906000526020600020905b81548152906001019060200180831161182a57829003601f168201915b5050505050815260200190600101906117af565b50505050815250509050919050565b6000806000905060005b600360003373ffffffffffffffffffffffffffffffffffffffff1673ffffffffffffffffffffffffffffffffffffffff16815260200190815260200160002060010180549050811015611999578373ffffffffffffffffffffffffffffffffffffffff16600360003373ffffffffffffffffffffffffffffffffffffffff1673ffffffffffffffffffffffffffffffffffffffff168152602001908152602001600020600101828154811061192c5761192b61380e565b5b906000526020600020906002020160000160009054906101000a900473ffffffffffffffffffffffffffffffffffffffff1673ffffffffffffffffffffffffffffffffffffffff1614156119865780925060019150611999565b80806119919061386c565b915050611874565b508015611be257600360003373ffffffffffffffffffffffffffffffffffffffff1673ffffffffffffffffffffffffffffffffffffffff1681526020019081526020016000206001016001600360003373ffffffffffffffffffffffffffffffffffffffff1673ffffffffffffffffffffffffffffffffffffffff16815260200190815260200160002060010180549050611a349190613921565b81548110611a4557611a4461380e565b5b9060005260206000209060020201600360003373ffffffffffffffffffffffffffffffffffffffff1673ffffffffffffffffffffffffffffffffffffffff1681526020019081526020016000206001018381548110611aa757611aa661380e565b5b90600052602060002090600202016000820160009054906101000a900473ffffffffffffffffffffffffffffffffffffffff168160000160006101000a81548173ffffffffffffffffffffffffffffffffffffffff021916908373ffffffffffffffffffffffffffffffffffffffff1602179055506001820181600101908054611b309061352e565b611b3b9291906127af565b50905050600360003373ffffffffffffffffffffffffffffffffffffffff1673ffffffffffffffffffffffffffffffffffffffff168152602001908152602001600020600101805480611b9157611b90613955565b5b6001900381819060005260206000209060020201600080820160006101000a81549073ffffffffffffffffffffffffffffffffffffffff0219169055600182016000611bdd9190612966565b505090555b505050565b60606000805480602002602001604051908101604052809291908181526020016000905b82821015611d255783829060005260206000209060020201604051806040016040529081600082018054611c3e9061352e565b80601f0160208091040260200160405190810160405280929190818152602001828054611c6a9061352e565b8015611cb75780601f10611c8c57610100808354040283529160200191611cb7565b820191906000526020600020905b815481529060010190602001808311611c9a57829003601f168201915b505050505081526020016001820160009054906101000a900473ffffffffffffffffffffffffffffffffffffffff1673ffffffffffffffffffffffffffffffffffffffff1673ffffffffffffffffffffffffffffffffffffffff168152505081526020019060010190611c0b565b50505050905090565b600080600090505b600360008573ffffffffffffffffffffffffffffffffffffffff1673ffffffffffffffffffffffffffffffffffffffff16815260200190815260200160002060010180549050811015611e59578273ffffffffffffffffffffffffffffffffffffffff16600360008673ffffffffffffffffffffffffffffffffffffffff1673ffffffffffffffffffffffffffffffffffffffff1681526020019081526020016000206001018281548110611dee57611ded61380e565b5b906000526020600020906002020160000160009054906101000a900473ffffffffffffffffffffffffffffffffffffffff1673ffffffffffffffffffffffffffffffffffffffff161415611e46576001915050611e5f565b8080611e519061386c565b915050611d36565b50600090505b92915050565b6060600360003373ffffffffffffffffffffffffffffffffffffffff1673ffffffffffffffffffffffffffffffffffffffff168152602001908152602001600020600101805480602002602001604051908101604052809291908181526020016000905b82821015611fe357838290600052602060002090600202016040518060400160405290816000820160009054906101000a900473ffffffffffffffffffffffffffffffffffffffff1673ffffffffffffffffffffffffffffffffffffffff1673ffffffffffffffffffffffffffffffffffffffff168152602001600182018054611f529061352e565b80601f0160208091040260200160405190810160405280929190818152602001828054611f7e9061352e565b8015611fcb5780601f10611fa057610100808354040283529160200191611fcb565b820191906000526020600020905b815481529060010190602001808311611fae57829003601f168201915b50505050508152505081526020019060010190611ec9565b50505050905090565b6060600360008373ffffffffffffffffffffffffffffffffffffffff1673ffffffffffffffffffffffffffffffffffffffff168152602001908152602001600020600001805461203b9061352e565b80601f01602080910402602001604051908101604052809291908181526020018280546120679061352e565b80156120b45780601f10612089576101008083540402835291602001916120b4565b820191906000526020600020905b81548152906001019060200180831161209757829003601f168201915b50505050509050919050565b60606000600460008473ffffffffffffffffffffffffffffffffffffffff1673ffffffffffffffffffffffffffffffffffffffff16815260200190815260200160002080549050111561253f57600460008373ffffffffffffffffffffffffffffffffffffffff1673ffffffffffffffffffffffffffffffffffffffff168152602001908152602001600020805480602002602001604051908101604052809291908181526020016000905b828210156125345783829060005260206000209060090201604051806101200160405290816000820180546121a09061352e565b80601f01602080910402602001604051908101604052809291908181526020018280546121cc9061352e565b80156122195780601f106121ee57610100808354040283529160200191612219565b820191906000526020600020905b8154815290600101906020018083116121fc57829003601f168201915b505050505081526020016001820160009054906101000a900473ffffffffffffffffffffffffffffffffffffffff1673ffffffffffffffffffffffffffffffffffffffff1673ffffffffffffffffffffffffffffffffffffffff1681526020016002820180546122889061352e565b80601f01602080910402602001604051908101604052809291908181526020018280546122b49061352e565b80156123015780601f106122d657610100808354040283529160200191612301565b820191906000526020600020905b8154815290600101906020018083116122e457829003601f168201915b5050505050815260200160038201805461231a9061352e565b80601f01602080910402602001604051908101604052809291908181526020018280546123469061352e565b80156123935780601f1061236857610100808354040283529160200191612393565b820191906000526020600020905b81548152906001019060200180831161237657829003601f168201915b505050505081526020016004820180546123ac9061352e565b80601f01602080910402602001604051908101604052809291908181526020018280546123d89061352e565b80156124255780601f106123fa57610100808354040283529160200191612425565b820191906000526020600020905b81548152906001019060200180831161240857829003601f168201915b5050505050815260200160058201548152602001600682015481526020016007820154815260200160088201805480602002602001604051908101604052809291908181526020016000905b8282101561251d5783829060005260206000200180546124909061352e565b80601f01602080910402602001604051908101604052809291908181526020018280546124bc9061352e565b80156125095780601f106124de57610100808354040283529160200191612509565b820191906000526020600020905b8154815290600101906020018083116124ec57829003601f168201915b505050505081526020019060010190612471565b50505050815250508152602001906001019061216c565b505050509050612597565b600067ffffffffffffffff81111561255a57612559612f2d565b5b60405190808252806020026020018201604052801561259357816020015b612580612904565b8152602001906001900390816125785790505b5090505b919050565b600060405180604001604052808473ffffffffffffffffffffffffffffffffffffffff168152602001838152509050600360008573ffffffffffffffffffffffffffffffffffffffff1673ffffffffffffffffffffffffffffffffffffffff16815260200190815260200160002060010181908060018154018082558091505060019003906000526020600020906002020160009091909190915060008201518160000160006101000a81548173ffffffffffffffffffffffffffffffffffffffff021916908373ffffffffffffffffffffffffffffffffffffffff160217905550602082015181600101908051906020019061269a929190612729565b50505050505050565b8280546126af9061352e565b90600052602060002090601f0160209004810192826126d15760008555612718565b82601f106126ea57803560ff1916838001178555612718565b82800160010185558215612718579182015b828111156127175782358255916020019190600101906126fc565b5b50905061272591906129a6565b5090565b8280546127359061352e565b90600052602060002090601f016020900481019282612757576000855561279e565b82601f1061277057805160ff191683800117855561279e565b8280016001018555821561279e579182015b8281111561279d578251825591602001919060010190612782565b5b5090506127ab91906129a6565b5090565b8280546127bb9061352e565b90600052602060002090601f0160209004810192826127dd576000855561282b565b82601f106127ee578054855561282b565b8280016001018555821561282b57600052602060002091601f016020900482015b8281111561282a57825482559160010191906001019061280f565b5b50905061283891906129a6565b5090565b8280548282559060005260206000209081019282156128935760005260206000209182015b828111156128925782829080546128779061352e565b6128829291906127af565b5091600101919060010190612861565b5b5090506128a091906129c3565b5090565b8280548282559060005260206000209081019282156128f3579160200282015b828111156128f25782518290805190602001906128e2929190612729565b50916020019190600101906128c4565b5b50905061290091906129c3565b5090565b60405180610120016040528060608152602001600073ffffffffffffffffffffffffffffffffffffffff168152602001606081526020016060815260200160608152602001600081526020016000815260200160008152602001606081525090565b5080546129729061352e565b6000825580601f1061298457506129a3565b601f0160209004906000526020600020908101906129a291906129a6565b5b50565b5b808211156129bf5760008160009055506001016129a7565b5090565b5b808211156129e357600081816129da9190612966565b506001016129c4565b5090565b6000604051905090565b600080fd5b600080fd5b600073ffffffffffffffffffffffffffffffffffffffff82169050919050565b6000612a26826129fb565b9050919050565b612a3681612a1b565b8114612a4157600080fd5b50565b600081359050612a5381612a2d565b92915050565b600060208284031215612a6f57612a6e6129f1565b5b6000612a7d84828501612a44565b91505092915050565b60008115159050919050565b612a9b81612a86565b82525050565b6000602082019050612ab66000830184612a92565b92915050565b600080fd5b600080fd5b600080fd5b60008083601f840112612ae157612ae0612abc565b5b8235905067ffffffffffffffff811115612afe57612afd612ac1565b5b602083019150836001820283011115612b1a57612b19612ac6565b5b9250929050565b60008060208385031215612b3857612b376129f1565b5b600083013567ffffffffffffffff811115612b5657612b556129f6565b5b612b6285828601612acb565b92509250509250929050565b600081519050919050565b600082825260208201905092915050565b6000819050602082019050919050565b600081519050919050565b600082825260208201905092915050565b60005b83811015612bd4578082015181840152602081019050612bb9565b83811115612be3576000848401525b50505050565b6000601f19601f8301169050919050565b6000612c0582612b9a565b612c0f8185612ba5565b9350612c1f818560208601612bb6565b612c2881612be9565b840191505092915050565b6000612c3e826129fb565b9050919050565b612c4e81612c33565b82525050565b6000819050919050565b612c6781612c54565b82525050565b600081519050919050565b600082825260208201905092915050565b6000819050602082019050919050565b6000612ca58383612bfa565b905092915050565b6000602082019050919050565b6000612cc582612c6d565b612ccf8185612c78565b935083602082028501612ce185612c89565b8060005b85811015612d1d5784840389528151612cfe8582612c99565b9450612d0983612cad565b925060208a01995050600181019050612ce5565b50829750879550505050505092915050565b6000610120830160008301518482036000860152612d4d8282612bfa565b9150506020830151612d626020860182612c45565b5060408301518482036040860152612d7a8282612bfa565b91505060608301518482036060860152612d948282612bfa565b91505060808301518482036080860152612dae8282612bfa565b91505060a0830151612dc360a0860182612c5e565b5060c0830151612dd660c0860182612c5e565b5060e0830151612de960e0860182612c5e565b50610100830151848203610100860152612e038282612cba565b9150508091505092915050565b6000612e1c8383612d2f565b905092915050565b6000602082019050919050565b6000612e3c82612b6e565b612e468185612b79565b935083602082028501612e5885612b8a565b8060005b85811015612e945784840389528151612e758582612e10565b9450612e8083612e24565b925060208a01995050600181019050612e5c565b50829750879550505050505092915050565b60006020820190508181036000830152612ec08184612e31565b905092915050565b600080600060408486031215612ee157612ee06129f1565b5b6000612eef86828701612a44565b935050602084013567ffffffffffffffff811115612f1057612f0f6129f6565b5b612f1c86828701612acb565b92509250509250925092565b600080fd5b7f4e487b7100000000000000000000000000000000000000000000000000000000600052604160045260246000fd5b612f6582612be9565b810181811067ffffffffffffffff82111715612f8457612f83612f2d565b5b80604052505050565b6000612f976129e7565b9050612fa38282612f5c565b919050565b600067ffffffffffffffff821115612fc357612fc2612f2d565b5b612fcc82612be9565b9050602081019050919050565b82818337600083830152505050565b6000612ffb612ff684612fa8565b612f8d565b90508281526020810184848401111561301757613016612f28565b5b613022848285612fd9565b509392505050565b600082601f83011261303f5761303e612abc565b5b813561304f848260208601612fe8565b91505092915050565b600080600060608486031215613071576130706129f1565b5b600084013567ffffffffffffffff81111561308f5761308e6129f6565b5b61309b8682870161302a565b935050602084013567ffffffffffffffff8111156130bc576130bb6129f6565b5b6130c88682870161302a565b925050604084013567ffffffffffffffff8111156130e9576130e86129f6565b5b6130f58682870161302a565b9150509250925092565b600061012083016000830151848203600086015261311d8282612bfa565b91505060208301516131326020860182612c45565b506040830151848203604086015261314a8282612bfa565b915050606083015184820360608601526131648282612bfa565b9150506080830151848203608086015261317e8282612bfa565b91505060a083015161319360a0860182612c5e565b5060c08301516131a660c0860182612c5e565b5060e08301516131b960e0860182612c5e565b506101008301518482036101008601526131d38282612cba565b9150508091505092915050565b600060208201905081810360008301526131fa81846130ff565b905092915050565b600081519050919050565b600082825260208201905092915050565b6000819050602082019050919050565b61323781612a1b565b82525050565b6000604083016000830151848203600086015261325a8282612bfa565b915050602083015161326f602086018261322e565b508091505092915050565b6000613286838361323d565b905092915050565b6000602082019050919050565b60006132a682613202565b6132b0818561320d565b9350836020820285016132c28561321e565b8060005b858110156132fe57848403895281516132df858261327a565b94506132ea8361328e565b925060208a019950506001810190506132c6565b50829750879550505050505092915050565b6000602082019050818103600083015261332a818461329b565b905092915050565b60008060408385031215613349576133486129f1565b5b600061335785828601612a44565b925050602061336885828601612a44565b9150509250929050565b600081519050919050565b600082825260208201905092915050565b6000819050602082019050919050565b60006040830160008301516133b6600086018261322e565b50602083015184820360208601526133ce8282612bfa565b9150508091505092915050565b60006133e7838361339e565b905092915050565b6000602082019050919050565b600061340782613372565b613411818561337d565b9350836020820285016134238561338e565b8060005b8581101561345f578484038952815161344085826133db565b945061344b836133ef565b925060208a01995050600181019050613427565b50829750879550505050505092915050565b6000602082019050818103600083015261348b81846133fc565b905092915050565b600082825260208201905092915050565b60006134af82612b9a565b6134b98185613493565b93506134c9818560208601612bb6565b6134d281612be9565b840191505092915050565b600060208201905081810360008301526134f781846134a4565b905092915050565b7f4e487b7100000000000000000000000000000000000000000000000000000000600052602260045260246000fd5b6000600282049050600182168061354657607f821691505b6020821081141561355a576135596134ff565b5b50919050565b7f5573657220616c726564792068617320616e206163636f756e74210000000000600082015250565b6000613596601b83613493565b91506135a182613560565b602082019050919050565b600060208201905081810360008301526135c581613589565b9050919050565b7f55736572206e616d652073686f756c64206e6f7420626520656d707479210000600082015250565b6000613602601e83613493565b915061360d826135cc565b602082019050919050565b60006020820190508181036000830152613631816135f5565b9050919050565b7f43726561746520616e206163636f756e74206669727374000000000000000000600082015250565b600061366e601783613493565b915061367982613638565b602082019050919050565b6000602082019050818103600083015261369d81613661565b9050919050565b7f55736572206973206e6f74207265676973746572656421000000000000000000600082015250565b60006136da601783613493565b91506136e5826136a4565b602082019050919050565b60006020820190508181036000830152613709816136cd565b9050919050565b7f55736572732063616e6e6f7420616464207468656d6573656c7665732061732060008201527f667269656e647300000000000000000000000000000000000000000000000000602082015250565b600061376c602783613493565b915061377782613710565b604082019050919050565b6000602082019050818103600083015261379b8161375f565b9050919050565b7f54686573652075736572732061726520616c726561647920667269656e647300600082015250565b60006137d8601f83613493565b91506137e3826137a2565b602082019050919050565b60006020820190508181036000830152613807816137cb565b9050919050565b7f4e487b7100000000000000000000000000000000000000000000000000000000600052603260045260246000fd5b7f4e487b7100000000000000000000000000000000000000000000000000000000600052601160045260246000fd5b600061387782612c54565b91507fffffffffffffffffffffffffffffffffffffffffffffffffffffffffffffffff8214156138aa576138a961383d565b5b600182019050919050565b7f55736572206e6f74207265676973746572656421000000000000000000000000600082015250565b60006138eb601483613493565b91506138f6826138b5565b602082019050919050565b6000602082019050818103600083015261391a816138de565b9050919050565b600061392c82612c54565b915061393783612c54565b92508282101561394a5761394961383d565b5b828203905092915050565b7f4e487b7100000000000000000000000000000000000000000000000000000000600052603160045260246000fdfea264697066735822122069b5588c47ee82a6d6834d2fc2213d60fb4bd932af69076defb11ddec9f17c0e64736f6c63430008090033",
  "linkReferences": {},
  "deployedLinkReferences": {}
}